:100000000128FE2F0000000000000000000000009A
:1000100000000000000000000000000000000000E0
:1000200000000000000000000000000000000000D0
:1000300000000000000000000000000000000000C0
:1000400000000000000000000000000000000000B0
:100A500000000000000000000000000000007A34E8
:100A60007A346C3431345234F20022008E11720820
:100A70006F2522008E1508002400951221008E108B
:100A80000E113D00A20108007C08F0003330F10196
:100A9000F200F300CB26700808008B133726AD2533
:100AA0006030320099009A2565265B270128F30003
:100AB00022000C11F33573086F2572086F25220090
:100AC0000C15080024001108F000200091112400EA
:100AD00091012000911D692D240011080800F000EB
:100AE00024001108F10020009111700824009100E9
:100AF000200091190800782DF30022000C117335A5
:100B00004038F3006F256225F20022000C157208B0
:100B10000800F40020001010EA30840085308500C1
:100B20000008F5001F30F5057408F5047508F2009B
:100B30000030572D21008E1419303D00A2002400F2
:100B400095019601970140309400210091112400F5
:100B5000951622008E150C15080001308B0021001F
:100B600090019101920193019401320098139F0129
:100B70009B012100101227009301193021009700DA
:100B80002000101200006300000000002100171078
:100B900010120800813097000530FD00FD037D0F25
:100BA000CE2D21009E01FD309D009F010530FD00EE
:100BB000FD037D0A031DD82D21009D149D18DE2DF7
:100BC0001C08FC002200970121009D017C080319EC
:100BD000FC0A080036348434043404340C34C13440
:100BE0007D346434143477345F3413343834083447
:100BF00001340034A334383438340734003400343A
:100C00007A347A346C343134B834003440340034BB
:100C1000FC3400342030892509308400863085007A
:100C20000008F2001F3072135725F730840085301A
:100C3000850000080138F2000D305725F830840097
:100C40008530850000080238F2000E305725F60185
:100C5000760820002002031C352E7608203E8600F0
:100C6000870101083425F60A282E8030892D153099
:100C70003C0090001030A00018303D00A00019305A
:100C8000A20011303C00A100843022008C001A30F8
:100C90008E00223021008E0038308C0023008C0121
:100CA000083024008C0023008E01103024008E00B8
:100CB000063032009104873092044630930473303A
:100CC000940495160730960408009726003A0319F5
:100CD00001002F308400853085000008F2001630B6
:100CE000572530308400853085000008F200173029
:100CF000572531308400853085000008F200183017
:100D0000572532308400853085000008F200193004
:100D1000572533308400853085000008FA00F20042
:100D20001D3057250030892521008E120800F8015A
:100D30007808EA3E840085300318013E85000008EB
:100D4000F200780857252030F80A7802031C982E04
:100D50000E307C25F7000238F2000E305725403067
:100D60008925FF30F800F601BD2E0E307C25F700F6
:100D7000F71CBD2EF801F601F60AF803780FB52E20
:100D8000203089250E307C25F7000238F2000E3025
:100D9000572576080800F501F11FD52EF009F10955
:100DA000F00A0319F10AF501F50AF31FDE2EF20924
:100DB000F309F20A0319F30A0130F506F601F70107
:100DC000700871040319FE2EF401F40AF11BEB2ED6
:100DD000F035F10DE52EF635F70D71087302031DA0
:100DE000F32E70087202031CFA2E7008F2027108CA
:100DF000F33B7614F136F00CF40BEB2E7508031967
:100E0000062FF609F709F60A0319F70A7708F10021
:100E10007608F0000800F80021008E1620308925A1
:100E20002000A1017A08A2000630A400B130A5007C
:100E30007808A600C130A7004425A8000830A0000B
:100E4000A301270093010530210097002000101214
:100E500000006300000000002100171010120E3087
:100E60007C25F9000238F2000E30572540308925E4
:100E7000270093010330210097002000101200008A
:100E80006300000000002100171010120E307C25B6
:100E9000F900F91C502F0A2620001018512F4C2F52
:100EA00001000A30F900F903790F532F003089252A
:100EB00021008E1208004030320099000230FB0100
:100EC000FB0AE32F22000E163C25320095149316E0
:100ED0009117111727009216210010162700930171
:100EE0009301210097012000101200006300000010
:100EF000000021001710101222000E126030320084
:100F0000990095109113931211139A25CA25013057
:100F10000B273C25320095149316911711170230B8
:100F20002000E200FB01FB0AE001E00AE1014030A1
:100F3000320099007B080319622F270093011930B2
:100F40002100970020001012000063000000000044
:100F5000210017101012FD0104307D020318B72F75
:100F600022000E16FD0A04307D02031CB02F003053
:100F700020008C1A0130FD0022000E127D08031D96
:100F8000E62F2000600861040319CB2F0130E00236
:100F90000030E13BE22F60303200990096302000B3
:100FA000E000E101320095109113931211139A257C
:100FB00001300B273C253200951493169117111719
:100FC0004030990002302000E2009A2F2000620891
:100FD0000319EC2FE2039A2F60303200990095102C
:100FE0009113931211139A2500300B273C253200E0
:100FF0009514931691171117FB01972F20004D2D73
:020000040001F9
:08000E00CCDF17F7FFFFFFFF35
:00000001FF
