:020000040000FA
:06000000C8EF10F0120031
:0600080004EF08F01200F5
:060018000CEF08F01200DD
:02001E000200DE
:10002000AC210000D701000020000000810F00007B
:08003000F801000001000000CE
:08003800DACFE4FFE2CFDAFFAA
:10004000E9CFE4FFEACFE4FFF6CFE4FFF7CFE4FF28
:10005000F5CFE4FFF3CFE4FFF4CFE4FFFACFE4FF02
:1000600000EE00F0100EE80403E3EECFE4FFFBD750
:1000700000EE10F0080EE80403E3EECFE4FFFBD738
:10008000E6525FEC08F0E55200EE17F0080EE804C7
:1000900003E3E5CFEDFFFBD700EE0FF0100EE80411
:1000A00003E3E5CFEDFFFBD7E5CFFAFFE5CFF4FFA4
:1000B000E5CFF3FFE5CFF5FFE5CFF7FFE5CFF6FF9F
:1000C000E5CFEAFFE5CFE9FFE5CFDAFF1100D8CFB2
:1000D000E4FFE0CFE4FFE46EDACFE4FFE2CFDAFF43
:1000E000E652E552E5CFDAFFE550E5CFE0FFE5CF98
:1000F000D8FF100016D851EC10F00101D26BD36B71
:10010000ECEC05F0C6D80101D00ECD5D070ECE593E
:1001100002E2899401D08984CD07000ECE5BF2D72C
:100120001200D9CFE6FFE1CFD9FF020EE1260F0181
:1001300048693F0E496F580EDE6E020EDD6E9B8CD5
:10014000DFCF10F0DF06010EDBCF11F001E2DB069E
:100150001050111001E0F4D70F01486949691DD80A
:100160000FEC08F0E4EC06F042EC05F0000903E1C6
:1001700089808990FDD70101D16B929092929294DF
:10018000898089828984020EE15C02E2E16AE5529B
:10019000E16EE552E7CFD9FF1200D9CFE6FFE1CFFC
:1001A000D9FFE652DF6ADF50106E116A640E105CF0
:1001B000000E115809E2DF50EA6A000FE96E010EE5
:1001C000EA22EF6ADF2AEFD70101C86BC96BCB6B5C
:1001D000CC6B9380F19EE552E552E7CFD9FF120038
:1001E000D9CFE6FFE1CFD9FF040EE126D880000E7B
:1001F00002010055C20E0155010E0255000E0355B5
:1002000001E23DD000C2ACF201C2ADF202C2AEF2D8
:1002100003C2AFF2146A1B0E156EB70E166E176A84
:1002200014C004F015C005F016C006F017C007F0A2
:10023000ACC209F0ADC20AF0AEC20BF0AFC20CF016
:10024000C1EC07F004C010F005C011F006C012F0B8
:1002500007C013F01006000E115A125A135A10C09C
:10026000DFFF010E11C0DBFF020E12C0DBFF030E29
:1002700013C0DBFFDF50B06E010EDB507F6E040E4B
:10028000E15C02E2E16AE552E16EE552E7CFD9FFB7
:100290001200D9CFE6FFE1CFD9FF030EE126200EF1
:1002A0000401E76E5019E8AE02D0E73402D0E750FF
:1002B000505D03E36550020B01E043D1640EE66E2E
:1002C000640EE66E010EE66E93EC03F0E552E55225
:1002D000E5520101C96FDF6AC951DF5C01E3AED0AD
:1002E000DF50EA6A640FE96E010EEA22EF50800BDC
:1002F0000EE0CF6BDF50EA6A640FE96E010EEA226E
:10030000EF50100B03E0010ED16F01D0D16BDF5025
:10031000EA6A640FE96E010EEA22EF50200B13E047
:10032000DF50EA6A640FE96E010EEA22EF500F0B0C
:10033000106ECF51CF2BEA6A610FE96E000EEA22F0
:100340001050EF1213D0DF50EA6A640FE96E010E0D
:10035000EA22EF38F00BF00BE66ECF51EA6A610F3C
:10036000E96E000EEA22E552E750EF6EDF50EA6ACE
:10037000640FE96E010EEA22EF50400B5DE0D105FB
:100380004FE1D16B0001620537E1200EE66E72ECA1
:1003900006F0E55263C0E6FF160EE66EADEC05F022
:1003A000E552E55264C0E6FF170EE66EADEC05F0CF
:1003B000E552E55265C0E6FF180EE66EADEC05F0BD
:1003C000E552E55266C0E6FF190EE66EADEC05F0AB
:1003D000E552E55267C0E6FF1D0EE66EADEC05F096
:1003E000E552E552F80EE66E1E0EE66EADEC05F037
:1003F000E552E552ECEC05F0020E0001625D0FE102
:10040000200EE66E72EC06F0E55264C0E6FF63C0B3
:10041000E6FFADEC05F0E552E552ECEC05F00AD054
:10042000899064C0D4F10EEC06F0F0A4FED7ECEC99
:1004300005F089800101CF6BDF2A4ED794EC06F0DE
:100440000001A15167E00201B45164E18992DE52DA
:10045000800EDD6E0101D06B0001A129E76E020E56
:10046000E7CFDBFFDB50EA6AA10FE96E000EEA225C
:10047000E1C0EFFFD4C1A4F0DF6A020EDB50D880E8
:10048000DF5438E3010EDBCFE6FFDF50EA6AA10F4D
:10049000E96E000EEA22EF380F0BE552E710E66E28
:1004A0000101D051D02BEA6A000FE96E010EEA2259
:1004B000E552E750EF6EDE52200EDD6E010EDBCF0F
:1004C000E6FFDF50EA6AA10FE96E000EEA22EF5064
:1004D0000F0BE552E710E66ED051D02BEA6A000F01
:1004E000E96E010EEA22E552E750EF6E010EDB6A7B
:1004F000DF2AC3D70101D007D051EA6A000FE96EA5
:10050000010EEA22EF8CD029C86FD22B000ED32324
:10051000ECEC05F00201B45112E10101C8510008F0
:100520000EE2C8C1E6FF000EE66E010EE66EF4ECC8
:1005300003F0E552E552E5520101C86B898298EC5F
:1005400004F0030EE15C02E2E16AE552E16EE5527D
:10055000E7CFD9FF120012001200120012000DEFB7
:1005600003F0120060EF03F065840101080ED56FFF
:10057000070ED66FD507000ED65BD551D611FAE11E
:1005800065941200D9CFE6FFE1CFD9FFFD0EDBCF96
:1005900006F0FE0EDBCF07F0720E061801E10750E1
:1005A00033E0E868061802E1E86807182BE0740EEB
:1005B000061801E1075024E0750E061801E1075006
:1005C0001DE0730E061801E1075016E0030E061831
:1005D00001E107500FE0020E061801E1075008E0A4
:1005E000010E061801E1075001E010D0BBDF0FD06B
:1005F000B8DF0DD0B4DF0BD0B0DF09D0ACDF07D04F
:10060000ABDF05D0ABDF03D0000001D000D0010E7E
:0A06100000D0E552E7CFD9FF120039
:06061A00040140511F0B1A
:10062000010801E04CD04051600BE842E842E8424A
:10063000E842E842010801E042D0445103E04405A9
:1006400001E03DD04151220A35E0030A28E0010AC9
:1006500017E0210A0EE0010A01E031D00401C40EC6
:10066000696F020E6A6F080E6C6F6D6B6B816B8F1A
:1006700026D00401C40E696F020E6A6F6B8F1FD003
:1006800046C471F447C472F40401000E6E6F020E8A
:100690006F6FE00E736F010E746F708F10D00401D6
:1006A000AC0E696F020E6A6F070E6C6F6D6BC10E38
:1006B0006B6F05D042C4BFF204016B8F00D01200F3
:1006C0000201AC6B4B0EAD6FAE6BAF6BB06BB16B31
:1006D000080EB26FB46BB36B1A0EE66E020EE66EC6
:1006E000D2EC0EF0E552E5521E0EE66E030EE66EFB
:1006F000D2EC0EF0E552E552640EE66E080EE66EA0
:10070000020EE66EE66A030EE66E78EC0FF0106EEF
:10071000050EE15E1050F3CFBBF2F4CFBCF2020144
:10072000BD6BBE6B1200D9CFE6FFE1CFD9FF02014E
:10073000B36BBB51BC1102E1000E08D0BBC2E9FF94
:10074000BCC2EAFFEF50800B01E0010E000945E159
:10075000FC0EDBCF10F0BBC2E9FFBCC2EAFFEE52D9
:10076000EF50D880105408E2BBC2E9FFBCC2EAFFD8
:10077000EE52FC0EEFCFDBFFB36BFC0EDB50B35D34
:1007800019E2B351EA6A080FE96E020EEA22EF504D
:10079000E66EB351E76EFD0EDBCFE9FFFE0EDBCF59
:1007A000EAFFE750E926000EEA22E552E750EF6E35
:1007B000B32BE3D7640EE66E080EE66E020EE66E0D
:1007C000E66A030EE66E78EC0FF0106E050EE15E41
:1007D0001050F3CFBBF2F4CFBCF20201B35100D002
:1007E000E552E7CFD9FF1200D9CFE6FFE1CFD9FF1D
:1007F000A0980201B4510CE1FD0EDBCFB5F2FE0E64
:10080000DBCFB6F2FC0EDBCFB9F2010EBA6FB46FDC
:10081000A088E552E7CFD9FF1200D9CFE6FFE1CF9C
:10082000D9FF030EE126A0980201B45102E0A0888E
:100830002FD0DF6AFD0EDBCF06F0FE0EDBCF07F018
:10084000DE5206C0DEFF07C0DDFFDD52DF2ADF50CB
:10085000106E116AFF0E101801E1115001E10BD06A
:10086000010EDBCFE9FFDB2A020EDBCFEAFF01E35B
:10087000DB2AEF50EBE1FD0EDBCFB5F2FE0EDBCF56
:10088000B6F2DFCFB9F20201010EBA6FB46FA088E1
:10089000030EE15C02E2E16AE552E16EE552E7CF68
:1008A000D9FF1200D9CFE6FFE1CFD9FF030EE12631
:1008B000A0980201B45102E0A08830D0DF6AFD0E9A
:1008C000DBCF06F0FE0EDBCF07F0DE5206C0DEFF08
:1008D00007C0DDFFDD52DF2ADF50106E116AFF0E08
:1008E000101801E1115001E10CD0010EDBCFF6FF31
:1008F000DB2A020EDBCFF7FF01E3DB2A0800F5500D
:10090000EAE1FD0EDBCFB5F2FE0EDBCFB6F2DFCFB4
:10091000B9F20201BA6B010EB46FA088030EE15C5C
:1009200002E2E16AE552E16EE552E7CFD9FF12003B
:10093000D9CFE6FFE1CFD9FF020EE126A098020150
:10094000BD51BE1102E1000E08D0BDC2E9FFBEC21A
:10095000EAFFEF50800B01E0010E000902E0A088E1
:1009600087D0030EB45D01E1B46BB45102E1A088FD
:100970007FD0020EB45D16E1E66A000EE66EE66A0E
:10098000010EE66E030EE66E78EC0FF0106E050EAB
:10099000E15E1050F3CFBDF2F4CFBEF20201030EC0
:1009A000B46F65D0B40563E1400E106E116AB951A1
:1009B000105C000E115803E2400EDF6E02D0B9C287
:1009C000DFFFDF50B95DB96F6C0EB76F020EB86F05
:1009D000010EDFCFDBFFBA5117E1010EDB5013E050
:1009E000B5C2F6FFB6C2F7FF0800F550B7C2E9FF7F
:1009F000B8C2EAFFEF6EB72B000EB823B52BB623B3
:100A0000010EDB06EAD715D0010EDB5012E0B5C2AD
:100A1000E9FFB6C2EAFFEF50B7C2E9FFB8C2EAFF8A
:100A2000EF6EB72B000EB823B52BB623010EDB06F5
:100A3000EBD7B95108E1400EDF5C03E1020EB46F61
:100A400002D0030EB46FDFCFE6FF6C0EE66E020E2F
:100A5000E66E010EE66E030EE66E78EC0FF0106E99
:100A6000050EE15E1050F3CFBDF2F4CFBEF2A088C8
:100A7000020EE15C02E2E16AE552E16EE552E7CF87
:040A8000D9FF120088
:0C0A8400D9CFE6FFE1CFD9FF030EE12639
:100A9000010EDB6ADB501F0812E3010EDB50EA6A2D
:100AA000D70FE96E010EEA22EF50E66E010EDBCFA2
:100AB000E6FF53D8E552E552010EDB2AEBD70E0EC6
:100AC000E66E69D8E552DF6E020EDF10E66E0E0E9E
:100AD000E66E43D8E552E552400EE66E03D9E55284
:100AE000010EDB68020EDB6A010EDBCFF3FFDB06D3
:100AF000F35000090EE00E0EE66E4DD8E552DF6EA3
:100B0000DFA206D0010EDB6AF36E020EF3CFDBFF2D
:100B1000EBD7200EE66EE6D8E5520E0EE66E3BD819
:100B2000E552DF6E020EDF10E66E0E0EE66E15D891
:100B3000E552E5520001E16BE1C0A1F0020EDB508D
:100B4000106E030EE15C03E200D0E16AE552E16E53
:100B50001050E552E7CFD9FF1200D9CFE6FFE1CF21
:100B6000D9FF8A9A8A9AFE0EDB50020DFE0EF3CF51
:100B7000DBFFFE0EDBCFE6FFFFEC06F0E552FD0EDD
:100B8000DBCFE6FFFFEC06F0E5528A8A8A8AE5525F
:100B9000E7CFD9FF1200D9CFE6FFE1CFD9FFE65268
:100BA0008A9A8A9AFE0EDB50E8244009E76EFE0E10
:100BB000E7CFDBFFFE0EDBCFE6FFFFEC06F0E552F2
:100BC0002AEC07F0DF6E8A8A8A8ADF5000D0E5526D
:100BD000E552E7CFD9FF1200D9CFE6FFE1CFD9FF29
:100BE000E6520001A16B200EE66E7CD8E5520D0E98
:100BF000E66ED1DFE552DF6E010EDF10E66E0D0E00
:100C0000E66EABDFE552E552F094600EE66E6AD810
:100C1000E552E552E552E7CFD9FF1200D9CFE6FF02
:100C2000E1CFD9FFE652200EE66E5CD8E552BF0E4A
:100C30000101F615E66E1F0EE66E8FDFE552E552F6
:100C4000010E0101E411E66E0D0EE66E86DFE5523F
:100C5000E552020E0101E511E66E0E0EE66E7DDF35
:100C6000E552E552DF6A00016151D880DF540CE3A0
:100C7000DF50EA6A610FE96E000EEA22EF50E66E7D
:100C80000CD8E552DF2AEFD7800EE66E2BD8E5525E
:100C9000E552E552E7CFD9FF1200D9CFE6FFE1CF09
:100CA000D9FF899A899AFE0EDBCFE6FFFFEC06F0AA
:100CB000E552898A898AE552E7CFD9FF1200D9CF58
:100CC000E6FFE1CFD9FFE652899A899A2AEC07F02C
:100CD000DF6E898A898ADF5000D0E552E552E7CF7E
:100CE000D9FF1200D9CFE6FFE1CFD9FFE652F09449
:100CF0001F0E0101D715DF6EFE0EDB50DF12DFCFB6
:100D0000E6FFE66A2ADFE552E552FE0EDBCF60F031
:100D1000E552E552E7CFD9FF1200140EE66E3BDF35
:100D2000E5520001E16F1200D9CFE6FFE1CFD9FF14
:100D3000020EE126600E0001605D33E1F0A431D0C7
:100D4000ECDF200EE66ECEDFE552BF0E0101F61598
:100D50004009E66E1F0EE66E00DFE552E552AFDF9A
:100D6000DF6EDF503F0815E3DFCFA1F0010EDB6A35
:100D7000DF500FE0A4DFE66E010EDB2ADB50EA6AEB
:100D8000A10FE96E000EEA22E552E750EF6EDF0692
:100D9000EFD70D0EE66EFFDEE552020B02E08FDFAD
:100DA000F8D7020EE15C02E2E16AE552E16EE5523B
:060DB000E7CFD9FF12009D
:0A0DB6000101060EF76FF751F70771
:100DC000000901E0FBD71200938493969392929AC4
:100DD000939AF19E9388F186550EA76EAA0EA76E80
:100DE0000E01FF91070EE96F550EA76EAA0EA76EB2
:100DF000FF81898A898A8A8A8A8AF0941200D9CFE7
:100E0000E6FFE1CFD9FFE6528A968A92D4DFDF6A05
:100E1000080EDF5C18E2070ED880DF54106EFE0E5D
:100E2000DB5010C0E7FFE75204E0E8427F0BE70623
:100E3000FCE1E8B08A86E8A08A968A82BCDF8A92C2
:100E4000BADFDF2AE5D78A96B6DFE552E552E7CF6B
:100E5000D9FF1200D9CFE6FFE1CFD9FF020EE1267C
:100E6000010EDB6A8A968A92A6DFDF6A080EDF5CD3
:100E700013E28150040B01E0010E106E010EDB50F5
:100E8000E8241010E76E010EE7CFDBFF8A8293DFC4
:100E90008A9291DFDF2AEAD78EDF010EDB50106ED7
:100EA000020EE15C03E200D0E16AE552E16E10500F
:080EB000E552E7CFD9FF120063
:080EB800120100020200000813
:100EC000D8040A00000101020001090243000201E6
:100ED00000C03209040000010202010005240010D4
:100EE0000104240202052406000105240100010773
:100EF00005820308000209040100020A000000073D
:100F000005030240000007058302400000040309B6
:100F10000434034D006900630072006F00630068D1
:100F20000069007000200054006500630068006ED6
:100F3000006F006C006F0067007900200049006EB0
:100F40000063002E0034034300440043002000529D
:100F50000053002D00320033003200200045006DA8
:100F60000075006C006100740069006F006E002065
:100F700000440065006D006F00CA0E0D0F110F4593
:010F80000F61
:010F8100006F
:0E0F8200036A026A016A006A200EE76ED890C8
:100F90000436053606360736003601360236033685
:100FA0000950005C0A5001580B5002580C5003586D
:100FB00009E30950005E0A50015A0B50025A0C50C6
:0A0FC000035A042AE72EE4D71200BA
:060FCA00FE0EE3CFE9FF7B
:100FD000FF0EE3CFEAFFE9CFF3FFEACFF4FFFB0E0A
:100FE000E35003E1FC0EE35009E0FB0EE30602E2EE
:0E0FF000FC0EE306FD0EE350EE6EF1D712008C
:06100000C8EF10F0120021
:021006001200D6
:061008001CEF00F01200D5
:0610180067EF00F012007A
:02101E00D9CF28
:10102000E6FFE1CFD9FFE652636A626A0F01160E4E
:10103000396F9F0E376F7B0E366F658C386B020EE3
:10104000E66EE66AE66A270EE66E0F0EE66EE5ECE1
:1010500007F0106E050EE15E1050659CDF6ADF50F0
:10106000106E116A100E105C000E115810E2DF5065
:10107000040DF3CFE9FFF4CFEAFF000EE926040EDA
:10108000EA22EE6AEE6AEE6AEE6ADF2AE8D70F011C
:10109000160E266F62A602D06296FCD704016B6B17
:1010A000706B716B726B6598080E5F6F040E606FEA
:1010B000516B506BE552E552E7CFD9FF1200D9CF03
:1010C000E6FFE1CFD9FFE6520401500509E165BA18
:1010D00007D0626A0F01368136890401020E506F13
:1010E0006250040B06E00F013651040B02E06294DB
:1010F000BDD865A202D0A19887D06250010B13E041
:101100000F013651010B0FE08ADF0401040E506F0E
:101110000401400E026F040E036F080E016F006B96
:101120008C0E001362906250100B06E00F013651D6
:10113000100B02E088D862986250400B14E00F0157
:101140003651400B10E0010EE66EE66A000EE66EC8
:10115000E66A730EE66EE66AC2EC02F0106E060EE8
:10116000E15E1050629C6250200B05E00F01365189
:10117000200B01E04ED86250020B13E00F013651F4
:10118000020B0FE0010EE66EE66A000EE66EE66AFE
:10119000E668E668C2EC02F0106E060EE15E1050E2
:1011A000636A040E0401E76E5019E8AE02D0E7341A
:1011B00002D0E750505D02E2A19826D00F0136A779
:1011C00022D0DF6A040EDF5C1EE262A61BD064CF71
:1011D00078F46296780E0401781502E15DD810D09B
:1011E000000EE66EE66A780EE66E040EE66E720E8D
:1011F000E66EE66AC2EC02F0106E060EE15E10507A
:10120000DF2AE0D700D0A198E552E552E7CFD9FF19
:1012100012000F0126A115D053C4E9FF54C4EAFF00
:10122000EF5080080DE15FC4E9FF60C4EAFFEF50B2
:10123000840806E153C4E9FF54C4EAFF8C0EEF6E44
:101240002691629A12000F01368562986582000E1F
:10125000E66EE66AE66EE66A750EE66EE66AC2EC71
:1012600002F0106E060EE15E10501200000EE66EE7
:10127000E66AE66EE66A740EE66EE66AC2EC02F0B4
:10128000106E060EE15E105065920F01369562A455
:1012900002D06294FCD71200D9CFE6FFE1CFD9FF8C
:1012A000E652FD0E040178155AE17E0E7815E840ED
:1012B0007F0B040DF3CF53F4F4CF54F4000E5327F7
:1012C000040E542353C455F454C456F4557553C4F2
:1012D000E9FF54C4EAFFEF503C0BE842E8420D0836
:1012E0003CE153C4E9FF54C4EAFF020EE926000EB4
:1012F000EA22EECF10F0EFCF11F0480E101802E105
:10130000040E111828E153C4E9FF54C4EAFF020E89
:10131000E926000EEA22400EEE6E040EED6EDF6A44
:10132000DF50106E116A080E105C000E115813E2A7
:10133000DF50EA6A480FE96E040EEA22EF50E66ECB
:10134000DF50EA6A400FE96E040EEA22E552E750E8
:10135000EF6EDF2AE5D70DD801D02ED805D0FD0ECF
:101360007815040801E14ED8E552E552E7CFD9FFE0
:1013700012005FC4E9FF60C4EAFFEF50800B05E094
:101380005FC4E9FF60C4EAFFEF6A0401676B686B42
:101390006C6B6D6B6B6BB9D8000EE66EE66AE66E31
:1013A000E66A030EE66EE66AC2EC02F0106E060E06
:1013B000E15E105031EF0CF0020E0401685D02E1B5
:1013C000B0DB1FD06FD8040179511AE155C4E9FF91
:1013D00056C4EAFFEE52080EEF6E55C4E9FF56C43C
:1013E000EAFF020EE926000EEA22400EEE6E040E1F
:1013F000ED6E55C4E9FF56C4EAFF8C0EEF6E01D0C6
:10140000796B1200D9CFE6FFE1CFD9FFE6525FC476
:10141000E9FF60C4EAFFEF50400B01E0010EDF6E10
:1014200004015F75080E505D0DE142C438FF0F01E5
:101430003851000804E20401100E506F03D004017B
:10144000040E506F680528E15FC4E9FF60C4EAFF3D
:10145000020EE926000EEA22480EEE6E040EED6E34
:10146000D5DA020E0401675D07E15FC4E9FF60C4DD
:10147000EAFF840EEF6E0FD0DF5007E15FC4E9FF93
:1014800060C4EAFFC80EEF6E06D05FC4E9FF60C417
:10149000EAFF880EEF6E01D005D8E552E552E7CF9E
:1014A000D9FF1200D9CFE6FFE1CFD9FF020EE12626
:1014B0000401686B5FC4E9FF60C4EAFFEF6A040ED1
:1014C0005F19106E60C411F010C0DEFF11C0DDFFA7
:1014D000DECFE9FFDDCFEAFFEF6A70AF0CD07351CA
:1014E000741107E005D074C4FAFF04017351F96E5A
:1014F000FADF0401709F020EE15C02E2E16AE5524C
:10150000E16EE552E7CFD9FF120004014051600BB4
:10151000E842E842E842E842E842000901E058D0E7
:1015200041510C0A54E00B0A43E00C0A35E0010A71
:1015300026E00B0A22E0020A20E0030A1CE0080A67
:1015400010E0010A0CE00F0A08E0030A01E03FD0B6
:1015500004016B8F080E506F3BD0C8D839D07FDBA9
:1015600037D00401510E696F040E6A6F6B81010E52
:101570006C6F6B8F2DD014D92BD02BD829D0445120
:101580000401696F6A6B520E6927040E6A236B812E
:10159000010E6C6F6B8F1CD004016B8F04014451E2
:1015A000EA6A520FE96E040EEA2242C4EFFF10D03D
:1015B000000EE66EE66AE66EE66A020EE66EE66A21
:1015C000C2EC02F0106E060EE15E105001D000D0A9
:1015D0001200D9CFE6FFE1CFD9FF040EE1260401C6
:1015E000420510E140511F0B00090CE104016B8F13
:1015F000030E0401415D04E10401010E776F02D086
:101600000401776B0401425167E140511F0B02084E
:1016100063E144510F0B00095FE004016B8F04018B
:1016200044BF10D044510F0BE96EEA6AD890E936F6
:10163000EA36570EE926040EEA22EECFDEFFEDCFA2
:10164000DDFF0FD044510F0BE96EEA6AD890E936FE
:10165000EA365F0EE926040EEA22EECFDEFFEDCF7A
:10166000DDFF030E415D07E1DECFE9FFDDCFEAFFDD
:10167000840EEF6E31D044510F0B116A260F106E9D
:101680000F0E1122020E10C0DBFF030E11C0DBFF94
:10169000020EDBCFE9FF030EDBCFEAFFEE90ED5247
:1016A00044AF0DD0DECFE9FFDDCFEAFFEF6ADF7494
:1016B000DECFE9FFDDCFEAFF400EEF6E0DD0DECFCB
:1016C000E9FFDDCFEAFF880EEF6EDF74DECFE9FFC2
:1016D000DDCFEAFFC80EEF6E040EE15C02E2E16AC4
:1016E000E552E16EE552E7CFD9FF1200800E04010A
:1016F000405D55E10401C00E6B6F04014351030AC4
:101700002EE0010A0EE0030A03E004016B6B47D0F0
:101710000401B80E696F0E0E6A6F120E6C6F6D6B5E
:101720003ED04251F66EF76AD890F636F736790E0B
:10173000F6260F0EF7220900F5CF69F40A00F5CF5F
:101740006AF4020E0401F76A6925F66E6A51F722FF
:101750000900F5CF6CF40A00F5CF6DF420D0030E2C
:10176000425D1AE24251F66EF76AD890F636F736C5
:101770007B0EF6260F0EF7220900F5CF69F40A005A
:10178000F5CF6AF469C4F6FF6AC4F7FF0800F550A4
:1017900004016C6F6D6B02D004016B6B00D0120002
:1017A000D9CFE6FFE1CFD9FF020EE1260401486B55
:1017B000496B40511F0B020A12E0030A0DE0010AB7
:1017C00001E03BD004016B8F0401488104017705DF
:1017D00002E10401488331D004016B8F2ED0040153
:1017E0006B8F040144BF10D044510F0BE96EEA6ABD
:1017F000D890E936EA36570EE926040EEA22EECFF3
:10180000DEFFEDCFDDFF0FD044510F0BE96EEA6A2A
:10181000D890E936EA365F0EE926040EEA22EECFCA
:10182000DEFFEDCFDDFFDECFE9FFDDCFEAFFEF50DA
:10183000040B02E0010E486F00D004016BAF07D02B
:10184000480E696F040E6A6F6B81020E6C6F020E98
:10185000E15C02E2E16AE552E16EE552E7CFD9FFD1
:101860001200659804016BBF4AD070AF28D0020EF9
:10187000686F5FC4E9FF60C4EAFFEE52EF6A5FC4BD
:10188000E9FF60C4EAFFC80EEF6E55C4E9FF56C415
:10189000EAFFEE52080EEF6E55C4E9FF56C4EAFFA8
:1018A000020EE926000EEA22480EEE6E040EED6EE0
:1018B00055C4E9FF56C4EAFFC80EEF6E1FD055C4E9
:1018C000E9FF56C4EAFFEE52080EEF6E55C4E9FF79
:1018D00056C4EAFF020EE926000EEA22400EEE6E22
:1018E000040EED6E55C4E9FF56C4EAFF8C0EEF6E90
:1018F0005FC4E9FF60C4EAFF840EEF6E86D070BF5C
:1019000084D0040140AF59D004016C510401465DFC
:1019100004016D510401475904E246C46CF447C404
:101920006DF474D80401010E686F55C4E9FF56C404
:10193000EAFFEE52080EEF6E55C4E9FF56C4EAFF07
:10194000020EE926000EEA22400EEE6E040EED6E47
:1019500055C4E9FF56C4EAFF800EEF6E796B53C49D
:10196000E9FF54C4EAFFEE52080EEF6E53C4E9FFDC
:1019700054C4EAFF020EE926000EEA22400EEE6E83
:10198000040EED6E53C4E9FF54C4EAFF840EEF6EFB
:10199000010E796F5FC4E9FF60C4EAFF020EE92619
:1019A000000EEA22480EEE6E040EED6E5FC4E9FFF3
:1019B00060C4EAFFC80EEF6E28D00401020E686F03
:1019C0005FC4E9FF60C4EAFFEE52EF6A5FC4E9FF5B
:1019D00060C4EAFFC80EEF6E55C4E9FF56C4EAFFC3
:1019E000EE52080EEF6E55C4E9FF56C4EAFF020E30
:1019F000E926000EEA22480EEE6E040EED6E55C486
:101A0000E9FF56C4EAFFC80EEF6E1200D9CFE6FF19
:101A1000E1CFD9FF020EE1260401080E6C5D000E35
:101A20006D590EE26CC4DEFF6DC4DDFF675103E14A
:101A3000010E676F04D0670502E1020E676F03D0E5
:101A4000080EDE6EDD6A5FC4E9FF60C4EAFFEF9254
:101A50005FC4E9FF60C4EAFFEF905FC4E9FF60C4C0
:101A6000EAFF010EDB50EF125FC4E9FF60C4EAFF3A
:101A7000EE52DFCFEFFF000EDB506C5F010EDB504C
:101A80006D5B480E756F040E766F6BB121D0D9CFA8
:101A9000E9FFDACFEAFFEE50ED1019E069C4F6FF76
:101AA0006AC4F7FF692B000E6A230800F550E66E42
:101AB00075C4E9FF76C4EAFF752B000E7623E55264
:101AC000E750EF6EDF06010E01E2DB06E0D71FD024
:101AD000D9CFE9FFDACFEAFFEE50ED1018E069C484
:101AE000E9FF6AC4EAFF692B000E6A23EF50E66E35
:101AF00075C4E9FF76C4EAFF752B000E7623E55224
:101B0000E750EF6EDF06010E01E2DB06E1D7020EC1
:101B1000E15C02E2E16AE552E16EE552E7CFD9FF0E
:101B20001200D9CFE6FFE1CFD9FF020EE12653C460
:101B3000E9FF54C4EAFFEE52EFCFDFFFDFCF10F032
:101B400010500401715D000E725903E271C4DFFF91
:101B500009D0DF50106E116A1050715D716F115015
:101B60007259726F010EDB6ADF50F36E010EDBCF2C
:101B7000F4FFF350F45C16E2010EDB50EA6A480F02
:101B8000E96E040EEA22EF50E66E6EC4E9FF6FC400
:101B9000EAFF6E2B000E6F23E552E750EF6E010E49
:101BA000DB2AE2D7000ED8807155000E725528E26C
:101BB00055C4E9FF56C4EAFFEE52080EEF6E55C455
:101BC000E9FF56C4EAFF020EE926000EEA22480E9B
:101BD000EE6E040EED6E53C4E9FF54C4EAFFEF50FD
:101BE000400B07E155C4E9FF56C4EAFFC80EEF6E8B
:101BF00006D055C4E9FF56C4EAFF880EEF6E25D023
:101C000055C4E9FF56C4EAFFEE52080EEF6E55C404
:101C1000E9FF56C4EAFF020EE926000EEA22400E52
:101C2000EE6E040EED6E55C4E9FF56C4EAFF840E55
:101C3000EF6E7351741107E005D074C4FAFF04010C
:101C40007351F96EFADF0401709F020EE15C02E24B
:101C5000E16AE552E16EE552E7CFD9FF12000401D7
:101C60006B8F020EE66EE66AE66A270EE66E0F0ED0
:101C7000E66EE5EC07F0106E050EE15E1050010E09
:101C8000E66EE66AE66A520EE66E040EE66EE5EC75
:101C900007F0106E050EE15E105042C451F40401CD
:101CA000515103E1100E506F12D0200E506F010EF3
:101CB000E66EE66A510EE66E040EE66E010EE66E04
:101CC000E66AC2EC02F0106E060EE15E10501200E1
:101CD000D9CFE6FFE1CFD9FF020EE126000EDE6E7E
:101CE000040EDD6EFD0EDB50E824126EFE0EDB509E
:101CF000040DF3501224040DF350106E116A020EFD
:101D00000F0B05E0D89011321032E806FBE1D890B5
:101D100010361136D89010361136D9CFE9FFDACF08
:101D2000EAFF1050EE261150ED22DECFE9FFDDCFA5
:101D3000EAFFEF9EFD0EDB500FE1FE0EEA6ADB3498
:101D4000FE0BEA36E96E570EE926040EEA22DECFD4
:101D5000EEFFDDCFEDFF0ED0FE0EEA6ADB34FE0BA8
:101D6000EA36E96E5F0EE926040EEA22DECFEEFFC8
:101D7000DDCFEDFFDECFE9FFDDCFEAFFEF9CDECF69
:101D8000E9FFDDCFEAFF040EE926000EEA22EF8C20
:101D9000020EE15C02E2E16AE552E16EE552E7CF54
:101DA000D9FF1200D9CFE6FFE1CFD9FF020EE1261D
:101DB000FE0EDB50116A260F106E0F0E112210C09E
:101DC000DEFF11C0DDFFDECFE9FFDDCFEAFFFD0E54
:101DD000DBCFEFFFDBA407D0E66AFE0EDBCFE6FF2A
:101DE00077DFE552E552FD0EDBA208D0010EE66E6C
:101DF000FE0EDBCFE6FF6CDFE552E552020EE15C42
:101E000002E2E16AE552E16EE552E7CFD9FF120046
:101E1000D9CFE6FFE1CFD9FF020EE126FE0EDB505F
:101E200020E155C4E9FF56C4EAFFEE52080EEF6EFA
:101E300055C4E9FF56C4EAFF020EE926000EEA2265
:101E4000400EEE6E040EED6E55C4E9FF56C4EAFF77
:101E50008C0EEF6E5FC4E9FF60C4EAFF840EEF6E84
:101E60003DD0FD0EDB50E824126EFE0EDB50040D5B
:101E7000F3501224040DF3CF10F0F4CF11F0000E44
:101E80001026040E112210C0DEFF11C0DDFF840EEB
:101E9000106EDECFE9FFDDCFEAFF1050EF12FD0E2E
:101EA000DB50E824126EFE0EDB50040DF3501224BA
:101EB000010F040DF3CF10F0F4CF11F0000E102637
:101EC000040E112210C0DEFF11C0DDFF840E106E63
:101ED000DECFE9FFDDCFEAFF1050EF12020EE15C2A
:101EE00002E2E16AE552E16EE552E7CFD9FF120066
:101EF000D9CFE6FFE1CFD9FF020EE126FD0EDB5080
:101F00000FE0FE0EEA6ADB34FE0BEA36E96E5F0E86
:101F1000E926040EEA22EECFDEFFEDCFDDFF0ED084
:101F2000FE0EEA6ADB34FE0BEA36E96E570EE9264E
:101F3000040EEA22EECFDEFFEDCFDDFFDECFE9FFBC
:101F4000DDCFEAFF020EE926000EEA22FB0EDBCF10
:101F5000EEFFFC0EDBCFEDFFDECFE9FFDDCFEAFFCA
:101F6000EE52FA0EDBCFEFFF400E106EDECFE9FF30
:101F7000DDCFEAFF1050EF16880E106EDECFE9FFBE
:101F8000DDCFEAFF1050EF12FD0EDB500CE0FE0E2D
:101F9000EA6ADB34FE0BEA36E96E5F0EE926040ED0
:101FA000EA22EF740BD0FE0EEA6ADB34FE0BEA364F
:101FB000E96E570EE926040EEA22EF74DECF10F028
:101FC000DDCF11F010C0F3FF11C0F4FF020EE15C91
:101FD00003E200D0E16AE552E16EE552E7CFD9FFB6
:101FE0001200D9CFE6FFE1CFD9FF65A84ED0FE0E93
:101FF000EA6ADB34FE0BEA36E96E5F0EE926040E70
:10200000EA22EE50EFCFEAFFE96E400EEE16EE6ADE
:10201000EE6AEE6AFE0EEA6ADB34FE0BEA36E96E21
:102020005F0EE926040EEA22EE50EFCFEAFFE96EDA
:10203000EE7CFE0EEA6ADB34FE0BEA36E96E5F0EDA
:10204000E926040EEA22EF74400E106EFE0EEA6AD4
:10205000DB34FE0BEA36E96E5F0EE926040EEA2257
:10206000EE50EFCFEAFFE96E1050EF16FE0EEA6A6F
:10207000DB34FE0BEA36E96E5F0EE926040EEA2237
:10208000EE50EFCFEAFFE96EEF7CE552E7CFD9FFE4
:10209000120006D0656A0F01366B0401506B00D048
:1020A00012000401505114E1656A0F01366B160EDF
:1020B000396F9F0E376F7B0E366FD08EA288A08847
:1020C000F28E65B602D06586FCD70401010E506F12
:0220D0001200FC
:0E20D2001E0EF66E000EF76E000EF86E000188
:1020E0000900F550E76F0900F550E86F03E1E76775
:1020F00001D03DD00900F550E26F0900F550E36FC3
:102100000900F550E46F09000900F550E96E090077
:10211000F550EA6E090009000900F550E56F090065
:10212000F550E66F09000900F6CFE9F0F7CFEAF0C5
:10213000F8CFEBF0E2C0F6FFE3C0F7FFE4C0F8FF32
:102140000001E55302E1E65307E00900F550EE6EA9
:10215000E507F8E2E607F9D7E9C0F6FFEAC0F7FFBE
:10216000EBC0F8FF0001E707000EE85BBFD71200E5
:10217000C00EF36E00EE00F00E0E01D81200EA6001
:1021800002D0EE6AFCD7F350E9601200EE6AFCD789
:102190001DEE00F02DEE00F0F86A0F9C69EC10F0D7
:0C21A00003EC08F07AEC00F0FBD7120012
:0421AC00368404046D
:1021B0000CC17D6414775F1338080100A338380719
:0C21C00000007A7A6C31B0004000FC0096
:01FFF800AC5C
:01FFF900F710
:01FFFA001AEC
:01FFFB00FF06
:01FFFC0063A1
:01FFFD00F80B
:01FFFE008181
:01FFFF00F110
:00000001FF
