:020000001128C5
:100008007E1480312000921222000E103D00A001C3
:1000180064302000CE007E10090012287E102000D7
:10002800622A21001D08033914389D009D149D186B
:100038001B281D08033910389D0020004A35383E1A
:100048008600870121001B08C03F1C08C13F9D1482
:100058003E3086003C3084008501003F20003A078E
:10006800E000013F3B3DE100403F6007E200413FC7
:10007800613DE30038086207CF003908633DD000CE
:100088000F30D101D201D601D501D400FC30D30004
:100098005208F3005108F2005008F1004F08F00030
:1000A8000330F701F601F500FB30F4008E227308E7
:1000B800DA007208D9007108D8007008D700F22158
:1000C8005608D2005508D1005408D0005308CF0074
:1000D8005008C5004F08C40021009D1870281D084D
:1000E800033944389D0020004A35283E86008701A0
:1000F80021001B08C03F1C08C13F9D142E308600FC
:100108002C3084008501003F20002A07E000013FD1
:100118002B3DE100403F6007E200413F613DE300C5
:1001280028086207E4002908633DE500E536E40C89
:10013800E536E40C6408CF006508D000D101D2018F
:100148005208031DB1285108031DB128500840303A
:10015800031DB2284F02031CB8284030CF020030DC
:10016800D03BD13BD23BBC28CF01D001D101D20139
:100178000330D601D501D400FF30D3005208F30074
:100188005108F2005008F1004F08F0000330F70161
:10019800F601F5007A30F4008E227308DA0072084E
:1001A800D9007108D8007008D700F2215608D2008B
:1001B8005508D1005408D0005308CF005008C70094
:1001C8004F08C60021009D18E6281D080339483845
:1001D8009D0020004A35303E8600870121001B081B
:1001E800C03F1C08C13F9D1436308600343084005F
:1001F8008501003F20003207E000013F333DE10068
:10020800403F6007E200413F613DE300300862077C
:10021800CF003108633DD0000930D101D201F3018C
:10022800F201F1004F30F0005208F7005108F600D3
:100238005008F5004F08F4008E227308D2007208A7
:10024800D1007108D0007008CF000F30D601D50159
:10025800D400FC30D3005208DA005108D900500805
:10026800D8004F08D700F2215408C9005308C80025
:1002780021009D183C2920004A35203E8600870130
:1002880021001B08C03F1C08C13F1D080339143852
:100298009D0026308600243084008501003F200020
:1002A8002207E000013F233DE100403F6007E200F4
:1002B800413F613DE30020086207E4002108633DF7
:1002C800E500E536E40CE536E40C6408CF00650883
:1002D800D000D101D2015208031D7C295108031D09
:1002E8007C2950089B30031D7D294F02031C83295C
:1002F8009B30CF020030D03BD13BD23B8729CF0186
:10030800D001D101D2012730D601D501D400F63071
:10031800D3005208F3005108F2005008F1004F08CA
:10032800F0000C30F701F601F500E430F4008E22FD
:100338007308DA007208D9007108D8007008D7006D
:10034800F2215608D2005508D1005408D0005308AD
:10035800CF000430CA0A4A020318CA0108004C0830
:10036800031DB829CD01CD0A41084302031DBE294A
:10037800400842020318C7294D08031DC52901304A
:10038800C6290030CD000530490201300319480262
:100398000318CD014D080319DE29F0304C0203186B
:1003A800E62905304C020318DC290530CC00E62983
:1003B800CC0AE62906304C02031CE529FF30CC079D
:1003C800E629CC014308C1004208C00000304502BC
:1003D800643003194402031CCC010800DC01DD0170
:1003E800DE01DF0156085504540453040319282A72
:1003F800DB01DB0AD61B052AD335D40DD50DD60D66
:10040800FD29DC35DD0DDE0DDF0D56085A02031D12
:10041800172A55085902031D172A54085802031DA4
:10042800172A53085702031C222A5308D7025408D4
:10043800D83B5508D93B5608DA3B5C14D636D50C60
:10044800D40CD30CDB0B052A5F08D6005E08D50058
:100458005D08D4005C08D300080020004808CF00DD
:100468004908D000D101D2014608F0004708F10040
:10047800F201F3015208F7005108F6005008F500A0
:100488004F08F4008E227308D2007208D100710858
:10049800D0007008CF006430D300D401D501D60154
:1004A8005208DA005108D9005008D8004F08D70080
:1004B800F2215408C3005308C20008008B1301300E
:1004C800CB222000CD01CD0ACC018B170F233F236F
:1004D800003A03196A2A22000C1515200F2331222D
:1004E8000F2320004E08031D842ACB0A4B08073926
:1004F800031D7F2AB3214C08F12222000C116A2A1D
:10050800CE034E08031D6A2A0030CB222000CD01FD
:10051800CD0A6A2AF801F901FA01FB01701C9C2A2C
:100528007408F8077508F93D7608FA3D7708FB3D29
:10053800F435F50DF60DF70DF336F20CF10CF00C61
:100548007308720471047004031D922A7B08F30077
:100558007A08F2007908F1007808F00008001830ED
:100568003D00A4001930A50022008C018E013E3008
:1005780021008E003B308C00303023008C0024009A
:100588008C010E3023008E0024008E010800FC0030
:100598007C080319D42ACE01B322DE224423362351
:1005A80000231D237C080319080015201520152099
:1005B80015202B2B01308B00210090019101920115
:1005C800930194013200981307309F009B0121008A
:1005D80010126030320099000800F100F000F00CB1
:1005E800F00C700CC0392C0097007108F000F03640
:1005F800F0367008980008002C0098019701043024
:1006080020009F004F309E0080302C00990002305F
:100618003D00A000080020008E19152B2200111F94
:10062800080022000E103D00A00164302000CE001A
:10063800080021009212163022009100B330920077
:1006480091170B17200092122100921608009701AB
:100658004A3098009C309600210090122000901299
:1006680097170800F03021009E0015309D009F016B
:100678002000CA0108002000901E003490120134A6
:0A06880008302200970097170800C1
:1009000000000000000000000000000000000000E7
:1009100000000000000000000000000000000000D7
:1009200000000000000000000000000000000000C7
:1009300000000000000000000000000000000000B7
:020000040001F9
:08000E00CCDFF2F7FFFFFFFF5A
:00000001FF
