:080700008331822B8731202F89
:100E40002000222F8B13562787312A2787316927C5
:100E50008331822BF401F5010330750280300319D0
:100E60007402031808007508F1007408F0003E27AA
:100E700087312030F4070318F50A2C2FE030700575
:100E8000F2007108F30072082300910073089200C9
:100E9000151395171516151555309600AA3096009E
:100EA0009514000000002300151108000930F0001F
:100EB0003D30F1000130F0020030F13B700F5A2F4D
:100EC000710A031D5A2F21001908873960389900CB
:100ED00008001030F601F701F801F900133079022B
:100EE0008030031978020318992FFA017908F1006C
:100EF0007808F0009E2787317A35203E86008701EA
:100F00007008C03F7108C13FF80A0319F90A103090
:100F1000FA0A7A02031C762F7708F1007608F000AF
:100F20002030F200B32787311030F6070318F70A94
:100F30006E2FFF30F001E227010008007108230046
:100F40009200700891001513951715140000000009
:100F500023001408F300F2011308F2047308F100EF
:100F60007208F0000800F0307005F3007108F4001A
:100F700073089100740892009517151315159516AE
:100F8000F501FB278731F42787315530F20A9600A7
:100F9000AA3096009514000000002300910A0F303B
:100FA000F50A7502FB278731031CC32FF42795121E
:100FB00055309600AA3096009514000000002300DA
:100FC00015110800F10023009100920170089300B0
:100FD00095131513151555309600AA3096009514E3
:100FE0009518F02F151108009300F20A7208860078
:100FF00001089400080072088600870101080800B3
:020000040001F9
:04000E00E4EFFFFA22
:00000001FF
