:020000040000FA
:10000000A7EF10F01200FFFF04EF08F0120000004D
:10001000000000983AFFFFFF0CEF08F0120001000B
:100020000E000000F804000007000000DACFE4FF33
:10003000E2CFDAFFE9CFE4FFEACFE4FFF6CFE4FF57
:10004000F7CFE4FFF5CFE4FFF3CFE4FFF4CFE4FF15
:10005000FACFE4FF00EE00F0100EE80403E3EECF69
:10006000E4FFFBD700EE10F0080EE80403E3EECF48
:10007000E4FFFBD7E6525FEC08F0E55200EE17F024
:10008000080EE80403E3E5CFEDFFFBD700EE0FF029
:10009000100EE80403E3E5CFEDFFFBD7E5CFFAFF51
:1000A000E5CFF4FFE5CFF3FFE5CFF5FFE5CFF7FFB1
:1000B000E5CFF6FFE5CFEAFFE5CFE9FFE5CFDAFFD1
:1000C0001100D8CFE4FFE0CFE4FFE46EDACFE4FF25
:1000D000E2CFDAFFE652E552E5CFDAFFE550E5CFB1
:1000E000E0FFE5CFD8FF100005D851EC10F0E4D8C0
:1000F000FED71200D9CFE6FFE1CFD9FF020EE126ED
:100100000F0EC112580EDE6E020EDD6E9B8CDFCF1D
:1001100010F0DF06010EDBCF11F001E2DB0610501C
:10012000111001E0F4D70F01486949690CD80FECB0
:1001300008F0020EE15C02E2E16AE552E16EE5528E
:10014000E7CFD9FF1200D9CFE6FFE1CFD9FFE652C2
:1001500022D8DF6ADF50106E116A400E105C000E6C
:10016000115809E2DF50EA6A600FE96E000EEA22D8
:10017000EF6ADF2AEFD70001E06BE16BE36BE46B22
:10018000D8EC04F09380F19E0FEC05F0E552E552B7
:10019000E7CFD9FF1200D9CFE6FFE1CFD9FFE65272
:1001A000948E949C240EAD6E900EAC6E710EB06E5B
:1001B000020E7F6E080E7E6EAF50DF6EE552E55286
:1001C000E7CFD9FF1200D9CFE6FFE1CFD9FFFE0E6E
:1001D000DB50AE6EE552E7CFD9FF1200D9CFE6FF74
:1001E000E1CFD9FF040EE126D880000E040150555E
:1001F000C20E5155010E5255000E535501E23DD02D
:1002000050C4D8F451C4D9F452C4DAF453C4DBF462
:10021000146A1B0E156EB70E166E176A14C004F022
:1002200015C005F016C006F017C007F0D8C409F0D5
:10023000D9C40AF0DAC40BF0DBC40CF069EC10F09E
:1002400004C010F005C011F006C012F007C013F092
:100250001006000E115A125A135A10C0DFFF010E79
:1002600011C0DBFF020E12C0DBFF030E13C0DBFF69
:10027000DF50B06E010EDB507F6E040EE15C02E2D7
:10028000E16AE552E16EE552E7CFD9FF1200D9CF1E
:10029000E6FFE1CFD9FFE652ACA205D0AC98AF5053
:1002A000DF6EAC8802D0AF50DF6EDF5000D0E55279
:1002B000E552E7CFD9FF12006CD8200E0E01E76E91
:1002C0000019E8AE02D0E73402D0E750005D03E346
:1002D0006550020B01E05CD00401F85115E1400EBD
:1002E000E66EA00EE66E000EE66E29EC03F0E55217
:1002F000E552E5520001E16FE151000805E2040119
:10030000010EF86F0001E26B0401F85115E0AD50E9
:10031000020B12E00001E251EA6AA00FE96E000E42
:10032000EA22EF50E66E4FDFE5520001E22BE15189
:10033000E25D02E10401F86B9EAA14D0A8DFE66E2C
:100340000001E051EA6A600FE96E000EEA22E55210
:10035000E750EF6EE02BE051EA6A600FE96E000EA5
:10036000EA22EF6A0401E05111E10001E0510008C6
:100370000DE2E0C0E6FF600EE66E000EE66E8AEC6F
:1003800003F0E552E552E5520001E06B2EEC04F07B
:100390001200D9CFE6FFE1CFD9FFE6520401FDC438
:1003A00010F0FEC411F0FD07000EFE5B105011109E
:1003B00001E062D0980EFD6F3A0EFE6FF93504E34E
:1003C000010EF96FFA6F2BD0F9C410F0116A10BE4C
:1003D00011687A0EF66E210EF76E0900F5CF12F055
:1003E0000800F5CF13F011501318E8AE02D0133403
:1003F00004D01250105C1350115811E37A0EF66EAF
:10040000210EF76E0900F5CF10F00800F5CF11F0BE
:10041000020E105E000E115A10C0F9F4FA6B38EC9F
:1004200005F00401FC510EE0DF6A0401F951D880A7
:10043000DF5407E3DFCFE6FF61EC05F0E552DF2A8A
:10044000F4D705D0F9C4E6FF61EC05F0E55281B0C0
:100450000CD00401FB5108E1FC5102E0000E01D078
:10046000010EFC6F010EFB6F02D00401FB6BFA5111
:1004700002E0F92B01D0F907E552E552E7CFD9FFA9
:1004800012001200120012001200A3EF02F012007C
:10049000F6EF02F065840001080EE56F070EE66FC7
:1004A000E507000EE65BE551E611FAE165941200FE
:1004B000D9CFE6FFE1CFD9FFFD0EDBCF06F0FE0E70
:1004C000DBCF07F0720E061801E1075033E0E86851
:1004D000061802E1E86807182BE0740E061801E11F
:1004E000075024E0750E061801E107501DE0730E59
:1004F000061801E1075016E0030E061801E1075047
:100500000FE0020E061801E1075008E0010E061880
:1005100001E1075001E010D0BBDF0FD0B8DF0DD0F4
:10052000B4DF0BD0B0DF09D0ACDF07D0ABDF05D034
:10053000ABDF03D0000001D000D0010E00D0E552A7
:10054000E7CFD9FF1200040140511F0B010801E061
:100550004CD04051600BE842E842E842E842E842B1
:10056000010801E042D0445103E0440501E03DD0E0
:100570004151220A35E0030A28E0010A17E0210A66
:100580000EE0010A01E031D00E01F00E196F040EE9
:100590001A6F080E1C6F1D6B1B811B8F26D00E015E
:1005A000F00E196F040E1A6F1B8F1FD046C421FE68
:1005B00047C422FE0E01500E1E6F040E1F6FDC0E8C
:1005C000236F010E246F208F10D00E01D80E196FEB
:1005D000040E1A6F070E1C6F1D6BC10E1B6F05D02A
:1005E00042C4EBF40E011B8F00D012000401D86B43
:1005F0004B0ED96FDA6BDB6BDC6BDD6B080EDE6FDD
:10060000E06BDF6B1A0EE66E020EE66ED2EC0EF0B9
:10061000E552E5521E0EE66E030EE66ED2EC0EF0CB
:10062000E552E552400EE66E580EE66E040EE66E9A
:10063000E66A030EE66E78EC0FF0106E050EE15ED2
:100640001050F3CFE7F4F4CFE8F40401E96BEA6B60
:100650001200D9CFE6FFE1CFD9FF0401DF6BE751EC
:10066000E81102E1000E08D0E7C4E9FFE8C4EAFFA0
:10067000EF50800B01E0010E000945E1FC0EDBCFDD
:1006800010F0E7C4E9FFE8C4EAFFEE52EF50D8806B
:10069000105408E2E7C4E9FFE8C4EAFFEE52FC0E9A
:1006A000EFCFDBFFDF6BFC0EDB50DF5D19E2DF51CC
:1006B000EA6A580FE96E040EEA22EF50E66EDF5147
:1006C000E76EFD0EDBCFE9FFFE0EDBCFEAFFE75062
:1006D000E926000EEA22E552E750EF6EDF2BE3D762
:1006E000400EE66E580EE66E040EE66EE66A030EE7
:1006F000E66E78EC0FF0106E050EE15E1050F3CF51
:10070000E7F4F4CFE8F40401DF5100D0E552E7CF7D
:10071000D9FF1200D9CFE6FFE1CFD9FFA09804019D
:10072000E0510CE1FD0EDBCFE1F4FE0EDBCFE2F495
:10073000FC0EDBCFE5F4010EE66FE06FA088E5521A
:10074000E7CFD9FF1200D9CFE6FFE1CFD9FF030EE3
:10075000E126A0980401E05102E0A0882FD0DF6AD2
:10076000FD0EDBCF06F0FE0EDBCF07F0DE5206C03B
:10077000DEFF07C0DDFFDD52DF2ADF50106E116A99
:10078000FF0E101801E1115001E10BD0010EDBCF7B
:10079000E9FFDB2A020EDBCFEAFF01E3DB2AEF50A1
:1007A000EBE1FD0EDBCFE1F4FE0EDBCFE2F4DFCFB9
:1007B000E5F40401010EE66FE06FA088030EE15C32
:1007C00002E2E16AE552E16EE552E7CFD9FF12009D
:1007D000D9CFE6FFE1CFD9FF030EE126A0980401AF
:1007E000E05102E0A08830D0DF6AFD0EDBCF06F0DA
:1007F000FE0EDBCF07F0DE5206C0DEFF07C0DDFFD6
:10080000DD52DF2ADF50106E116AFF0E101801E171
:10081000115001E10CD0010EDBCFF6FFDB2A020EF6
:10082000DBCFF7FF01E3DB2A0800F550EAE1FD0E1C
:10083000DBCFE1F4FE0EDBCFE2F4DFCFE5F4040121
:10084000E66B010EE06FA088030EE15C02E2E16A54
:10085000E552E16EE552E7CFD9FF1200D9CFE6FFAE
:10086000E1CFD9FF020EE126A0980401E951EA1177
:1008700002E1000E08D0E9C4E9FFEAC4EAFFEF5044
:10088000800B01E0010E000902E0A08887D0030E72
:10089000E05D01E1E06BE05102E1A0887FD0020E53
:1008A000E05D16E1E66A000EE66EE66A010EE66EAF
:1008B000030EE66E78EC0FF0106E050EE15E105040
:1008C000F3CFE9F4F4CFEAF40401030EE06F65D04E
:1008D000E00563E1400E106E116AE551105C000EF8
:1008E000115803E2400EDF6E02D0E5C4DFFFDF5097
:1008F000E55DE56F980EE36F040EE46F010EDFCF48
:10090000DBFFE65117E1010EDB5013E0E1C4F6FF17
:10091000E2C4F7FF0800F550E3C4E9FFE4C4EAFFCE
:10092000EF6EE32B000EE423E12BE223010EDB0646
:10093000EAD715D0010EDB5012E0E1C4E9FFE2C4B2
:10094000EAFFEF50E3C4E9FFE4C4EAFFEF6EE32BF4
:10095000000EE423E12BE223010EDB06EBD7E55189
:1009600008E1400EDF5C03E1020EE06F02D0030EEF
:10097000E06FDFCFE6FF980EE66E040EE66E010E26
:10098000E66E030EE66E78EC0FF0106E050EE15E7B
:100990001050F3CFE9F4F4CFEAF4A088020EE15C42
:1009A00002E2E16AE552E16EE552E7CFD9FF1200BB
:1009B000D9CFE6FFE1CFD9FFE652DF6ADF50106EF4
:1009C000116A7A0EF66E210EF76E0900F5CF12F05D
:1009D0000800F5CF13F011501318E8AE02D013340D
:1009E00004D01250105C1350115813E2116ADF3416
:1009F000FE0B1136106E6A0E1026210E112210C049
:100A0000E6FF11C0E6FF3DEC06F0E552E552DF2AB5
:100A1000D5D72ED8E552E552E7CFD9FF1200D9CF6E
:100A2000E6FFE1CFD9FFE652DF6ADF50106E116AB0
:100A30007A0EF66E210EF76E0900F5CF12F008005F
:100A4000F5CF13F011501318E8AE02D0133404D0D0
:100A50001250105C1350115806E2DFCFE6FF31D878
:100A6000E552DF2AE2D7E552E552E7CFD9FF12007F
:100A7000D9CFE6FFE1CFD9FFE652DF6ADF50106E33
:100A8000116A7A0EF66E210EF76E0900F5CF12F09C
:100A90000800F5CF13F011501318E8AE02D013344C
:100AA00004D01250105C1350115806E2DFCFE6FF5D
:100AB0003BD8E552DF2AE2D7E552E552E7CFD9FF2E
:100AC0001200D9CFE6FFE1CFD9FFFE0EDB50106E4A
:100AD000116A7A0EF66E210EF76E0900F5CF12F04C
:100AE0000800F5CF13F011501318E8AE02D01334FC
:100AF00004D01250105C1350115812E2FE0E116A0D
:100B0000DB34FE0B1136106E6A0E1026210E1122F8
:100B100010C0E6FF11C0E6FFAAEC06F0E552E55270
:100B2000E552E7CFD9FF1200D9CFE6FFE1CFD9FFD9
:100B3000FE0EDB50106E116A7A0EF66E210EF76E05
:100B40000900F5CF12F00800F5CF13F0115013187B
:100B5000E8AE02D0133404D01250105C1350115878
:100B600012E2FE0E116ADB34FE0B1136106E6A0EB5
:100B70001026210E112210C0E6FF11C0E6FF74EC12
:100B800006F0E552E552E552E7CFD9FF1200D9CF82
:100B9000E6FFE1CFD9FFFE0EDB50106E116A7A0E30
:100BA000F66E210EF76E0900F5CF12F00800F5CFB2
:100BB00013F011501318E8AE02D0133404D01250C1
:100BC000105C135011581FE2FE0E116ADB34FE0B4D
:100BD0001136106E6A0E1026210E112210C0E6FF8B
:100BE00011C0E6FFE1EC06F0E552E552000906E02F
:100BF000FE0EDBCFE6FF65DFE55205D0FE0EDBCF54
:100C0000E6FF92DFE552E552E7CFD9FF1200D9CFD8
:100C1000E6FFE1CFD9FFE652FD0EDBCFF6FFFE0E79
:100C2000DBCFF7FFF62A000EF7220800F550106E12
:100C3000010E105204E0E846FE0B1006FCE1DF6EE8
:100C4000FD0EDBCFF6FFFE0EDBCFF7FF0800F55001
:100C5000020A0BE0030A06E0010A01E009D0DF50B6
:100C6000921206D0DF50931203D0DF50941200D0BE
:100C7000E552E552E7CFD9FF1200D9CFE6FFE1CF29
:100C8000D9FFE652FD0EDBCFF6FFFE0EDBCFF7FFFE
:100C9000F62A000EF7220800F550106E010E1052D1
:100CA00004E0E846FE0B1006FCE1E81CDF6EFD0EDA
:100CB000DBCFF6FFFE0EDBCFF7FF0800F550020A90
:100CC0000BE0030A06E0010A01E009D0DF509216AA
:100CD00006D0DF50931603D0DF50941600D0E552B3
:100CE000E552E7CFD9FF1200D9CFE6FFE1CFD9FF18
:100CF000E652FD0EDBCFF6FFFE0EDBCFF7FFF62A46
:100D0000000EF7220800F550106E010E105204E09C
:100D1000E846FE0B1006FCE1DF6EFD0EDBCFF6FFB2
:100D2000FE0EDBCFF7FF0800F550020A0BE0030AC6
:100D300006E0010A01E009D0DF50891206D0DF5039
:100D40008A1203D0DF508B1200D0E552E552E7CF74
:100D5000D9FF1200D9CFE6FFE1CFD9FFE652FD0E51
:100D6000DBCFF6FFFE0EDBCFF7FFF62A000EF722F1
:100D70000800F550106E010E105204E0E846FE0B1C
:100D80001006FCE1E81CDF6EFD0EDBCFF6FFFE0E69
:100D9000DBCFF7FF0800F550020A0BE0030A06E07C
:100DA000010A01E009D0DF50891606D0DF508A160B
:100DB00003D0DF508B1600D0E552E552E7CFD9FFC4
:100DC0001200D9CFE6FFE1CFD9FF020EE126FD0EDA
:100DD000DBCFF6FFFE0EDBCFF7FFF62A000EF72281
:100DE0000800F550106E010E105204E0E846FE0BAC
:100DF0001006FCE1DF6E010EDB6AFD0EDBCFF6FFB5
:100E0000FE0EDBCFF7FF0800F550020A13E0030ADD
:100E10000AE0010A01E015D0DF508014E76E010EF0
:100E2000E7CFDBFF0ED0DF508114E76E010EE7CF76
:100E3000DBFF07D0DF508214E76E010EE7CFDBFF48
:100E400000D0010EDB5002E0010E01D0000E106E4A
:100E5000020EE15C03E200D0E16AE552E16E10505F
:100E6000E552E7CFD9FF120012010002020000088C
:100E7000D8040A0000010102000109024300020136
:100E800000C0320904000001020201000524001024
:100E900001042402020524060001052401000107C3
:100EA00005820308000209040100020A000000078D
:100EB0000503024000000705830240000004030907
:100EC0000434034D006900630072006F0063006822
:100ED0000069007000200054006500630068006E27
:100EE000006F006C006F0067007900200049006E01
:100EF0000063002E003403430044004300200052EE
:100F00000053002D00320033003200200045006DF8
:100F10000075006C006100740069006F006E0020B5
:100F200000440065006D006F007A0EBD0EC10EF525
:100F30000EFF1E0EF66E000EF76E000EF86E00012C
:100F40000900F550EC6F0900F550ED6F03E1EC6717
:100F500001D03DD00900F550E76F0900F550E86F6A
:100F60000900F550E96F09000900F550E96E090024
:100F7000F550EA6E090009000900F550EA6F090012
:100F8000F550EB6F09000900F6CFEEF0F7CFEFF068
:100F9000F8CFF0F0E7C0F6FFE8C0F7FFE9C0F8FFD0
:100FA0000001EA5302E1EB5307E00900F550EE6E51
:100FB000EA07F8E2EB07F9D7EEC0F6FFEFC0F7FF5C
:100FC000F0C0F8FF0001EC07000EED5BBFD7120088
:100FD000C00EF36E00EE00F00E0E01D81200EA60B3
:100FE00002D0EE6AFCD7F350E9601200EE6AFCD73B
:100FF000FFFFFFFFFFFFFFFFFFFFFFFFFFFFFFFF01
:10100000A7EF10F01200120016EF00F01200FFFF21
:10101000FFFFFFFFFFFFFFFF61EF00F01200D9CFDE
:10102000E6FFE1CFD9FFE652636A626A0F01160E4E
:10103000396F9F0E376F7B0E366F658C386B020EE3
:10104000E66EE66AE66A270EE66E0F0EE66E8DEC39
:1010500010F0106E050EE15E1050659CDF6ADF50E7
:10106000106E116A100E105C000E115810E2DF5065
:10107000040DF3CFE9FFF4CFEAFF000EE926040EDA
:10108000EA22EE6AEE6AEE6AEE6ADF2AE8D70F011C
:10109000160E266F62A602D06296FCD70E011B6B5D
:1010A000206B216B226B6598080E0F6F040E106F7A
:1010B000016B006BE552E552E7CFD9FF1200D9CFA3
:1010C000E6FFE1CFD9FFE6520E01000509E165BA5E
:1010D00007D0626A0F01368136890E01020E006F59
:1010E0006250040B06E00F013651040B02E06294DB
:1010F000BDD865A202D0A19887D06250010B13E041
:101100000F013651010B0FE08ADF0E01040E006F54
:101110000401400E026F040E036F080E016F006B96
:101120008C0E001362906250100B06E00F013651D6
:10113000100B02E088D862986250400B14E00F0157
:101140003651400B10E0010EE66EE66A000EE66EC8
:10115000E66A730EE66EE66A58EC02F0106E060E52
:10116000E15E1050629C6250200B05E00F01365189
:10117000200B01E04ED86250020B13E00F013651F4
:10118000020B0FE0010EE66EE66A000EE66EE66AFE
:10119000E668E66858EC02F0106E060EE15E10504C
:1011A000636A040E0E01E76E0019E8AE02D0E73460
:1011B00002D0E750005D02E2A19826D00F0136A7C9
:1011C00022D0DF6A040EDF5C1EE262A61BD064CF71
:1011D00028FE6296780E0E01281502E15DD810D027
:1011E000000EE66EE66A280EE66E0E0EE66E720ED3
:1011F000E66EE66A58EC02F0106E060EE15E1050E4
:10120000DF2AE0D700D0A198E552E552E7CFD9FF19
:1012100012000F0126A115D003CEE9FF04CEEAFF8C
:10122000EF5080080DE10FCEE9FF10CEEAFFEF503E
:10123000840806E103CEE9FF04CEEAFF8C0EEF6ED0
:101240002691629A12000F01368562986582000E1F
:10125000E66EE66AE66EE66A750EE66EE66A58ECDB
:1012600002F0106E060EE15E10501200000EE66EE7
:10127000E66AE66EE66A740EE66EE66A58EC02F01E
:10128000106E060EE15E105065920F01369562A455
:1012900002D06294FCD71200D9CFE6FFE1CFD9FF8C
:1012A000E652FD0E0E0128155AE17E0E2815E84083
:1012B0007F0B040DF3CF03FEF4CF04FE000E0327D3
:1012C000040E042303CE05FE04CE06FE057503CEF0
:1012D000E9FF04CEEAFFEF503C0BE842E8420D087C
:1012E0003CE103CEE9FF04CEEAFF020EE926000E40
:1012F000EA22EECF10F0EFCF11F0480E101802E105
:10130000040E111828E103CEE9FF04CEEAFF020E15
:10131000E926000EEA22400EEE6E040EED6EDF6A44
:10132000DF50106E116A080E105C000E115813E2A7
:10133000DF50EA6A480FE96E040EEA22EF50E66ECB
:10134000DF50EA6A400FE96E040EEA22E552E750E8
:10135000EF6EDF2AE5D70DD801D02ED805D0FD0ECF
:101360002815040801E14ED8E552E552E7CFD9FF30
:1013700012000FCEE9FF10CEEAFFEF50800B05E020
:101380000FCEE9FF10CEEAFFEF6A0E01176B186B64
:101390001C6B1D6B1B6BB9D8000EE66EE66AE66E21
:1013A000E66A030EE66EE66A58EC02F0106E060E70
:1013B000E15E105031EF0CF0020E0E01185D02E1FB
:1013C000B0DB1FD06FD80E0129511AE105CEE9FF1D
:1013D00006CEEAFFEE52080EEF6E05CEE9FF06CE0E
:1013E000EAFF020EE926000EEA22400EEE6E040E1F
:1013F000ED6E05CEE9FF06CEEAFF8C0EEF6E01D052
:10140000296B1200D9CFE6FFE1CFD9FFE6520FCE0C
:10141000E9FF10CEEAFFEF50400B01E0010EDF6E56
:101420000E010F75080E005D0DE142C438FF0F017B
:101430003851000804E20E01100E006F03D00E01B7
:10144000040E006F180528E10FCEE9FF10CEEAFF69
:10145000020EE926000EEA22480EEE6E040EED6E34
:10146000D5DA020E0E01175D07E10FCEE9FF10CEAF
:10147000EAFF840EEF6E0FD0DF5007E10FCEE9FFD9
:1014800010CEEAFFC80EEF6E06D00FCEE9FF10CEE9
:10149000EAFF880EEF6E01D005D8E552E552E7CF9E
:1014A000D9FF1200D9CFE6FFE1CFD9FF020EE12626
:1014B0000E01186B0FCEE9FF10CEEAFFEF6A040EA3
:1014C0000F19106E10CE11F010C0DEFF11C0DDFF3D
:1014D000DECFE9FFDDCFEAFFEF6A20AF0CD023516A
:1014E000241107E005D024CEFAFF0E012351F96E36
:1014F000FADF0E01209F020EE15C02E2E16AE55292
:10150000E16EE552E7CFD9FF120004014051600BB4
:10151000E842E842E842E842E842000901E058D0E7
:1015200041510C0A54E00B0A43E00C0A35E0010A71
:1015300026E00B0A22E0020A20E0030A1CE0080A67
:1015400010E0010A0CE00F0A08E0030A01E03FD0B6
:101550000E011B8F080E006F3BD0C8D839D07FDB3F
:1015600037D00E01010E196F0E0E1A6F1B81010E7E
:101570001C6F1B8F2DD014D92BD02BD829D04451C0
:101580000E01196F1A6B020E19270E0E1A231B81FA
:10159000010E1C6F1B8F1CD00E011B8F04014451C8
:1015A000EA6A020FE96E0E0EEA2242C4EFFF10D083
:1015B000000EE66EE66AE66EE66A020EE66EE66A21
:1015C00058EC02F0106E060EE15E105001D000D013
:1015D0001200D9CFE6FFE1CFD9FF040EE1260401C6
:1015E000420510E140511F0B00090CE10E011B8F59
:1015F000030E0401415D04E10E01010E276F02D0CC
:101600000E01276B0401425167E140511F0B020894
:1016100063E144510F0B00095FE00E011B8F0401D1
:1016200044BF10D044510F0BE96EEA6AD890E936F6
:10163000EA36070EE9260E0EEA22EECFDEFFEDCFE8
:10164000DDFF0FD044510F0BE96EEA6AD890E936FE
:10165000EA360F0EE9260E0EEA22EECFDEFFEDCFC0
:10166000DDFF030E415D07E1DECFE9FFDDCFEAFFDD
:10167000840EEF6E31D044510F0B116A260F106E9D
:101680000F0E1122020E10C0DBFF030E11C0DBFF94
:10169000020EDBCFE9FF030EDBCFEAFFEE90ED5247
:1016A00044AF0DD0DECFE9FFDDCFEAFFEF6ADF7494
:1016B000DECFE9FFDDCFEAFF400EEF6E0DD0DECFCB
:1016C000E9FFDDCFEAFF880EEF6EDF74DECFE9FFC2
:1016D000DDCFEAFFC80EEF6E040EE15C02E2E16AC4
:1016E000E552E16EE552E7CFD9FF1200800E04010A
:1016F000405D55E10E01C00E1B6F04014351030A0A
:101700002EE0010A0EE0030A03E00E011B6B47D036
:101710000E01680E196F0E0E1A6F120E1C6F1D6BE4
:101720003ED04251F66EF76AD890F636F736290E5B
:10173000F6260F0EF7220900F5CF19FE0A00F5CFA5
:101740001AFE020E0E01F76A1925F66E1A51F722DB
:101750000900F5CF1CFE0A00F5CF1DFE20D0030EB8
:10176000425D1AE24251F66EF76AD890F636F736C5
:101770002B0EF6260F0EF7220900F5CF19FE0A00F0
:10178000F5CF1AFE19CEF6FF1ACEF7FF0800F55076
:101790000E011C6F1D6B02D00E011B6B00D01200DE
:1017A000D9CFE6FFE1CFD9FF020EE1260401486B55
:1017B000496B40511F0B020A12E0030A0DE0010AB7
:1017C00001E03BD00E011B8F040148810E0127056B
:1017D00002E10401488331D00E011B8F2ED00E018F
:1017E0001B8F040144BF10D044510F0BE96EEA6A0D
:1017F000D890E936EA36070EE9260E0EEA22EECF39
:10180000DEFFEDCFDDFF0FD044510F0BE96EEA6A2A
:10181000D890E936EA360F0EE9260E0EEA22EECF10
:10182000DEFFEDCFDDFFDECFE9FFDDCFEAFFEF50DA
:10183000040B02E0010E486F00D00E011BAF07D071
:10184000480E196F040E1A6F1B81020E1C6F020ED8
:10185000E15C02E2E16AE552E16EE552E7CFD9FFD1
:10186000120065980E011BBF4AD020AF28D0020E8F
:10187000186F0FCEE9FF10CEEAFFEE52EF6A0FCEDF
:10188000E9FF10CEEAFFC80EEF6E05CEE9FF06CEE7
:10189000EAFFEE52080EEF6E05CEE9FF06CEEAFF34
:1018A000020EE926000EEA22480EEE6E040EED6EE0
:1018B00005CEE9FF06CEEAFFC80EEF6E1FD005CEBB
:1018C000E9FF06CEEAFFEE52080EEF6E05CEE9FF05
:1018D00006CEEAFF020EE926000EEA22400EEE6E68
:1018E000040EED6E05CEE9FF06CEEAFF8C0EEF6E1C
:1018F0000FCEE9FF10CEEAFF840EEF6E86D020BF38
:1019000084D0040140AF59D00E011C510401465D42
:101910000E011D510401475904E246C41CFE47C490
:101920001DFE74D80E01010E186F05CEE9FF06CE1C
:10193000EAFFEE52080EEF6E05CEE9FF06CEEAFF93
:10194000020EE926000EEA22400EEE6E040EED6E47
:1019500005CEE9FF06CEEAFF800EEF6E296B03CEBF
:10196000E9FF04CEEAFFEE52080EEF6E03CEE9FF68
:1019700004CEEAFF020EE926000EEA22400EEE6EC9
:10198000040EED6E03CEE9FF04CEEAFF840EEF6E87
:10199000010E296F0FCEE9FF10CEEAFF020EE926F5
:1019A000000EEA22480EEE6E040EED6E0FCEE9FF39
:1019B00010CEEAFFC80EEF6E28D00E01020E186F8F
:1019C0000FCEE9FF10CEEAFFEE52EF6A0FCEE9FF2D
:1019D00010CEEAFFC80EEF6E05CEE9FF06CEEAFF95
:1019E000EE52080EEF6E05CEE9FF06CEEAFF020EBC
:1019F000E926000EEA22480EEE6E040EED6E05CECC
:101A0000E9FF06CEEAFFC80EEF6E1200D9CFE6FF5F
:101A1000E1CFD9FF020EE1260E01080E1C5D000E7B
:101A20001D590EE21CCEDEFF1DCEDDFF175103E176
:101A3000010E176F04D0170502E1020E176F03D0D5
:101A4000080EDE6EDD6A0FCEE9FF10CEEAFFEF92E0
:101A50000FCEE9FF10CEEAFFEF900FCEE9FF10CED8
:101A6000EAFF010EDB50EF120FCEE9FF10CEEAFFC6
:101A7000EE52DFCFEFFF000EDB501C5F010EDB509C
:101A80001D5B480E256F040E266F1BB121D0D9CFE8
:101A9000E9FFDACFEAFFEE50ED1019E019CEF6FFBC
:101AA0001ACEF7FF192B000E1A230800F550E66E28
:101AB00025CEE9FF26CEEAFF252B000E2623E55290
:101AC000E750EF6EDF06010E01E2DB06E0D71FD024
:101AD000D9CFE9FFDACFEAFFEE50ED1018E019CECA
:101AE000E9FF1ACEEAFF192B000E1A23EF50E66E1B
:101AF00025CEE9FF26CEEAFF252B000E2623E55250
:101B0000E750EF6EDF06010E01E2DB06E1D7020EC1
:101B1000E15C02E2E16AE552E16EE552E7CFD9FF0E
:101B20001200D9CFE6FFE1CFD9FF020EE12603CEA6
:101B3000E9FF04CEEAFFEE52EFCFDFFFDFCF10F078
:101B400010500E01215D000E225903E221CEDFFF6D
:101B500009D0DF50106E116A1050215D216F1150B5
:101B60002259226F010EDB6ADF50F36E010EDBCFCC
:101B7000F4FFF350F45C16E2010EDB50EA6A480F02
:101B8000E96E040EEA22EF50E66E1ECEE9FF1FCE8C
:101B9000EAFF1E2B000E1F23E552E750EF6E010EE9
:101BA000DB2AE2D7000ED8802155000E225528E20C
:101BB00005CEE9FF06CEEAFFEE52080EEF6E05CE27
:101BC000E9FF06CEEAFF020EE926000EEA22480EE1
:101BD000EE6E040EED6E03CEE9FF04CEEAFFEF5089
:101BE000400B07E105CEE9FF06CEEAFFC80EEF6E17
:101BF00006D005CEE9FF06CEEAFF880EEF6E25D0AF
:101C000005CEE9FF06CEEAFFEE52080EEF6E05CED6
:101C1000E9FF06CEEAFF020EE926000EEA22400E98
:101C2000EE6E040EED6E05CEE9FF06CEEAFF840EE1
:101C3000EF6E2351241107E005D024CEFAFF0E01E8
:101C40002351F96EFADF0E01209F020EE15C02E2E1
:101C5000E16AE552E16EE552E7CFD9FF12000E01CD
:101C60001B8F020EE66EE66AE66A270EE66E0F0E20
:101C7000E66E8DEC10F0106E050EE15E1050010E58
:101C8000E66EE66AE66A020EE66E0E0EE66E8DEC13
:101C900010F0106E050EE15E105042C401FE0E0100
:101CA000015103E1100E006F12D0200E006F010EE3
:101CB000E66EE66A010EE66E0E0EE66E010EE66E4A
:101CC000E66A58EC02F0106E060EE15E105012004B
:101CD000D9CFE6FFE1CFD9FF020EE126000EDE6E7E
:101CE000040EDD6EFD0EDB50E824126EFE0EDB509E
:101CF000040DF3501224040DF350106E116A020EFD
:101D00000F0B05E0D89011321032E806FBE1D890B5
:101D100010361136D89010361136D9CFE9FFDACF08
:101D2000EAFF1050EE261150ED22DECFE9FFDDCFA5
:101D3000EAFFEF9EFD0EDB500FE1FE0EEA6ADB3498
:101D4000FE0BEA36E96E070EE9260E0EEA22DECF1A
:101D5000EEFFDDCFEDFF0ED0FE0EEA6ADB34FE0BA8
:101D6000EA36E96E0F0EE9260E0EEA22DECFEEFF0E
:101D7000DDCFEDFFDECFE9FFDDCFEAFFEF9CDECF69
:101D8000E9FFDDCFEAFF040EE926000EEA22EF8C20
:101D9000020EE15C02E2E16AE552E16EE552E7CF54
:101DA000D9FF1200D9CFE6FFE1CFD9FF020EE1261D
:101DB000FE0EDB50116A260F106E0F0E112210C09E
:101DC000DEFF11C0DDFFDECFE9FFDDCFEAFFFD0E54
:101DD000DBCFEFFFDBA407D0E66AFE0EDBCFE6FF2A
:101DE00077DFE552E552FD0EDBA208D0010EE66E6C
:101DF000FE0EDBCFE6FF6CDFE552E552020EE15C42
:101E000002E2E16AE552E16EE552E7CFD9FF120046
:101E1000D9CFE6FFE1CFD9FF020EE126FE0EDB505F
:101E200020E105CEE9FF06CEEAFFEE52080EEF6E86
:101E300005CEE9FF06CEEAFF020EE926000EEA22F1
:101E4000400EEE6E040EED6E05CEE9FF06CEEAFF03
:101E50008C0EEF6E0FCEE9FF10CEEAFF840EEF6E10
:101E60003DD0FD0EDB50E824126EFE0EDB50040D5B
:101E7000F3501224040DF3CF10F0F4CF11F0000E44
:101E80001026040E112210C0DEFF11C0DDFF840EEB
:101E9000106EDECFE9FFDDCFEAFF1050EF12FD0E2E
:101EA000DB50E824126EFE0EDB50040DF3501224BA
:101EB000010F040DF3CF10F0F4CF11F0000E102637
:101EC000040E112210C0DEFF11C0DDFF840E106E63
:101ED000DECFE9FFDDCFEAFF1050EF12020EE15C2A
:101EE00002E2E16AE552E16EE552E7CFD9FF120066
:101EF000D9CFE6FFE1CFD9FF020EE126FD0EDB5080
:101F00000FE0FE0EEA6ADB34FE0BEA36E96E0F0ED6
:101F1000E9260E0EEA22EECFDEFFEDCFDDFF0ED07A
:101F2000FE0EEA6ADB34FE0BEA36E96E070EE9269E
:101F30000E0EEA22EECFDEFFEDCFDDFFDECFE9FFB2
:101F4000DDCFEAFF020EE926000EEA22FB0EDBCF10
:101F5000EEFFFC0EDBCFEDFFDECFE9FFDDCFEAFFCA
:101F6000EE52FA0EDBCFEFFF400E106EDECFE9FF30
:101F7000DDCFEAFF1050EF16880E106EDECFE9FFBE
:101F8000DDCFEAFF1050EF12FD0EDB500CE0FE0E2D
:101F9000EA6ADB34FE0BEA36E96E0F0EE9260E0E16
:101FA000EA22EF740BD0FE0EEA6ADB34FE0BEA364F
:101FB000E96E070EE9260E0EEA22EF74DECF10F06E
:101FC000DDCF11F010C0F3FF11C0F4FF020EE15C91
:101FD00003E200D0E16AE552E16EE552E7CFD9FFB6
:101FE0001200D9CFE6FFE1CFD9FF65A84ED0FE0E93
:101FF000EA6ADB34FE0BEA36E96E0F0EE9260E0EB6
:10200000EA22EE50EFCFEAFFE96E400EEE16EE6ADE
:10201000EE6AEE6AFE0EEA6ADB34FE0BEA36E96E21
:102020000F0EE9260E0EEA22EE50EFCFEAFFE96E20
:10203000EE7CFE0EEA6ADB34FE0BEA36E96E0F0E2A
:10204000E9260E0EEA22EF74400E106EFE0EEA6ACA
:10205000DB34FE0BEA36E96E0F0EE9260E0EEA229D
:10206000EE50EFCFEAFFE96E1050EF16FE0EEA6A6F
:10207000DB34FE0BEA36E96E0F0EE9260E0EEA227D
:10208000EE50EFCFEAFFE96EEF7CE552E7CFD9FFE4
:10209000120006D0656A0F01366B0E01006B00D08E
:1020A00012000E01005114E1656A0F01366B160E25
:1020B000396F9F0E376F7B0E366FD08EA288A08847
:1020C000F28E65B602D06586FCD70E01010E006F58
:1020D0001200036A026A016A006A200EE76ED89055
:1020E0000436053606360736003601360236033624
:1020F0000950005C0A5001580B5002580C5003580C
:1021000009E30950005E0A50015A0B50025A0C5064
:10211000035A042AE72EE4D71200FE0EE3CFE9FFAC
:10212000FF0EE3CFEAFFE9CFF3FFEACFF4FFFB0EA8
:10213000E35003E1FC0EE35009E0FB0EE30602E28C
:10214000FC0EE306FD0EE350EE6EF1D712001DEE1D
:1021500000F02DEE00F0F86A0F9C99EC07F003EC0C
:1021600008F074EC00F0FBD7120000000001000240
:10217000000302020201020000050800FFFFFFFF4A
:10218000FFFFFFFFFFFFFFFFFFFFFFFFFFFFFFFF5F
:10219000FFFFFFFFFFFFFFFFFFFFFFFFFFFFFFFF4F
:1021A000FFFFFFFFFFFFFFFFFFFFFFFFFFFFFFFF3F
:1021B000FFFFFFFFFFFFFFFFFFFFFFFFFFFFFFFF2F
:08FFF800ACF71AFF63F881F178
:00000001FF
