:100700008331882B000000007E1483317E100900A5
:1007100083318A2B7E1020008B31832B8C13E030A9
:10072000DA268331E030DA268331E030DA2622001F
:100730008C170800002C19248331082C4508031954
:10074000A82B2F08FB002E08FA00F5258331082C72
:100750004218AC2B490FB32B2D08FB002C08FA00D4
:10076000F5258331082C8C258331082C4218BD2BAC
:100770004508031DBD2B490F082CEE248331082C9E
:10078000DA248331200045080319C92BC401C40AA7
:10079000082CC40B082C4130C4000F248331DA2408
:1007A00083312000C801C80A082C4708003A031901
:1007B0009B2B013A03199E2B033A0319B62B013ADE
:1007C0000319C02B082C082CB6258331082CC40B28
:1007D000082C2330C4000F24833120000130C801CD
:1007E000C206082C4708003A03199B2B013A03194B
:1007F000E42B033A0319082C013A0319E72B082CC0
:100800004808003A0319D52B013A0319F22B082C9A
:1008100020000430C70A47020318C701080003304C
:10082000F20000304B268331CC248331CC24833139
:10083000CC2C0030F2014B268331200051080319E3
:10084000A02CFA0121003E08B42483313A30E62678
:100850008331FA01FA0A21003D08B4248331A5301E
:10086000FA009830FB00A2248331FA0121004008ED
:10087000B42483312030E626833121004108013A37
:100880000319642C033A0319692C013A03196E2CDD
:10089000073A0319732C013A0319782C033A031908
:1008A0007D2C013A0319822C0F3A0319872C013A47
:1008B00003198C2C193A0319912C013A0319962C1F
:1008C000033A03199B2CA12CB930FA009830FB0095
:1008D000A22CA930FA009830FB00A22CC530FA00F7
:1008E0009830FB00A22CC930FA009830FB00A22CF3
:1008F000D530FA009830FB00A22CBD30FA009830B9
:10090000FB00A22CB530FA009830FB00A22CB130CD
:10091000FA009830FB00A22CC130FA009830FB009E
:10092000A22CCD30FA009830FB00A22CD130FA0076
:100930009830FB00A22CAD30FA009830FB00A22CBE
:10094000CC2408007A0884007B0885001200031973
:1009500008007A0884007B0885000008E6268331B9
:10096000FA0A0319FB0AA22CFB007B0E0F392000A8
:10097000D900590803197A080319C12C59083038CD
:10098000C22C2030E62683317B082000D9000F30AE
:10099000D90559083038E62E22008C13F1010030B9
:1009A000DA2683315430F10A7102031CCF2C220065
:1009B0008C1708000230F20000304B2683312000F3
:1009C00045080319ED2C1930C50343020318ED2C1B
:1009D0006E30FA009830FB00A22CCC2C64258331B9
:1009E000C6000530F20043304B2683312000460F0D
:1009F000002D4630E62683312030E6268331472D10
:100A000046080319082DC0305C258331C0300C2DF9
:100A100000305C25833100305C25833100305C255B
:100A200083311A3020004602031C1B2DF0305C2558
:100A30008331F0301F2D00305C25833100305C2580
:100A4000833100305C258331333020004602031CA3
:100A50002E2DFC305C258331FC30322D00305C259E
:100A6000833100305C25833100305C2583314C308C
:100A700020004602031C412DFF305C258331FF30EE
:100A8000452D00305C25833100305C2583310330F7
:100A9000F2004F304B2683316E258331003A031923
:100AA000532D5730E62E69258331003A03195A2D0C
:100AB0005030E62E2030E62EF10022008C13710813
:100AC000DA2622008C17080020004F18FF34500847
:100AD000080002303806031901340034F001F00A2E
:100AE00020002408031D782D2508031D782DF00112
:100AF000700808008C130030DA2683310030DA26C3
:100B000083310030DA2683310030DA268331003039
:100B1000DA2622008C1708000330F20014304B262E
:100B200083310A30F50020004908C02783312000B6
:100B3000C600572683310330F20023304B260A309B
:100B4000F000200049089431C9248331C60057269B
:100B500083310330F20036304B2683312530E626D0
:100B600083315230E62683316830E62E0330F200BE
:100B70000A304B268331200051080319F42D21003F
:100B80003E08F0390319C82D3E0E0F395726833120
:100B90000330F20018304B26833121003E080F3914
:100BA000572683310330F20028304B268331193029
:100BB000200043020318DE2D0130DF2D0030AF2668
:100BC00083310330F2002F304B26833121003D0E5C
:100BD0000F39572683310330F2003D304B268331E5
:100BE00021003D080F39572E0F2C0430F200013040
:100BF0004B268331FB1F042EFA09FB09FA0A03195D
:100C0000FB0A9D268331062E7A2583310330F200BC
:100C10002B304B268331E2278331682783317008DC
:100C20002000C600572683310330F20018304B26CF
:100C30008331F2278331282783317108FB00700844
:100C4000FA00E22783316827833170082000C6004C
:100C5000572683310330F20009304B268331F227C7
:100C60008331282783317108FB007008FA007A0865
:100C7000572683310530F20026304B2683318E23F0
:100C800083310330F20039304B2683314030E62681
:100C900083314330E62EF3002000DB007208DA00D7
:100CA00073088038B627833172084038B62FF600B3
:100CB000F8002430F901F000F1017908F300780818
:100CC000F200132783317108F9007008F800220040
:100CD0008C130C30F700732ED8278331DA2683313A
:100CE000F80A0319F90AF703770F6C2EEA27833104
:100CF0004B2683318C130C30F700852ED827833197
:100D0000DA268331F80A0319F90AF703770F7E2EE2
:100D1000EA2783314B2683318C130C30F700972E52
:100D2000D8278331DA268331F80A0319F90AF70341
:100D3000770F902E22008C1708008C137030DA2663
:100D400083317030DA2683317030DA2683317030A7
:100D5000DA2683317030DA2622008C170800F4007E
:100D600022008C1374080319B72EE030F4007408C5
:100D7000DA2683317408DA2683317408DA2683315F
:100D800022008C1720005A08023EF2005B084B2616
:100D900083318C1374080319CF2E0730F4007408C4
:100DA000DA2683317408DA2683317408DA262200C1
:100DB0008C170800F0002400110820009111700821
:100DC00024009100200091190800E22EF600F8009E
:100DD000E030F901F807031CF9030530F000F101D8
:100DE0007908F3007808F200132783317108F900BD
:100DF0007008F80022008C130530F7007908850090
:100E000078088400003084079030853D0008DA2699
:100E10008331F80A0319F90AF70BFE2E0030DA269F
:100E200022008C170800F401F501701C1B2F7208BA
:100E3000F4077308F53DF235F30DF136F00C700848
:100E40007104031D152F7508F1007408F0000800E7
:100E5000F501F11F322FF009F109F00A0319F10A27
:100E6000F501F50AF31F3B2FF209F309F20A031902
:100E7000F30A0130F506F601F70170087104031951
:100E80005B2FF401F40AF11B482FF035F10D422FCE
:100E9000F635F70D71087302031D502F70087202AA
:100EA000031C572F7008F2027108F33B7614F136D9
:100EB000F00CF40B482F75080319632FF609F70996
:100EC000F60A0319F70A7708F1007608F00008001F
:100ED000F501F31F722FF209F309F20A0319F30A5D
:100EE000F501F50AF11F792FF009F109F00A03194C
:100EF000F10A700871040319942FF401F40AF11B2C
:100F0000842FF035F10D7E2F71087302031D8A2F97
:100F100070087202031C902F7008F2027108F33BF4
:100F2000F136F00CF40B842F750803199C2FF2098D
:100F3000F309F20A0319F30A7308F1007208F000CA
:100F4000080022008C178C108C142130B6278331B6
:100F5000A530B62783310430B62783311330B62746
:100F600083312030B62783310C30B62FF1002200B8
:100F70000D118C137108DA2622008C170D1508004C
:100F8000F600F80175080319D62FF701F70AF51BCB
:100F9000CB2FF535C62FF83575087602031CD32FF5
:100FA0007508F6027814F536F70BCB2F7808080091
:100FB0007908850078088400D63084079130853D13
:100FC000000808000A30F000F1017B08F3007A08FD
:100FD000F200080022008C1720005A08013EF2009F
:100FE0005B0808000A30F000F1017B08F3007A0882
:100FF000F20008002000A401A501B40108000000CF
:101000001430A800A9013910B8012100B901080065
:1010100021009D1413307A20883120003108031DEF
:10102000B103580803191628D803432821005B0888
:10103000F0005C08F100F201F3014608F7004508F2
:10104000F6004408F5004308F40084208831730852
:10105000C6007208C5007108C4007008C3000030E3
:10106000C3078030C43D0030C53DC63D4608D200B0
:101070004508D1001F30C301C401C501C6012000CD
:10108000D8006720883121009D1843281C082000C3
:10109000B300B20121001B082000B2043208210075
:1010A000C307200033082100C43D0030C53DC63DC4
:1010B0002000931D582821009D149D185D281B08B1
:1010C000C3071C08C43D0030C53DC63D08002100D3
:1010D0005A08F0002C30F101F0070130F13D5208C0
:1010E000D0005108CF0070084F02CF007108503B6C
:1010F000D0000800F00028001E1170089D0020009C
:10110000931128001E150800F801F901FA01FB01EE
:10111000701C92287408F8077508F93D7608FA3DA6
:101120007708FB3DF435F50DF60DF70DF336F20CAF
:10113000F10CF00C7308720471047004031D88280C
:101140007B08F3007A08F2007908F1007808F000D3
:10115000080021004D084E040319D4280130CD02A7
:101160000030CE3B20002D08AB002C08AA00210047
:101170004B082000AA0221004C082000AB3BAB1F0B
:10118000C628AA09AB09AA0A0319AB0A2B08803A98
:10119000F10080307102031DCF2803302A02031CA6
:1011A000D4282100CD01CE0120002F0821004A06BD
:1011B000031DDE2820002E08210049060319F5280A
:1011C000023020004E02031CF528CE01CE0A2F0863
:1011D000803AF1002D08803A7102031DF1282C0895
:1011E0002E020318F5282000D00120002F0821002E
:1011F000CA0020002E082100C90020004E08031D4F
:101200002029210064082000CE002C214F18D00195
:1012100085316E258831003A031DD0010630500219
:101220000318CF182129CF142D082100CC0020004D
:101230002C082100CB00E030CD001530CE00212954
:10124000CE0321003B082000500603190800500877
:101250002100BB0020140800510803193C29063066
:1012600021004102031C3C290A30410203183C2999
:101270002000AA01AB01452920002F08AB002E0851
:10128000AA002C08AA022D08AB3B2B08803AF000DC
:1012900080307002031D4E2901302A02031C54299C
:1012A00064302000D00008002000AB1BD0010800F3
:1012B00021006708F1006808F200F301F401F4006E
:1012C0007108F300F201F10174082000A300730813
:1012D000A2007208A1007108A0002C08F1002D08DE
:1012E000F200F301F4017108A0047208A10473086C
:1012F000A2047408A30423082400A80020002208E4
:101300002400A700200021082400A60020002008B7
:101310002400A5000430B12A9821893120004A0810
:1013200003190800CA034A08031D08004D086A2B68
:10133000853169258931003A0319AE29510803190D
:10134000A4290230CB00CA2A21005D082000AE008B
:10135000AF01CB01CB0ACD01CD0A080021007D23CE
:101360008931AB29D6218931003A0319C0294508B2
:101370000319BC290130C92984310F248931CA29B4
:10138000DD218931003A0319D02945080319BC2908
:10139000FF30E42128302000C4003C30C801C500E3
:1013A0003330C30A43020318C30108005508F00094
:1013B0000230F005D510700808005408F000023023
:1013C000F005D41070080800FB00F900FA01F91BC1
:1013D000FA03AE077A08AF3DFD294C08F0002E084D
:1013E000F1004D0833238931052A2E082100DD0044
:1013F000052A2E082100DE00052A4B08013A0319B0
:10140000F529033A0319ED29F9290A302000CA0009
:10141000080023002008FB3EFB002508023A0319C0
:10142000152AF23A0319332A3F2AFA01F901FB037C
:1014300003192A2A7A08F0007A08A73E86000130AC
:1014400087000108F1002300260833238931F907BA
:10145000FA0A172A7908031D0800230026085C23CE
:1014600089310030B12A02307B06031D08002708AD
:10147000F10026088E31762689310030B12A080025
:101480002508013A03194B2A033A03195F2A073A40
:101490000319852AB02A2400A501A50A20004108C5
:1014A0002400A6000630FA00FB01200051187A142F
:1014B0007B082400A7007A08A8000430B12A260877
:1014C000C2228931FA00FB017B0403190800F801EC
:1014D000F9017B087902031D6F2A7A087802031844
:1014E000832A7808F00023002608F1228931F700CA
:1014F0007808253E86000230870077088100F80AC8
:101500000319F90A692A7A08B12A20003308FB0076
:101510003208FA007B082400A5007A08A600200003
:1015200029082400A700200028082400A800200083
:101530002E082400A900BD222400AA0085316425BC
:1015400089312400AB00AC01AD0121006308240007
:10155000AE008C31872489312400AF000B30B12AD2
:101560000800F000230021080319080024082400C3
:10157000A4007008043EA000080020000D0E890C95
:1015800001390800F00009307002031800347008B7
:1015900071230800063021003F02031CD12A0430C9
:1015A000D22A03302000CD000A238931FA00073007
:1015B000FB007B0803190800FB037B08F0002000F8
:1015C0004D08F12289317A027B08031CDA2A073E92
:1015D0002000CC00F0004D08F1222000AE00AF0149
:1015E0000800F400F1004E30F201F135F20D710700
:1015F00084009830723D8500003FF500013FF60001
:101600007008F100F201750786007208763D8700C8
:101610000108080021003E081B238931F9000F3022
:10162000F935F935F50021003D081B238731C02726
:10163000F90779080800F400F3000F30F3050A30C9
:10164000F000740E0F392723F30773080800F20027
:10165000F10170087218F107F035F2367208031DB7
:10166000292B71080800F8000930780203180134AA
:101670007808712389317002031801347808F20068
:101680004E30F301F235F30D720784009830733D4C
:101690008500003FF600013FF7007008F200F301FB
:1016A0007607F4007308773DF50074088600750826
:1016B0008700710881000034F5006A2389317508BC
:1016C000203E860001308700011D08008C319924DE
:1016D00089315F2BF000203E860001308700011524
:1016E0000800813E840098300318013E8500000800
:1016F00008007D23CC01CA0108005E082000AE006E
:10170000AF01CB0108009431B2248B3162248B31BC
:10171000FC27943161248B3195311C258B31873125
:10172000A1278B31963178268B312F258B310C24D4
:10173000943149248B318B3179238B31943154246A
:101740008B31883100208B319431FD248B318731EE
:10175000FA278B3121003130D301D4012000ED0074
:10176000E12B3130ED0094317D248B3123248B31FA
:10177000F32794316F248B31012C9431E1248B3188
:10178000E12B883108208B31E12B89318C218B3181
:10179000E12B8831A9208B31E12B99248B315A30F0
:1017A00021005306A53003195406031DE12B87249D
:1017B0008B31003A0319E12B0100E12B83319A238D
:1017C0008B3157258B312000911CE12B911021008A
:1017D000E70A0319E80A963118268B318931B221BC
:1017E0008B319631E0268B312224953144258B3183
:1017F00067082000EC001F30EC056D080319B12BC1
:10180000ED036C088400053004020318DE2B9331CD
:1018100004353E3E8200E12BC8302000AC00FF3092
:10182000AD01C900B601B500F0017008293E86007F
:1018300001308700FF3081001830F00A7002031871
:101840000800152C0800200036080319292CB603BF
:10185000322C5C248B3171082000AD007008AC0084
:10186000FF30C9002D082100B50020002C08210000
:10187000B400200049082100B700200051080319D6
:10188000080021003E082000350603190800210049
:101890003E082000B5008B311B23293E8600013015
:1018A000870020002D08F6002C08F500760DF60CB8
:1018B000F50C75088100080021005008F1004F0860
:1018C000F000080020302100E7004E30E800E52756
:1018D0008B31670F672C680A031D672C190887393D
:1018E000603899006430E700E801E5278B31670F25
:1018F000752C680A031D752C033020009C009C3059
:101900009B0091102100911020001C150800F0018F
:101910007008203E8600013087000119003409302C
:10192000F00A7002031C882C20003C0803190134C3
:101930000034FF2CBF0109303F0203180800963124
:10194000D4268B310108031DA72C9631882E9631A1
:10195000D4268B31011DCE2C3F08203E860001117C
:10196000D8268B31F4013E0874020318C72C740882
:10197000A03E8600023087002608840027088500E4
:1019800000088100A60A0319A70AF40AB32CA030A4
:10199000A6000230A700BC01BC0A0800BF0A9B2CAD
:1019A00026088600270887003D080C258B31010694
:1019B0000319E12C9631DA268B310108F0003D083D
:1019C00017259631DA268B310108C007BD0AA60A11
:1019D0000319A70ABE033E08031D08000230BC001D
:1019E00008003D080C258B31200040060319FC2C13
:1019F0004008F0003D0817252000BC010800200029
:101A00003C08003A03199A2C013A0319D02C033AE6
:101A10000319F12CFC2C0800F00023009100920126
:101A20001513951315140000230013080800F10086
:101A30000B08F2008B1371082300910092017008CB
:101A4000930095131513151555309600AA3096007E
:101A500095149518292DF21B8B1715110800532684
:101A60008B31F5302400A4000530A000FF30A10028
:101A7000BC268B3182258B312100A0112015A010AE
:101A8000A101A2010430220203184E2DD9278B3167
:101A90002208AF3E86008101A20A422D2230B30007
:101AA0006130B6001130B8007130BA000800210072
:101AB000A01C722D2000931C0800AD268B318330B2
:101AC0004102031C6F2D2830B2268B3121002308E0
:101AD00003196C2DA30308002100A010822DBC2641
:101AE0008B316C2D93258B312300200803197B2D1E
:101AF00000278B316E2D20003A0803190800532669
:101B00008B31822D23002030A00184268B310D30B3
:101B100014268B31F5000138F1000D3076268B311B
:101B20008B106030842E603020003B0603198B1C24
:101B30000800AD268B31203084268B31DF278B3196
:101B4000BF394038F1001F3076268B31CF258B31DD
:101B5000F6003F3076020318C12D76082300A0005E
:101B6000F50176080319C12DF50A7508A03E860017
:101B700001308700CF258B318100F603B12DCF25B1
:101B80008B310D3014268B310239031DBF2D2300FC
:101B90002008031D08002000BA01BA0A080022002C
:101BA0000C129826F00022000C1670080800F701AD
:101BB0007708003E840098300318013E8500000835
:101BC000F100770876268B312030F70A7702031C64
:101BD000D82D0E3014268B31EF278B3176268B31A2
:101BE000403084268B31FF30F700F501002E0E3097
:101BF00014268B31F600F61C002EF701F501F50ACC
:101C0000F703770FF72D203084268B310E30142602
:101C10008B31EF278B3176262000C1012300A001F4
:101C20002000BA0175080800F20022008D117235FB
:101C30004038F2008631DA268B319826F1002200F6
:101C40008D1571080800203084268B31DF278B31F9
:101C5000F1001F30711376268B310D3084009830DF
:101C6000850000080138F1000D3076268B310E30EA
:101C700084009830850000080238F1000E30762686
:101C80008B31F501750824002002031C512E7508C4
:101C9000203E8600023087000108A4268B31F50A19
:101CA000422E8030842ED7258B31003A0319010053
:101CB00021005508F100163076268B312100560898
:101CC000F100173076268B3121005708F1001830CB
:101CD00076268B3121005808F100193076268B3199
:101CE00021005908A400F1001D30762EF2002200D8
:101CF0008D11F23572088631DA268B317108863102
:101D0000DA2622008D150800F4008B1000308400C4
:101D1000983085000008F3001F30F3057408F304C1
:101D20007308F1000030762674082000BB0008001C
:101D30002400110820009111240091012000911D20
:101D40009E2E240011080800F10022000C127108D8
:101D50008631DA2622000C160800143014262000E2
:101D6000C1000800F000280017117008960020003C
:101D70009310280017150800210024082400A20051
:101D8000A301D4268B3123268B313430B2268B31FC
:101D9000CC2E20009318CE2E8B1CC92E2000931C15
:101DA000D22E532E2030842E02302000B1000800A5
:101DB0003F08783E840098300318013E85000008F3
:101DC000BD003F08F0004E30D3278B319830713D75
:101DD0008500003FA600013FA7003F08F0003C300F
:101DE000D3279830713D8500003F2100C700013F97
:101DF000C80020003F088B317123BE00C0010800DD
:101E00009531CD258B31003A031D08002400A40133
:101E1000A001982F05302100A200230020082100F6
:101E200022020318B32F2208A03E8600013087004B
:101E30000108A500113A031D212F953184258B310E
:101E40003F2F07302506031D292F94319F248B3106
:101E50003F2FB1302506031D312F9531A4258B313D
:101E60003F2F22302506031D392F94318D248B31CD
:101E70003F2F61302506031D3F2FCA278B312100DC
:101E800025080F392207013E0C2F21080319B32F13
:101E9000893158218B31B32F21080319B32F973182
:101EA00066278B31003A0319B32F2100A015B32FF9
:101EB00021080319B32F2100A01DB32FFF30F0001C
:101EC000172500308A31B1228B31B32F2230BD2744
:101ED0008B31230021080319B32F2100A01DB32F3C
:101EE0008A3109228B31B32F2230BD278B31230059
:101EF00021080319B32F8A3140228B31B32F2108D7
:101F00000319B32F2100A01DB32F9431F8248B3176
:101F1000B32FA4302506031D902F21002011B32FCD
:101F20004A302506031DB32F21002015A011B32F21
:101F300023002408063A03190A2FF63A0319452FFD
:101F4000013A03194C2F023A0319662F063A031976
:101F50007F2F033A0319742F0E3A0319582F013AB1
:101F60000319892FB32F2400240803190800230024
:101F700022082400A10095317D2DF00023002108C6
:101F800003190800FF302400A4007008A5000530E4
:101F9000A0000800EA278B31031D08009531C625F3
:101FA0002000C9000800F101F035F10D7007840030
:101FB00008002208A73E86008701810108001F3023
:101FC000840098308500000808000130E7020030E6
:101FD000E83B080023002208210061060800F60003
:101FE0000238F1000E343C30210021020318FA2F90
:101FF000A10A08002014080021008C150C15080007
:1020000000340034003400340034003400345F34D1
:1020100000340034003407340034073400341434FE
:102020007F3414347F34143424342A347F342A34F3
:10203000123423341334083464346234363449346B
:102040005534223450340034053403340034003421
:1020500000341C34223441340034003441342234FE
:102060001C340034143408343E3408341434083436
:1020700008343E34083408340034503430340034EA
:102080000034083408340834083408340034603428
:102090006034003400342034103408340434023402
:1020A0003E345134493445343E34003442347F3474
:1020B000403400344234613451344934463421349C
:1020C000413445344B3431341834143412347F34B1
:1020D0001034273445344534453439343C344A349B
:1020E000493449343034013471340934053403340B
:1020F0003634493449344934363406344934493461
:1021000029341E340034363436340034003400347C
:102110005634363400340034083414342234413414
:10212000003414341434143414341434003441346A
:10213000223414340834023401345134093406345E
:1021400000340F34093409340F347E34113411341F
:1021500011347E347F3449344934493436343E3482
:1021600041344134413422347F34413441342234C7
:102170001C347F3449344934493441347F34093480
:102180000934093401343E344134493449347A3411
:102190007F340834083408347F34003441347F34C9
:1021A000413400342034403441343F3401347F34EE
:1021B00008341434223441347F34403440344034C1
:1021C00040347F3402340C3402347F347F3404349E
:1021D000083410347F343E344134413441343E3489
:1021E0007F3409340934093406343E3441345134DF
:1021F00021345E347F34093419342934463446346A
:102200004934493449343134013401347F340134A0
:1022100001343F344034403440343F341F342034A0
:10222000403420341F343F344034383440343F3459
:102230006334143408341434633407340834703489
:10224000083407346134513449344534433400345C
:102250007F344134413400340234043408341034BF
:1022600020340034413441347F34003404340234A7
:102270000134023404344034403440344034403477
:1022800000340134023404340034203454345434DF
:10229000543478347F344834443444343834383413
:1022A000443444344434203438344434443448349A
:1022B0007F343834543454345434183408347E342D
:1022C0000934013402340C345234523452343E3422
:1022D0007F340834043404347834003444347D3496
:1022E000403400342034403444343D3400347F34AE
:1022F0001034283444340034003441347F344034C2
:1023000000347C3404341834043478347C34083495
:102310000434043478343834443444344434383461
:102320007C3414341434143408340834143414341D
:1023300018347C347C34083404340434083448348D
:10234000543454345434203404343F34443440340A
:1023500020343C344034403420347C341C34203429
:10236000403420341C343C344034303440343C3429
:10237000443428341034283444340C345034503429
:1023800050343C344434643454344C344434003495
:10239000083436344134003400340034FF3400341F
:1023A000003400344134363408340034E034F83436
:1023B000FC341E340E34063406340E341E34FC3421
:1023C000F834E034FF34FF34FF3400340034003498
:1023D000003400340034FF34FF34FF340F343F3412
:1023E0007F34F034E034C034C034E034F0347F342F
:1023F0003F340F3400340034183418341C34FE34A5
:10240000FE34FE3400340034003400340034003430
:10241000003400340034FF34FF34FF34003400341F
:102420000034003400340034E034E034E034FF346D
:10243000FF34FF34E034E0340034003438343C34CA
:102440001C340E340E340E340E340E341E34FC3470
:10245000FC34F0340034003400348034C034E034D0
:10246000F03478343C341F340F340334F834FE3401
:10247000FF34EF34E334E134E034E034E034E0348A
:10248000E034E03418341C340E340E340634063490
:1024900006340E340E34FC34FC34F0340034003492
:1024A000003400340C340C340C341E343F34F33418
:1024B000E134C034383478347034E034E034E0341B
:1024C000E034E03470347F343F340F34003400346F
:1024D0008034C034E034F03478343C341C34FE347E
:1024E000FE34FE34F834FE34FF34C734C134C03413
:1024F000C034C034C034FF34FF34FF3400340034FF
:102500000034003400340034003400340034FF342C
:10251000FF34FF34FE34FE34FE3406340634063411
:1025200006340634063406340634003407340734DF
:10253000073406340634063406340E341C34FC34B6
:10254000F834E034303470347034E034C034C034A3
:10255000C034E034F0347F343F340F34E034F834A6
:10256000FC341E340E340634063406340E341C3467
:1025700018340034FF34FF34FF341C340E340E346E
:102580000E340E341C34FC34F834E0340F343F3451
:102590007F34F034E034C034C034E034F0347F347D
:1025A0003F340F3406340634063406340634063419
:1025B0000634C634FE34FE347E3400340034003435
:1025C00000348034E034F8347E341F34073401346E
:1025D00000340034E034F834FE341F34073401345E
:1025E000003400340034003400340034F034F83463
:1025F000FC340E3406340634063406340E34FC340F
:10260000F834F034C134E334F7343E341C34183435
:1026100018341C343E34F734E334C1341F343F34AF
:102620007F34E034C034C034C034C034E0347F344C
:102630003F341F34F034F834FC340E34063406349E
:10264000063406340E34FC34F834F03407341F34C6
:102650003F34383470347034703470343834FF346C
:10266000FF34FF3400346034E034C034C034C0344C
:10267000E034703478343F341F3407348B31BD2B51
:102680008B31C12B8B31C52B8B31C92B8B31CD2B92
:102690009631E42E9631EC2E9631FD2E9731152F82
:1026A0009731252F0000000000000000000000000E
:1026B000000000000000000000000000000000001A
:1026C000000000000000000000000000000000000A
:1026D00000000000000000000000000000000000FA
:1026E00000000000000000000000000000000000EA
:1026F00000000000000000000000000000000000DA
:1027000000000000000000000000000000000000C9
:1027100000000000000000000000000000000000B9
:1027200000000000000000000000000000000000A9
:102730000000000000000000000000000000000099
:102740000000000000000000000000000000000089
:102750000000000000000000000000000000000079
:102760000000000000000000000000000000000069
:102770000000000000000000000000000000000059
:102780000000000000000000000000000000000049
:102790000000000000000000000000000000000039
:1027A0000000000000000000000000000000000029
:1027B0000000000000000000000000000000000019
:1027C0000000000000000000000000000000000009
:1027D00000000000000000000000000000000000F9
:1027E00000000000000000000000000000000000E9
:1027F00000000000000000000000000000000000D9
:1028000000000000000000000000000000000000C8
:1028100000000000000000000000000000000000B8
:1028200000000000000000000000000000000000A8
:102830000000000000000000000000000000000098
:102840000000000000000000000000000000000088
:102850000000000000000000000000000000000078
:102860000000000000000000000000000000000068
:102870000000000000000000000000000000000058
:102880000000000000000000000000000000000048
:1028900000002000D1012100C201C101C001BF011F
:1028A000BE01BD01BC0108000A30CE002100C901F3
:1028B000CA01CD01CE0120004F10CF10CF11D001A1
:1028C00008002400950196019701403094002100F2
:1028D00091112400951622000C168D150800200079
:1028E0000430B40A3402031C0800B4012408031D98
:1028F000A4032508031DA503080022005D1C080091
:1029000020002808290403198A2C0130A80200306D
:10291000A93B08002100B90108008F31EA27943152
:10292000031D08002208A13E860001308700403FB9
:102930002000AC00413FAD00FF30B6000800200091
:10294000D11421002208A13E860001308700BC304E
:102950008400003085000730F00016001A00F00BEC
:10296000AD2C0800403022009D00013023008C0077
:102970008D01E33021008D002D308C004830950012
:10298000923022008C0008308D00C03024008D0071
:102990000800F2000830F300F4017208F10007307B
:1029A000F136890BD02C74357104F400F2357008BF
:1029B0007402031CDD2C7008F402F30BCD2C740898
:1029C00008002100BC0FE62C2000D1012000510896
:1029D00003190800233021003E06031D080059306A
:1029E0003D06031D080028303C06031D0800F82C96
:1029F0005A30D300A530D40008002000FF30C801B1
:102A0000C501C701C301C400052DF830F100013034
:102A1000F20022008C13FF30F107031CF203710F48
:102A2000142D720A0319192D00308631DA269431DB
:102A30000B2D22008C17080021009D0180309E0084
:102A40001D143E302000B1001F30D80021009D141D
:102A50001B30280097002100931028009E002100C1
:102A600093112000D401D501D601D701D201D301A1
:102A70002100C830C301C401C501C601CF00D00187
:102A800020003010B010080021002018A018662D7A
:102A9000201D662D21080319662D2010A101240098
:102AA0000630A101A4000D30A000B3308600003034
:102AB00087000530203E8400023085000930F10097
:102AC00016001A00F10B602D7D2595312100A20121
:102AD00004302202031808002208AF3E8600870156
:102AE00001080319782D2208AF3E860081037B2D53
:102AF0008F31D9279531A20A682D05302100A30016
:102B00000230A0148E31B22E2300220822005E066D
:102B100003199C2D2300220822005F0603199C2D17
:102B2000230022082200600603199C2D230022089E
:102B300022006106031D08002100C62595310319F6
:102B400008002000391408002300220821005F0635
:102B5000031DB52DC62595310319B22DFF30200078
:102B6000A40008002000A40108002300220821007E
:102B70006006031D0800C62595310319C32DFF30DB
:102B80002000A50008002000A50108002208A13EA1
:102B9000860001308700010808002108031D003469
:102BA0002100FF30A501A201A60004302202031873
:102BB000FF2D2208A73E8600870101082300220678
:102BC000031DED2D21002208AB3E86000F302300AF
:102BD0002305F00001060319013421002208AF3E4D
:102BE00086008701260801020318FD2D2208AF3E4A
:102BF00086000108A6002208A500A20AD52D2508F6
:102C0000A73E860087012300220812269531230063
:102C1000230812260F3081052508AF3E8600463076
:102C200081000034810021002508AB3E86000800A9
:102C3000F10120008D1E262EB018272EB014310869
:102C4000031D242E3014272E3010272EB010C03034
:102C50000D05F000C03A031D2F2EF101F10AD73502
:102C60008D1B362E7108031D362E5714073057055D
:102C7000F000073A031D4D2E5518422E1430D5147E
:102C8000D300551453080319532ED3035308031DBF
:102C9000532E1430D300D514532E57080739031D73
:102CA000532E5510D301D6350D1B5A2E7108031D16
:102CB0005A2E561407305605F000073A031D712EA0
:102CC0005418662E1430D414D20054145208031928
:102CD0000800D2035208031D08001430D200D41497
:102CE000080056080739031D08005410D2010800D7
:102CF0002000BF0109303F020318832E8826963139
:102D00002000BF0A7A2EBF018E31D826BC010800F0
:102D10008E31D82696319F2E3D088D310C25963167
:102D2000F300DA269631730881002608860027080A
:102D300087000108C007BD0AA60A0319A70ABE0337
:102D40003E0F8C2E3D088D310C259631200040061B
:102D5000031DAE2ED4268101810A0800D42602303C
:102D600081008E31D8269631210047084804031986
:102D70000800CC2E21004708840048088500000880
:102D8000F300DA26963173088100A60A0319A70A10
:102D90002100C70A0319C80A2000BE033E0FBA2E3D
:102DA000D4260330810008003F08203E8600013011
:102DB00087000800200026088600270887000800F2
:102DC00022005D18292FF32E28082904031D08006E
:102DD0002000B801B80A080035279631003A0319D7
:102DE000F72E01303E2702302000B80008002000F6
:102DF000391C080000303910F22E35279631003A80
:102E00000319042F0130092F2000391C0B2F00302B
:102E100039103E279631200028082904031D080098
:102E20000F30B7000330B8000800370803191A2F15
:102E3000B703080035279631003A0319E82E9B3076
:102E40002000B7000430B80008003708031D182F11
:102E5000E82E200038088400053004020318E82E0C
:102E600093310435483E820008002200DD1C003406
:102E700060279631003A031D01340034F000203001
:102E800021003E0203184B2F220063082000A900F6
:102E900022006208512F220065082000A9002200AC
:102EA00064082000A800701C08002200DD1C080037
:102EB0002100390303190800B901B90A20140800D8
:102EC0002000301C0034013030100800C827973132
:102ED000230025082000DC00DD01DE01DF012300E6
:102EE00026082000E000E101E201E3016208E300BE
:102EF0006108E2006008E100E001230027082000EB
:102F0000E400E501E601E7016508E7006408E60082
:102F1000E501E401230028082000EB00EA01E901B3
:102F2000E8016808E4046908E5046A08E6046B0837
:102F3000E7046408E0046508E1046608E204670841
:102F4000E3045C086004F1005D086104F2005E08BF
:102F50006204F3005F086304F4002306031DBA2F24
:102F600073082206031DBA2F72082106031DBA2F0B
:102F7000710820060319C42F2230A001A101A2016B
:102F8000A3018F31BD27003400308A31B1220134D2
:102F90000730ED27973124302000A0066130A106CC
:102FA0002330A206CA30A3060530ED279731413001
:102FB0002000A0061630A1063230A206AC30A306CF
:102FC0000330ED27973112302000A0060130A10612
:102FD0001030A2060130A306ED2FF000F003700FB1
:102FE000F22F08002000A31FFB2FA035A10DA20D7A
:102FF000A30D2014EE2FA035A10DA20DA30DEE2FD1
:1030000036348434043404340C34C1347D346434B0
:10301000143477345F3413343834083401340034D2
:10302000A334383438340734003400347A347A34F2
:103030006C343134B034003440340034FC34003467
:103040000F3404340A340F340534013405340734A2
:103050000034FF3402340334FF34FF3400340134CD
:10306000FB34FF34FE34FD34F034FE34FB34F934E9
:10307000E234FB34F634F134983498349334983491
:103080008A34983460349834603498349D34983459
:103090000034003420349834A1349834D5340034CA
:1030A000DA3400345D3401344F34013441340134B6
:1030B000DF34003429340134BE340234E3340034C4
:1030C000003432345A3478348C34B434C834C8348C
:1030D000C834C834C834C834C834C834203453342D
:1030E000653474342034543465346D3470340034B1
:1030F000F03400340A34143428348C343C3496349C
:10310000B4340534053409340E340E340434183420
:103110001C3404340334FF34FF34FF34FF341034E0
:103120000E3410340E34C834E4340C34C8346434EF
:103130007A347A346C343134FE34FF34FF34FF3463
:10314000FF343234643400340034203420342034EA
:1031500000344634653462340034443465346334B6
:10316000003441347534673400344A3475346C3477
:1031700000344A3461346E3400344A3475346E3469
:10318000003453346534703400344D346134723457
:10319000003441347034723400344F346B3474343E
:1031A00000344E346F34763400344D346134793425
:1031B00000340000000000000000000000000000DB
:1031C00000000000000000000000000000000000FF
:1031D00000000000000000000000000000000000EF
:1031E00000000000000000000000000000000000DF
:1031F00000000000000000000000000000000000CF
:00000001FF
