:020000040000FA
:0600000029EF06F01200DA
:0608000029EF06F01200D2
:02082A000000CC
:04082C00D9CFE6FF3B
:10083000E1CFD9FFFE0EDB500DE0FE0EDB2ADB2AF6
:10084000DB2ADB2ADB2ADB06DB06DB06DB06DB0634
:10085000DB06F0D7E552E7CFD9FF12000001606B4D
:10086000280E0001605D06E2602B5B0EE66EDEDFA7
:10087000E552F6D78C92300E8C6E8C948C948C94BE
:100880008C848C848C848C848C94606B080E000126
:10089000605D06E2602B5B0EE66EC8DFE552F6D7C0
:1008A0008C92300E8C6E8C948C948C948C848C8472
:1008B0008C848C848C94606B080E0001605D06E271
:1008C000602B5B0EE66EB2DFE552F6D78C92300EEF
:1008D0008C6E8C948C948C948C848C848C848C847E
:1008E0008C94606B080E0001605D06E2602B5B0E6D
:1008F000E66E9CDFE552F6D78C92200E8C6E8C94BF
:100900008C948C948C848C848C848C848C945B0EDE
:10091000E66E8CDFE5528C92200E8C6E8C948C945B
:100920008C948C848C848C848C848C948C92800E9B
:100930008C6E8C948C948C948C848C848C848C841D
:100940008C945B0EE66E72DFE5528C928C6A8C940E
:100950008C948C948C848C848C848C848C948C92D9
:10096000800E8C6E8C948C948C948C848C848C846F
:100970008C848C945B0EE66E59DFE5528C928C6A07
:100980008C948C948C948C848C848C848C848C94A7
:100990008C92C00E8C6E8C948C948C948C848C84F1
:1009A0008C848C848C945B0EE66E40DFE5528C92D6
:1009B0008C6A8C948C948C948C848C848C848C84A1
:1009C0008C948C92600E8C6E8C948C948C948C8411
:1009D0008C848C848C848C945B0EE66E27DFE552CD
:1009E0008C928C6A8C948C948C948C848C848C8463
:1009F0008C848C948C92600E8C6E8C948C948C94E1
:100A00008C848C848C848C848C945B0EE66E0EDFDC
:100A1000E5528C92800E8C6E8C948C948C948C8489
:100A20008C848C848C848C948C928C6A8C948C9422
:100A30008C948C848C848C848C848C940001606B6A
:100A40001200D9CFE6FFE1CFD9FFFE0EDBA003D025
:100A50008C92C00E02D08C92800E8C6E8C948C94F2
:100A60008C948C848C848C848C848C948C928C6AF2
:100A70008C948C948C948C848C848C848C848C94B6
:100A8000020EE66ED3DEE552FE0EDB6A100EF36E4A
:100A9000FE0EDBCFF4FFF350F45C2EE28C82FE0EF0
:100AA000DB50EA6A600FE96E000EEA22EF50F00BAD
:100AB0008C6E8C948C948C948C848C848C848C849C
:100AC0008C948C82FE0EDB50EA6A600FE96E000E99
:100AD000EA22EF38F00BF00B8C6E8C948C948C9493
:100AE0008C848C848C848C848C94020EE66E9EDEC6
:100AF000E552FE0EDB2ACAD7E552E7CFD9FF120036
:100B00002A0EF66E080EF76E000EF86E0001090050
:100B1000F550756F0900F550766F03E1756701D0E8
:100B20003DD00900F550706F0900F550716F090054
:100B3000F550726F09000900F550E96E0900F55093
:100B4000EA6E090009000900F550736F0900F550BD
:100B5000746F09000900F6CF77F0F7CF78F0F8CF7F
:100B600079F070C0F6FF71C0F7FF72C0F8FF0001A6
:100B7000735302E1745307E00900F550EE6E7307FA
:100B8000F8E27407F9D777C0F6FF78C0F7FF79C0AD
:0E0B9000F8FF00017507000E765BBFD712005C
:020B9E00D9CFAD
:100BA000E6FFE1CFD9FF020EE12637EC06F0DE6A60
:100BB000DD6ADECF00F0DDCF01F0026AD89002508E
:100BC000000A06E6240E005CF40E0158000E0258DE
:100BD0000FE28A6889688B688C688D688A68896882
:100BE0008B688C688D68DF2A010EE3E3DB2AE1D78E
:100BF000DE6ADD6ADECF00F0DDCF01F0026AD89058
:100C00000250000A06E6240E005CF40E0158000EA5
:100C10000258CDE28A6A896A8B6A8C6A8D6A8A6A0E
:100C2000896A8B6A8C6A8D6ADF2A010EE3E3DB2A0C
:020C3000E1D70A
:0E0C3200000EF36E00EE00F0080E01D8120066
:100C4000EA6002D0EE6AFCD7F350E9601200EE6A67
:020C5000FCD7CF
:0E0C520013EE00F023EE00F0F86A049C80EC34
:0E0C600005F03DEC06F0CFEC05F0FBD71200DE
:020C6E00936A87
:0A0C7000926A946A956A966A12006F
:020C7A00120066
:020000040030CA
:0100000023DC
:010001000EF0
:010002001EDF
:010003001EDE
:010005008179
:010006008178
:00000001FF
