:1000000011280000000000007E14803120009212B0
:1000100022000E103D00A00164302000D6007E10AA
:10002000090012287E102000D32A21001D08033960
:1000300014389D009D149D181B281D080339103885
:100040009D001B082000DC00DD0121001C082000B1
:10005000DE00DF01DF00DE015C085E04D8005D0821
:100060005F04D900DA01DB015B08F3005A08F200F3
:100070005908F1005808F0000330F701F601F500C7
:10008000FC30F40023237308DB007208DA007108E7
:10009000D9007008D8000A30DB36DA0CD90CD80C3D
:1000A000890B4C2821009D1420005235383E8600D3
:1000B00087015808C03F5908C13F3E3086003C3098
:1000C00084008501003F3A07DC00013F3B3DDD0035
:1000D000403F5C07DE00413F5D3DDF0038085E07C2
:1000E000D00039085F3DD100D136D00CD136D00CCC
:1000F00021009D1878281D08033944389D001C08EC
:100100002000C500C40121001B082000C4044408CD
:10011000D8004508D900DA01DB015B08031D9A28E5
:100120005A08031D9A2859084130031D9B2858027C
:10013000031CA1284130D8020030D93BDA3BDB3B1D
:10014000A528D801D901DA01DB015B08F3005A08C0
:10015000F2005908F1005808F0000330F701F601E9
:10016000F500B530F40023237308DB007208DA00D1
:100170007108D9007008D8000A30DB36DA0CD90CC7
:10018000D80C890BBD2821009D1420005235283E33
:10019000860087015808C03F5908C13FC100580870
:1001A000C0002E3086002C3084008501003F2A07D5
:1001B000DC00013F2B3DDD00403F5C07DE00413F9E
:1001C0005D3DDF0028085E07CE0029085F3DCF00B7
:1001D000CF36CE0CCF36CE0C21009D18EC281D0852
:1001E000033948389D001B082000DC00DD01210098
:1001F0001C082000DE00DF01DF00DE015C085E0479
:10020000D8005D085F04D9000930DA01DB01F30191
:10021000F201F1005130F0005B08F7005A08F600D7
:100220005908F5005808F40023237308DB0072080E
:10023000DA007108D9007008D80021009D14200050
:100240005808DC005908DD005A08DE005B08DF00B2
:100250000A30DF36DE0CDD0CDC0C890B2929523527
:10026000303E860087015C08C03F5D08C13FC30087
:100270005C08C20036308600343084008501003FBF
:100280003207DC00013F333DDD00403F5C07DE000C
:10029000413F5D3DDF0030085E07CC0031085F3D27
:1002A000CD00CD36CC0CCD36CC0C21009D18552977
:1002B00020005235203E8600870121001B08C03FE8
:1002C0001C08C13F1D08033914389D0026308600E4
:1002D000243084008501003F20002207DC00013F1C
:1002E000233DDD00403F5C07DE00413F5D3DDF0018
:1002F00020085E07E00021085F3DE100E136E00CE8
:10030000E136E00C6008D8006108D900DA01DB01B1
:100310005B08031D95295A08031D952959089B3030
:10032000031D96295802031C9C299B30D8020030DB
:10033000D93BDA3BDB3BA029D801D901DA01DB014B
:100340005B08F3005A08F2005908F1005808F00061
:100350000130F701F601F5004A30F4002323730859
:10036000DB007208DA007108D9007008D8000A3082
:10037000DB36DA0CD90CD80C890BB8295808D70011
:100380000430D20A52020318D20108005008D800E3
:100390005108D900DA01DB014E08F0004F08F100E6
:1003A000F201F3015B08F7005A08F6005908F5005E
:1003B0005808F40023237308DB007208DA00710880
:1003C000D9007008D8000A30F000F101F201F30101
:1003D0005808DC005908DD005A08DE005B08DF0021
:1003E0000530DC35DD0DDE0DDF0D890BF1295F08F1
:1003F000F7005E08F6005D08F5005C08F400942242
:100400007308DB007208DA007108D9007008D800A0
:100410005408DC004030DD01DE000130DF005C0804
:100420005E02F0005D085F3BF100F201F3015B0842
:10043000F7005A08F6005908F5005808F40094220D
:100440007108CB007008CA008830C6001330C7009E
:100450003D305702031C312AE830C6000330C70084
:10046000080033305702031C3A2AB830C6000B305C
:10047000C70008002E305702031C432AA030C600D4
:100480000F30C700080029305702031C08009430C1
:10049000C6001130C70008005408031D512AD501B9
:1004A000D50A49084B02031D572A48084A02031877
:1004B000602A5508031D5E2A01305F2A0030D500EE
:1004C0004B084702031D662A4A084602031C6E2A8F
:1004D00004304D02E33003194C020318D5015508CE
:1004E0000319802AF03054020318882A0A30540273
:1004F00003187D2A0A30D400882AD40AD40A882A0C
:100500000B305402031C872AFE30D407882AD401FA
:100510004B08C9004A08C800003051026430031972
:100520005002031CD4010800F801F901FA01FB0193
:1005300073087204710470040319CA2AFC01FC0ACE
:10054000F31BA72AF035F10DF20DF30D9F2AF835B4
:10055000F90DFA0DFB0D73087702031DB92A720815
:100560007602031DB92A71087502031DB92A7008A5
:100570007402031CC42A7008F4027108F53B720867
:10058000F63B7308F73B7814F336F20CF10CF00CE1
:10059000FC0BA72A7B08F3007A08F2007908F10027
:1005A0007808F00008008B1301308E232000D5015D
:1005B000D50AD4018B17D3230D24003A0319DB2A63
:1005C00022000C151520482361235608031DF22A2A
:1005D000D30A53080739031DEF2AC6214C225408B9
:1005E000B523FB2AD6035608031DFB2A00308E23B1
:1005F0002000D501D50A22000C11DB2AF501F601F5
:100600007008710403191E2BF401F40AF11B0B2B63
:10061000F035F10D052BF535F60D71087302031D4C
:10062000132B70087202031C1A2B7008F202710857
:10063000F33B7514F136F00CF40B0B2B7608F1003C
:100640007508F0000800F801F901FA01FB01701CBF
:10065000312B7408F8077508F93D7608FA3D7708DC
:10066000FB3DF435F50DF60DF70DF336F20CF10CFC
:10067000F00C7308720471047004031D272B7B08AF
:10068000F3007A08F2007908F1007808F000080019
:100690000A30F000F1014B08F3004A08F200FE2294
:1006A0007108F8007008F700780823009A0000002D
:1006B000000000002000111E5A2B770823009A002A
:1006C0000800053020004302DD3003194202031800
:1006D000702B003041021930031940020318080042
:1006E00022000E103D00A00164302000D60008005A
:1006F00018303D00A40022008C018E013E30210004
:100700008E003B308C00303023008C0024008C01A4
:100710000E3023008E0024008E010800FC007C08AF
:100720000319982BD6017823A22312240424FA2338
:10073000C423E1237C080319080015201520152087
:100740001520EF2B01308B002100900191019201C7
:10075000930194013200981307309F009B01210000
:1007600010126030320099000800F100F000F00C27
:10077000F00C700CC0392C0097007108F000F036B6
:10078000F0367008980008002C009801970104309A
:1007900020009F004F309E0080302C0099000230D6
:1007A0003D00A000080020008E19D92B2200111F47
:1007B000080022000E103D00A00164302000D60089
:1007C000080021009212163022009100B3309200EE
:1007D00091170B1720009212210092160800970122
:1007E0004A3098004E30960021009012200090125E
:1007F0009717080014303D00A5000C3023009B0023
:100800009E161E129D170800F03021009E00153024
:100810009D009F012000D20108002000901E00349E
:10082000901201340830220097009717080000004A
:1008300000000000000000000000000000000000B8
:1008400000000000000000000000000000000000A8
:100850000000000000000000000000000000000098
:100860000000000000000000000000000000000088
:020000040001F9
:08000E00CCDFF2F7FFFFFFFF5A
:00000001FF
