:04000000803109281A
:100008007E148031842B7E10090080310B287E10ED
:1000180020004629E830FA000330FB0020002408BD
:1000280022002106031D0800FF302100A400223011
:10003800A5000530A000A3288030FC000330FD0097
:1000480020307D02003003197C02031836287D0811
:10005800F1007C08F000D72080312030FC0703181D
:10006800FD0A2428200000302914CE208031B5282C
:10007800250BB5282000291CB5282730220020068A
:10008800031DB5282608FD002708FC0003307D0263
:10009800803003197C02031CB528200027087D0640
:1000A800031D582826087C06031968287D08F100D6
:1000B8007C08F0002830F200162180312000A914B5
:1000C8007D08A7007C08A600F801F901F7017D0862
:1000D800F1007C08F000EF2080317008F807710803
:1000E800F93DFC0A0319FD0A1030F70A7702031CD0
:1000F8006B2878082100A5007908A6000230CE20D8
:100108008031B5282000A91CB528CA30F000FF307E
:10011800042180310030CE208031B5280100B52877
:10012800250BB52802302100A50020002A0821004F
:10013800A6000430A801A701CE208031B5282200EE
:100148002408F23A03192028013A03193C28073AEF
:1001580003198628013A03199228033A03199428A7
:10016800B5282200220821001A2380312200230802
:100178002100A300A3130130FA020030FB3B7A0FE1
:10018800BF287B0A031DBF28F22180318B1CCA2897
:1001980020308B2AF000220024082100A4007008D7
:1001A800043EA0000800E0307005F2007108F3007A
:1001B80072082300910073089200151395171516FD
:1001C800151555309600AA309600951400000000C9
:1001D800230015110800710823009200700891008F
:1001E8001513951715140000000023001408F300D8
:1001F800F2011308F2047308F1007208F000080015
:10020800F1002300910092017008930095131513D3
:10021800151555309600AA30960095149518122990
:1002280015110800F0307005F3007108F400730828
:10023800230091007408920095171513151595164B
:10024800F501142380310D2380315530F20A9600D0
:10025800AA3096009514000000002300910A0F3080
:10026800F50A750214238031031C27290D239512E2
:1002780055309600AA30960095140000000023001F
:10028800151108008B13B7228031ED228031D52259
:100298008031FF228031212280315C2180316D2123
:1002A800803122002008031953290E20803151295A
:1002B80022002030A0018B2280310D30E4218031D2
:1002C800F6000138F2000D307F2280318B1060304B
:1002D8008B2A60302000280603198B1C0800E822AE
:1002E800803120308B22803120238031BF39403843
:1002F800F2001F307F228031A1218031F700403089
:10030800770203189A297708A000F60177080319DD
:100318009A29F60A7608203E860001308700A12136
:1003280080318100F7038A29A12180310D30E42131
:100338008031023903190800982922000C12C022C2
:10034800F10022000C1671080800F80178082A3E0E
:10035800840083300318013E85000008F200780805
:100368007F2280312030F80A7802031CAA290E3037
:10037800E4218031262380317F22803140308B2256
:100388008031FF30F800F601D2290E30E4218031A7
:10039800F700F71CD229F801F601F60AF803780FDE
:1003A800C92920308B2280310E30E4218031262368
:1003B80080317F222000AA012200A00176080800CF
:1003C800F30022008D1173354038F3009F228031ED
:1003D800C022F20022008D157208080020308B22FE
:1003E800803120238031F2001F3072137F22803148
:1003F800373084008330850000080138F2000D3062
:100408007F2280313830840083308500000802382C
:10041800F2000E307F228031F6017608210020029A
:10042800031C1F2A7608A03E860087010108CD22FA
:100438008031F60A112A80308B2AF030F900FA014F
:10044800A9218031003A03190100FB017B08203EF5
:10045800860087017908AC2280318100F90A7B087F
:10046800203E860087010108FA070530FB0A7B0257
:10047800031C2A2AF530AC2280317A0603194E2A49
:100488007A302000A000A1006C30A2003130A30017
:10049800FE30A40020002008F20016307F228031B0
:1004A80020002108F20017307F2280312000220826
:1004B800F20018307F22803120002308F200193022
:1004C8007F22803120002408F2001D307F228031F5
:1004D8002000A901A601A7012100F530A301A4006D
:1004E8000430A000FF301A238031F22180318B1CA8
:1004F8007B2A20308B2AF30022008D11F3357308F4
:100508009F22803172089F2222008D150800F50075
:100518008B102A308400833085000008F4001F30D7
:10052800F4057508F4047408F20000307F22750899
:100538002000A8000800F00024001108F1002000A5
:100548009111700824009100200091190800A82A30
:10055800F000230091009201151395131514000063
:10056800230013080800FF30AC2280312000AB00C4
:10057800CA3A031D0800802B24001108F00020004F
:100588009111240091012000911DC72A240011080F
:100598000800F20022000C1272089F2222000C169A
:1005A80008000930F0003D30F1000130F002003061
:1005B800F13B700FD92A710A031DD92A21001908A5
:1005C80087396038990008001430E4212000AA0017
:1005D8000800403022009D00013023008C008D016E
:1005E800E33021008D002D308C00923022008C00E9
:1005F80008308D00080022000C168D152400950186
:10060800960197014030940021009111240095161D
:1006180008009300F20A7208860001089400080096
:10062800720886000130870001080800A100200038
:1006380024082100A2000800493084008330850086
:1006480000080800F7000238F2000E34363484340B
:10065800043404340C34C1347D34643414347734B1
:100668005F3413343834083401340034A334383454
:1006780038340734003400347A347A346C34313402
:0C068800B034003440340034FC34003442
:020000040001F9
:04000E00E4EFFFFA22
:00000001FF
