:020000040000FA
:0600000079EF10F0120080
:0600080004EF08F01200F5
:060018000CEF08F01200DD
:02001E000200DE
:100020000E2100000001000020000000E50E00008D
:08003000F904000001000000CA
:08003800040140511F0B0108F7
:1000400001E04CD04051600BE842E842E842E8420F
:10005000E842010801E042D0445103E0440501E0D8
:100060003DD04151220A35E0030A28E0010A17E099
:10007000210A0EE0010A01E031D00E01F00E9B6F63
:10008000040E9C6F080E9E6F9F6B9D819D8F26D0E6
:100090000E01F00E9B6F040E9C6F9D8F1FD046C407
:1000A000A3FE47C4A4FE0E01500EA06F040EA16F64
:1000B000420EA56F060EA66FA28F10D00E01D80EAD
:1000C0009B6F040E9C6F070E9E6F9F6BC10E9D6F02
:1000D00005D042C4EBF40E019D8F00D01200040144
:1000E000D86B4B0ED96FDA6BDB6BDC6BDD6B080EFC
:1000F000DE6FE06BDF6B1A0EE66E020EE66ED2EC80
:100100000EF0E552E5521E0EE66E030EE66ED2ECE0
:100110000EF0E552E552400EE66E580EE66E040E05
:10012000E66EE66A030EE66E78EC0FF0106E050ED2
:10013000E15E1050F3CFE7F4F4CFE8F40401E96B8B
:10014000EA6B1200D9CFE6FFE1CFD9FF0401DF6BE4
:10015000E751E81102E1000E08D0E7C4E9FFE8C466
:10016000EAFFEF50800B01E0010E000945E1FC0EB3
:10017000DBCF10F0E7C4E9FFE8C4EAFFEE52EF502E
:10018000D880105408E2E7C4E9FFE8C4EAFFEE5261
:10019000FC0EEFCFDBFFDF6BFC0EDB50DF5D19E207
:1001A000DF51EA6A580FE96E040EEA22EF50E66E5C
:1001B000DF51E76EFD0EDBCFE9FFFE0EDBCFEAFF7E
:1001C000E750E926000EEA22E552E750EF6EDF2BFA
:1001D000E3D7400EE66E580EE66E040EE66EE66A53
:1001E000030EE66E78EC0FF0106E050EE15E105017
:1001F000F3CFE7F4F4CFE8F40401DF5100D0E55287
:10020000E7CFD9FF1200D9CFE6FFE1CFD9FFA09801
:100210000401E0510CE1FD0EDBCFE1F4FE0EDBCF7B
:10022000E2F4FC0EDBCFE5F4010EE66FE06FA08890
:10023000E552E7CFD9FF1200D9CFE6FFE1CFD9FFD2
:10024000030EE126A0980401E05102E0A0882FD01F
:10025000DF6AFD0EDBCF06F0FE0EDBCF07F0DE52CD
:1002600006C0DEFF07C0DDFFDD52DF2ADF50106E63
:10027000116AFF0E101801E1115001E10BD0010EBF
:10028000DBCFE9FFDB2A020EDBCFEAFF01E3DB2A4B
:10029000EF50EBE1FD0EDBCFE1F4FE0EDBCFE2F43D
:1002A000DFCFE5F40401010EE66FE06FA088030ED6
:1002B000E15C02E2E16AE552E16EE552E7CFD9FF87
:1002C0001200D9CFE6FFE1CFD9FF030EE126A098B7
:1002D0000401E05102E0A08830D0DF6AFD0EDBCFE0
:1002E00006F0FE0EDBCF07F0DE5206C0DEFF07C0D1
:1002F000DDFFDD52DF2ADF50106E116AFF0E10188D
:1003000001E1115001E10CD0010EDBCFF6FFDB2A39
:10031000020EDBCFF7FF01E3DB2A0800F550EAE12C
:10032000FD0EDBCFE1F4FE0EDBCFE2F4DFCFE5F430
:100330000401E66B010EE06FA088030EE15C02E2AF
:10034000E16AE552E16EE552E7CFD9FF1200D9CF5D
:10035000E6FFE1CFD9FF020EE126A0980401E951A2
:10036000EA1102E1000E08D0E9C4E9FFEAC4EAFF9D
:10037000EF50800B01E0010E000902E0A08887D059
:10038000030EE05D01E1E06BE05102E1A0887FD067
:10039000020EE05D16E1E66A000EE66EE66A010E08
:1003A000E66E030EE66E78EC0FF0106E050EE15E61
:1003B0001050F3CFE9F4F4CFEAF40401030EE06F38
:1003C00065D0E00563E1400E106E116AE551105CE6
:1003D000000E115803E2400EDF6E02D0E5C4DFFFCD
:1003E000DF50E55DE56F980EE36F040EE46F010EDC
:1003F000DFCFDBFFE65117E1010EDB5013E0E1C474
:10040000F6FFE2C4F7FF0800F550E3C4E9FFE4C4D7
:10041000EAFFEF6EE32B000EE423E12BE223010E53
:10042000DB06EAD715D0010EDB5012E0E1C4E9FF8C
:10043000E2C4EAFFEF50E3C4E9FFE4C4EAFFEF6E71
:10044000E32B000EE423E12BE223010EDB06EBD7C6
:10045000E55108E1400EDF5C03E1020EE06F02D0DF
:10046000030EE06FDFCFE6FF980EE66E040EE66E39
:10047000010EE66E030EE66E78EC0FF0106E050EC0
:10048000E15E1050F3CFE9F4F4CFEAF4A088020E55
:10049000E15C02E2E16AE552E16EE552E7CFD9FFA5
:0204A000120048
:0E04A200DACFE4FFE2CFDAFFE9CFE4FFEACFE2
:1004B000E4FFF6CFE4FFF7CFE4FFF5CFE4FFF3CF9F
:1004C000E4FFF4CFE4FFFACFE4FF00EE00F0100EFB
:1004D000E80403E3EECFE4FFFBD700EE10F0080ED4
:1004E000E80403E3EECFE4FFFBD7E6525FEC08F04D
:1004F000E55200EE17F0080EE80403E3E5CFEDFF48
:10050000FBD700EE0FF0100EE80403E3E5CFEDFF9C
:10051000FBD7E5CFFAFFE5CFF4FFE5CFF3FFE5CF5B
:10052000F5FFE5CFF7FFE5CFF6FFE5CFEAFFE5CF33
:10053000E9FFE5CFDAFF1100D8CFE4FFE0CFE4FF19
:10054000E46EDACFE4FFE2CFDAFFE652E552E5CF20
:10055000DAFFE550E5CFE0FFE5CFD8FF100014D873
:100560000001E96BEA6B9CEC04F0C4D80001D00EEA
:10057000E55D070EE65902E2899401D08984E5071A
:10058000000EE65BF2D71200D9CFE6FFE1CFD9FF2C
:10059000020EE1260F0148693F0E496F580EDE6ECC
:1005A000020EDD6E9B8CDFCF10F0DF06010EDBCF7D
:1005B00011F001E2DB061050111001E0F4D70F0139
:1005C000486949691BD899EC06F0F7EC03F000097B
:1005D00003E189808990FDD79290929292948980CC
:1005E000898289848EEC05F0020EE15C02E2E16A08
:1005F000E552E16EE552E7CFD9FF1200D9CFE6FF11
:10060000E1CFD9FFE652DF6ADF50106E116A400E6B
:10061000105C000E115809E2DF50EA6A600FE96EC3
:10062000000EEA22EF6ADF2AEFD70001E06BE16BF0
:10063000E36BE46B9380F19EE552E552E7CFD9FF7F
:100640001200D9CFE6FFE1CFD9FF040EE126D88012
:10065000000E04015055C20E5155010E5255000EA8
:10066000535501E23DD050C4D8F451C4D9F452C41A
:10067000DAF453C4DBF4146A1B0E156EB70E166E53
:10068000176A14C004F015C005F016C006F017C0B4
:1006900007F0D8C409F0D9C40AF0DAC40BF0DBC4FF
:1006A0000CF0C2EC07F004C010F005C011F006C059
:1006B00012F007C013F01006000E115A125A135A06
:1006C00010C0DFFF010E11C0DBFF020E12C0DBFF06
:1006D000030E13C0DBFFDF50B06E010EDB507F6EE8
:1006E000040EE15C02E2E16AE552E16EE552E7CF19
:1006F000D9FF1200D9CFE6FFE1CFD9FF030EE126E3
:1007000047EC05F00E01415106E0899291EC05F0AD
:100710009CEC04F08982030EE15C02E2E16AE5529E
:10072000E16EE552E7CFD9FF12001200120012006D
:1007300012001CEF00F012006FEF00F06584000162
:10074000080EEB6F070EEC6FEB07000EEC5BEB5146
:10075000EC11FAE165941200D9CFE6FFE1CFD9FFA1
:10076000FD0EDBCF06F0FE0EDBCF07F0720E061893
:1007700001E1075033E0E868061802E1E86807186D
:100780002BE0740E061801E1075024E0750E0618E0
:1007900001E107501DE0730E061801E1075016E055
:1007A000030E061801E107500FE0020E061801E1E2
:1007B000075008E0010E061801E1075001E010D0D3
:1007C000BBDF0FD0B8DF0DD0B4DF0BD0B0DF09D066
:1007D000ACDF07D0ABDF05D0ABDF03D0000001D02A
:0E07E00000D0010E00D0E552E7CFD9FF120085
:0207EE00D9CF61
:1007F000E6FFE1CFD9FF030EE126010EDB6ADB50F5
:100800001F0812E3010EDB50EA6A000FE96E010EC9
:10081000EA22EF50E66E010EDBCFE6FF52D8E5523A
:10082000E552010EDB2AEBD70E0EE66E66D8E552D6
:10083000DF6E020EDF10E66E0E0EE66E42D8E55257
:10084000E552400EE66E00D9E552010EDB68020E5D
:10085000DB6A010EDBCFF3FFDB06F35000090EE08D
:100860000E0EE66E4AD8E552DF6EDFA206D0010E0C
:10087000DB6AF36E020EF3CFDBFFEBD7200EE66EE2
:10088000E3D8E5520E0EE66E38D8E552DF6E020E62
:10089000DF10E66E0E0EE66E14D8E552E5520E013C
:1008A000416B816B020EDB50106E030EE15C03E2C4
:1008B00000D0E16AE552E16E1050E552E7CFD9FF72
:1008C0001200D9CFE6FFE1CFD9FF8A9AFE0EDB50A6
:1008D000020DFE0EF3CFDBFFFE0EDBCFE6FFB2EC28
:1008E00006F0E552FD0EDBCFE6FFB2EC06F0E55276
:1008F0008A8AE552E7CFD9FF1200D9CFE6FFE1CFD0
:10090000D9FFE6528A9AFE0EDB50E8244009E76ED2
:10091000FE0EE7CFDBFFFE0EDBCFE6FFB2EC06F00C
:10092000E552DDEC06F0DF6E8A8ADF5000D0E5523A
:10093000E552E7CFD9FF1200D9CFE6FFE1CFD9FFCB
:10094000E6520E01416B200EE66E7ED8E5520D0E8A
:10095000E66ED3DFE552DF6E010EDF10E66E0D0EA0
:10096000E66EAFDFE552E552F094600EE66E6CD8AD
:10097000E552E552E552E7CFD9FF1200D9CFE6FFA5
:10098000E1CFD9FFE652200EE66E5ED8E552BF0EEB
:1009900001011F15E66E1F0EE66E93DFE552E5526C
:1009A000010E01010D11E66E0D0EE66E8ADFE552B5
:1009B000E552020E01010E11E66E0E0EE66E81DFAB
:1009C000E552E552DF6A0E010151D880DF540CE395
:1009D000DF50EA6A010FE96E0E0EEA22EF50E66E72
:1009E00012D8E552DF2AEFD7800EE66E2DD8E552F9
:1009F000F0A4FED7200EE66E27D8E552E552E55268
:100A0000E7CFD9FF1200D9CFE6FFE1CFD9FF899A0E
:100A1000FE0EDBCFE6FFB2EC06F0E552898AE55226
:100A2000E7CFD9FF1200D9CFE6FFE1CFD9FFE652D9
:100A3000899ADDEC06F0DF6E898ADF5000D0E5523E
:100A4000E552E7CFD9FF1200D9CFE6FFE1CFD9FFBA
:100A5000E652F094E66A51DFE5521F0BDF6EFE0EA0
:100A6000DB50DF12DFCFE6FFE66A2BDFE552E5520F
:100A7000FE0EDBCF00FEE552E552E7CFD9FF1200B4
:100A8000140EE66E3ADFE5520E01816F1200D9CFE7
:100A9000E6FFE1CFD9FF020EE126600E0E01005DF8
:100AA00033E1F0A431D0ECDF200EE66ECDDFE5526D
:100AB000BF0E01011F154009E66E1F0EE66E01DF35
:100AC000E552E552B0DFDF6EDF503F0815E3DFCFC0
:100AD00041FE010EDB6ADF500FE0A5DFE66E010E7E
:100AE000DB2ADB50EA6A410FE96E0E0EEA22E5527C
:100AF000E750EF6EDF06EFD70D0EE66EFEDEE55235
:100B0000020B01E0F9D78FDF020EE15C02E2E16A3D
:0C0B1000E552E16EE552E7CFD9FF12007C
:040B1C000101286B40
:100B20001200D9CFE6FFE1CFD9FF070EE1260E0173
:100B30000569220E066F050E016F0E014551F60A7A
:100B400001E1B7D0030A01E1AED0010A01E1A3D06F
:100B5000070A0DE0010A01E0BAD0E1D80101AC0EAC
:100B6000286F45CE05FE0E01040E016FB0D046057C
:100B700001E080D0AC0E0101285D01E07AD0270EA3
:100B80000E01415D76E147CE12F012C013F0126AF9
:100B9000485100011210106E13C011F0010E10C068
:100BA000DBFF020E11C0DBFF45CE05FE030EDB6A44
:100BB000040EDB6ADF6A100EDF5C40E2090EDF2400
:100BC000DF24EA6A410FE96E0E0EEA22EF50E66E6C
:100BD000D950050FE96EDACFEAFFE552E750EE6E25
:100BE000ED6AD950050FE96EDACFEAFFEE50ED6EEF
:100BF000EF6A080EDF24DF24EA6A410FE96E0E0E69
:100C0000EA22EF50106E116AD950050FE96EDACF63
:100C1000EAFF1050EE261150ED22050EDBCF10F04A
:100C2000060EDBCF11F0D950030FE96EDACFEAFFE1
:100C30001050EE261150ED22DF2ABDD7FF0EE76ED1
:100C4000030EDBCF10F0040EDBCF11F0E7501016CF
:100C5000116A10C006FE030EDBCF10F0040EDBCFCE
:100C600011F011C010F0116A10500E01076F060E3E
:100C7000016F10D0F00E465D0DE148CEE6FF47CE85
:100C8000E6FF61EC04F0E552E55245CE05FE0E01AB
:100C9000040E016F1CD00101286B45CE05FE0E012C
:100CA000040E016F14D045CE05FE0E01040E016F37
:100CB0000ED046050BE145CE05FE0E01020E066F75
:100CC00081CE07FE086B096B080E016F00D0D00EB5
:100CD000F36E030EF3CFDBFF070EF36E040EF3CFBC
:100CE000DBFFD950030FE96EDACFEAFFEE50ED10CB
:100CF0000AE043CE02FE0E01036B030EDB06040E78
:100D000001E2DB06EED7BEEC04F0070EE15C02E286
:100D1000E16AE552E16EE552E7CFD9FF1200120019
:100D20000401050EF86FF851F807000901E0FBD740
:100D30001200938493969392929A939AF19E938839
:100D4000F186550EA76EAA0EA76E0E01FF91070E33
:100D5000E96F550EA76EAA0EA76EFF81898A8A8A4F
:100D6000F0941200D9CFE6FFE1CFD9FFE6528A9680
:100D70008A92D6DFDF6A080EDF5C18E2070ED880A1
:100D8000DF54106EFE0EDB5010C0E7FFE75204E0A8
:100D9000E8427F0BE706FCE1E8B08A86E8A08A9685
:100DA0008A82BEDF8A92BCDFDF2AE5D78A96B8DF67
:100DB000E552E552E7CFD9FF1200D9CFE6FFE1CFE8
:100DC000D9FF020EE126010EDB6A8A968A92A8DF1D
:100DD000DF6A080EDF5C13E28150040B01E0010EB4
:100DE000106E010EDB50E8241010E76E010EE7CF05
:100DF000DBFF8A8295DF8A9293DFDF2AEAD7010E32
:100E0000DB50106E020EE15C03E200D0E16AE552B5
:0C0E1000E16E1050E552E7CFD9FF120050
:040E1C0012010002BD
:100E200002000008D8040A000001010200010902C2
:100E30004300020100C03209040000010202010067
:100E400005240010010424020205240600010524E3
:100E50000100010705820308000209040100020ADB
:100E60000000000705030240000007058302400060
:100E7000000403090434034D006900630072006F2D
:100E80000063006800690070002000540065006382
:100E90000068006E006F006C006F00670079002032
:100EA0000049006E0063002E0034034300440043F9
:100EB000002000520053002D003200330032002089
:100EC0000045006D0075006C006100740069006FE2
:100ED000006E002000440065006D006F002E0E7152
:050EE0000E750EA90EC5
:010EE500000C
:0A0EE6001E0EF66E000EF76E000EF1
:100EF000F86E00010900F550F26F0900F550F36F2C
:100F000003E1F26701D03DD00900F550ED6F090013
:100F1000F550EE6F0900F550EF6F09000900F5502C
:100F2000E96E0900F550EA6E090009000900F55064
:100F3000F06F0900F550F16F09000900F6CFF4F0E9
:100F4000F7CFF5F0F8CFF6F0EDC0F6FFEEC0F7FF03
:100F5000EFC0F8FF0001F05302E1F15307E0090090
:100F6000F550EE6EF007F8E2F107F9D7F4C0F6FF9E
:100F7000F5C0F7FFF6C0F8FF0001F207000EF35BC3
:040F8000BFD71200C5
:0C0F8400036A026A016A006A200EE76E30
:100F9000D890043605360636073600360136023656
:100FA00003360950005C0A5001580B5002580C508F
:100FB000035809E30950005E0A50015A0B50025AC7
:0C0FC0000C50035A042AE72EE4D712005C
:040FCC00FE0EE3CF63
:100FD000E9FFFF0EE3CFEAFFE9CFF3FFEACFF4FF2B
:100FE000FB0EE35003E1FC0EE35009E0FB0EE306C9
:100FF00002E2FC0EE306FD0EE350EE6EF1D71200A6
:0610000079EF10F0120070
:021006001200D6
:0610080051EF02F012009E
:061018009CEF02F0120043
:02101E00D9CF28
:10102000E6FFE1CFD9FFE652636A626A0F01160E4E
:10103000396F9F0E376F7B0E366F658C386B020EE3
:10104000E66EE66AE66A270EE66E0F0EE66EE6ECE0
:1010500007F0106E050EE15E1050659CDF6ADF50F0
:10106000106E116A100E105C000E115810E2DF5065
:10107000040DF3CFE9FFF4CFEAFF000EE926040EDA
:10108000EA22EE6AEE6AEE6AEE6ADF2AE8D70F011C
:10109000160E266F62A602D06296FCD70E019D6BDB
:1010A000A26BA36BA46B6598080E916F040E926FF0
:1010B000836B826BE552E552E7CFD9FF1200D9CF9F
:1010C000E6FFE1CFD9FFE6520E01820509E165BADC
:1010D00007D0626A0F01368136890E01020E826FD7
:1010E0006250040B06E00F013651040B02E06294DB
:1010F000BDD865A202D0A19887D06250010B13E041
:101100000F013651010B0FE08ADF0E01040E826FD2
:101110000401400E026F040E036F080E016F006B96
:101120008C0E001362906250100B06E00F013651D6
:10113000100B02E088D862986250400B14E00F0157
:101140003651400B10E0010EE66EE66A000EE66EC8
:10115000E66A730EE66EE66AACEC03F0106E060EFD
:10116000E15E1050629C6250200B05E00F01365189
:10117000200B01E04ED86250020B13E00F013651F4
:10118000020B0FE0010EE66EE66A000EE66EE66AFE
:10119000E668E668ACEC03F0106E060EE15E1050F7
:1011A000636A040E0E01E76E8219E8AE02D0E734DE
:1011B00002D0E750825D02E2A19826D00F0136A747
:1011C00022D0DF6A040EDF5C1EE262A61BD064CF71
:1011D000AAFE6296780E0E01AA1502E15DD810D023
:1011E000000EE66EE66AAA0EE66E0E0EE66E720E51
:1011F000E66EE66AACEC03F0106E060EE15E10508F
:10120000DF2AE0D700D0A198E552E552E7CFD9FF19
:1012100012000F0126A115D085CEE9FF86CEEAFF88
:10122000EF5080080DE191CEE9FF92CEEAFFEF503A
:10123000840806E185CEE9FF86CEEAFF8C0EEF6ECC
:101240002691629A12000F01368562986582000E1F
:10125000E66EE66AE66EE66A750EE66EE66AACEC87
:1012600003F0106E060EE15E10501200000EE66EE6
:10127000E66AE66EE66A740EE66EE66AACEC03F0C9
:10128000106E060EE15E105065920F01369562A455
:1012900002D06294FCD71200D9CFE6FFE1CFD9FF8C
:1012A000E652FD0E0E01AA155AE17E0EAA15E8407F
:1012B0007F0B040DF3CF85FEF4CF86FE000E85274D
:1012C000040E862385CE87FE86CE88FE877585CE62
:1012D000E9FF86CEEAFFEF503C0BE842E8420D08FA
:1012E0003CE185CEE9FF86CEEAFF020EE926000E3C
:1012F000EA22EECF10F0EFCF11F0480E101802E105
:10130000040E111828E185CEE9FF86CEEAFF020E11
:10131000E926000EEA22400EEE6E040EED6EDF6A44
:10132000DF50106E116A080E105C000E115813E2A7
:10133000DF50EA6A480FE96E040EEA22EF50E66ECB
:10134000DF50EA6A400FE96E040EEA22E552E750E8
:10135000EF6EDF2AE5D70DD801D02ED805D0FD0ECF
:10136000AA15040801E14ED8E552E552E7CFD9FFAE
:10137000120091CEE9FF92CEEAFFEF50800B05E01C
:1013800091CEE9FF92CEEAFFEF6A0E01996B9A6B5C
:101390009E6B9F6B9D6BB9D8000EE66EE66AE66E9B
:1013A000E66A030EE66EE66AACEC03F0106E060E1B
:1013B000E15E105031EF0CF0020E0E019A5D02E179
:1013C000B0DB1FD06FD80E01AB511AE187CEE9FF19
:1013D00088CEEAFFEE52080EEF6E87CEE9FF88CE88
:1013E000EAFF020EE926000EEA22400EEE6E040E1F
:1013F000ED6E87CEE9FF88CEEAFF8C0EEF6E01D04E
:10140000AB6B1200D9CFE6FFE1CFD9FFE65291CE08
:10141000E9FF92CEEAFFEF50400B01E0010EDF6ED4
:101420000E019175080E825D0DE142C438FF0F0177
:101430003851000804E20E01100E826F03D00E0135
:10144000040E826F9A0528E191CEE9FF92CEEAFF61
:10145000020EE926000EEA22480EEE6E040EED6E34
:10146000D5DA020E0E01995D07E191CEE9FF92CE29
:10147000EAFF840EEF6E0FD0DF5007E191CEE9FF57
:1014800092CEEAFFC80EEF6E06D091CEE9FF92CE63
:10149000EAFF880EEF6E01D005D8E552E552E7CF9E
:1014A000D9FF1200D9CFE6FFE1CFD9FF020EE12626
:1014B0000E019A6B91CEE9FF92CEEAFFEF6A040E1D
:1014C0009119106E92CE11F010C0DEFF11C0DDFF39
:1014D000DECFE9FFDDCFEAFFEF6AA2AF0CD0A55166
:1014E000A61107E005D0A6CEFAFF0E01A551F96EB0
:1014F000FADF0E01A29F020EE15C02E2E16AE55210
:10150000E16EE552E7CFD9FF120004014051600BB4
:10151000E842E842E842E842E842000901E058D0E7
:1015200041510C0A54E00B0A43E00C0A35E0010A71
:1015300026E00B0A22E0020A20E0030A1CE0080A67
:1015400010E0010A0CE00F0A08E0030A01E03FD0B6
:101550000E019D8F080E826F3BD0C8D839D07FDB3B
:1015600037D00E01830E9B6F0E0E9C6F9D81010E76
:101570009E6F9D8F2DD014D92BD02BD829D04451BC
:101580000E019B6F9C6B840E9B270E0E9C239D81EE
:10159000010E9E6F9D8F1CD00E019D8F0401445142
:1015A000EA6A840FE96E0E0EEA2242C4EFFF10D001
:1015B000000EE66EE66AE66EE66A020EE66EE66A21
:1015C000ACEC03F0106E060EE15E105001D000D0BE
:1015D0001200D9CFE6FFE1CFD9FF040EE1260401C6
:1015E000420510E140511F0B00090CE10E019D8FD7
:1015F000030E0401415D04E10E01010EA96F02D04A
:101600000E01A96B0401425167E140511F0B020812
:1016100063E144510F0B00095FE00E019D8F04014F
:1016200044BF10D044510F0BE96EEA6AD890E936F6
:10163000EA36890EE9260E0EEA22EECFDEFFEDCF66
:10164000DDFF0FD044510F0BE96EEA6AD890E936FE
:10165000EA36910EE9260E0EEA22EECFDEFFEDCF3E
:10166000DDFF030E415D07E1DECFE9FFDDCFEAFFDD
:10167000840EEF6E31D044510F0B116A260F106E9D
:101680000F0E1122020E10C0DBFF030E11C0DBFF94
:10169000020EDBCFE9FF030EDBCFEAFFEE90ED5247
:1016A00044AF0DD0DECFE9FFDDCFEAFFEF6ADF7494
:1016B000DECFE9FFDDCFEAFF400EEF6E0DD0DECFCB
:1016C000E9FFDDCFEAFF880EEF6EDF74DECFE9FFC2
:1016D000DDCFEAFFC80EEF6E040EE15C02E2E16AC4
:1016E000E552E16EE552E7CFD9FF1200800E04010A
:1016F000405D55E10E01C00E9D6F04014351030A88
:101700002EE0010A0EE0030A03E00E019D6B47D0B4
:101710000E011C0E9B6F0E0E9C6F120E9E6F9F6B28
:101720003ED04251F66EF76AD890F636F736DD0EA7
:10173000F6260E0EF7220900F5CF9BFE0A00F5CF24
:101740009CFE020E0E01F76A9B25F66E9C51F72255
:101750000900F5CF9EFE0A00F5CF9FFE20D0030EB4
:10176000425D1AE24251F66EF76AD890F636F736C5
:10177000DF0EF6260E0EF7220900F5CF9BFE0A00BB
:10178000F5CF9CFE9BCEF6FF9CCEF7FF0800F550F0
:101790000E019E6F9F6B02D00E019D6B00D0120058
:1017A000D9CFE6FFE1CFD9FF020EE1260401486B55
:1017B000496B40511F0B020A12E0030A0DE0010AB7
:1017C00001E03BD00E019D8F040148810E01A90567
:1017D00002E10401488331D00E019D8F2ED00E010D
:1017E0009D8F040144BF10D044510F0BE96EEA6A8B
:1017F000D890E936EA36890EE9260E0EEA22EECFB7
:10180000DEFFEDCFDDFF0FD044510F0BE96EEA6A2A
:10181000D890E936EA36910EE9260E0EEA22EECF8E
:10182000DEFFEDCFDDFFDECFE9FFDDCFEAFFEF50DA
:10183000040B02E0010E486F00D00E019DAF07D0EF
:10184000480E9B6F040E9C6F9D81020E9E6F020ED0
:10185000E15C02E2E16AE552E16EE552E7CFD9FFD1
:10186000120065980E019DBF4AD0A2AF28D0020E8B
:101870009A6F91CEE9FF92CEEAFFEE52EF6A91CED7
:10188000E9FF92CEEAFFC80EEF6E87CEE9FF88CE61
:10189000EAFFEE52080EEF6E87CEE9FF88CEEAFF30
:1018A000020EE926000EEA22480EEE6E040EED6EE0
:1018B00087CEE9FF88CEEAFFC80EEF6E1FD087CE35
:1018C000E9FF88CEEAFFEE52080EEF6E87CEE9FF01
:1018D00088CEEAFF020EE926000EEA22400EEE6EE6
:1018E000040EED6E87CEE9FF88CEEAFF8C0EEF6E18
:1018F00091CEE9FF92CEEAFF840EEF6E86D0A2BFB2
:1019000084D0040140AF59D00E019E510401465DC0
:101910000E019F510401475904E246C49EFE47C48C
:101920009FFE74D80E01010E9A6F87CEE9FF88CE14
:10193000EAFFEE52080EEF6E87CEE9FF88CEEAFF8F
:10194000020EE926000EEA22400EEE6E040EED6E47
:1019500087CEE9FF88CEEAFF800EEF6EAB6B85CEB7
:10196000E9FF86CEEAFFEE52080EEF6E85CEE9FF64
:1019700086CEEAFF020EE926000EEA22400EEE6E47
:10198000040EED6E85CEE9FF86CEEAFF840EEF6E83
:10199000010EAB6F91CEE9FF92CEEAFF020EE9266F
:1019A000000EEA22480EEE6E040EED6E91CEE9FFB7
:1019B00092CEEAFFC80EEF6E28D00E01020E9A6F8B
:1019C00091CEE9FF92CEEAFFEE52EF6A91CEE9FFA7
:1019D00092CEEAFFC80EEF6E87CEE9FF88CEEAFF0F
:1019E000EE52080EEF6E87CEE9FF88CEEAFF020EB8
:1019F000E926000EEA22480EEE6E040EED6E87CE4A
:101A0000E9FF88CEEAFFC80EEF6E1200D9CFE6FFDD
:101A1000E1CFD9FF020EE1260E01080E9E5D000EF9
:101A20009F590EE29ECEDEFF9FCEDDFF995103E16E
:101A3000010E996F04D0990502E1020E996F03D04F
:101A4000080EDE6EDD6A91CEE9FF92CEEAFFEF92DC
:101A500091CEE9FF92CEEAFFEF9091CEE9FF92CED0
:101A6000EAFF010EDB50EF1291CEE9FF92CEEAFFC2
:101A7000EE52DFCFEFFF000EDB509E5F010EDB501A
:101A80009F5B480EA76F040EA86F9DB121D0D9CFE0
:101A9000E9FFDACFEAFFEE50ED1019E09BCEF6FF3A
:101AA0009CCEF7FF9B2B000E9C230800F550E66EA2
:101AB000A7CEE9FFA8CEEAFFA72B000EA823E55288
:101AC000E750EF6EDF06010E01E2DB06E0D71FD024
:101AD000D9CFE9FFDACFEAFFEE50ED1018E09BCE48
:101AE000E9FF9CCEEAFF9B2B000E9C23EF50E66E95
:101AF000A7CEE9FFA8CEEAFFA72B000EA823E55248
:101B0000E750EF6EDF06010E01E2DB06E1D7020EC1
:101B1000E15C02E2E16AE552E16EE552E7CFD9FF0E
:101B20001200D9CFE6FFE1CFD9FF020EE12685CE24
:101B3000E9FF86CEEAFFEE52EFCFDFFFDFCF10F0F6
:101B400010500E01A35D000EA45903E2A3CEDFFFE7
:101B500009D0DF50106E116A1050A35DA36F1150B1
:101B6000A459A46F010EDB6ADF50F36E010EDBCFC8
:101B7000F4FFF350F45C16E2010EDB50EA6A480F02
:101B8000E96E040EEA22EF50E66EA0CEE9FFA1CE88
:101B9000EAFFA02B000EA123E552E750EF6E010EE5
:101BA000DB2AE2D7000ED880A355000EA45528E208
:101BB00087CEE9FF88CEEAFFEE52080EEF6E87CEA1
:101BC000E9FF88CEEAFF020EE926000EEA22480E5F
:101BD000EE6E040EED6E85CEE9FF86CEEAFFEF5085
:101BE000400B07E187CEE9FF88CEEAFFC80EEF6E13
:101BF00006D087CEE9FF88CEEAFF880EEF6E25D0AB
:101C000087CEE9FF88CEEAFFEE52080EEF6E87CE50
:101C1000E9FF88CEEAFF020EE926000EEA22400E16
:101C2000EE6E040EED6E87CEE9FF88CEEAFF840EDD
:101C3000EF6EA551A61107E005D0A6CEFAFF0E0162
:101C4000A551F96EFADF0E01A29F020EE15C02E2DD
:101C5000E16AE552E16EE552E7CFD9FF12000E01CD
:101C60009D8F020EE66EE66AE66A270EE66E0F0E9E
:101C7000E66EE6EC07F0106E050EE15E1050010E08
:101C8000E66EE66AE66A840EE66E0E0EE66EE6EC38
:101C900007F0106E050EE15E105042C483FE0E0187
:101CA000835103E1100E826F12D0200E826F010E5D
:101CB000E66EE66A830EE66E0E0EE66E010EE66EC8
:101CC000E66AACEC03F0106E060EE15E10501200F6
:101CD000D9CFE6FFE1CFD9FF020EE126000EDE6E7E
:101CE000040EDD6EFD0EDB50E824126EFE0EDB509E
:101CF000040DF3501224040DF350106E116A020EFD
:101D00000F0B05E0D89011321032E806FBE1D890B5
:101D100010361136D89010361136D9CFE9FFDACF08
:101D2000EAFF1050EE261150ED22DECFE9FFDDCFA5
:101D3000EAFFEF9EFD0EDB500FE1FE0EEA6ADB3498
:101D4000FE0BEA36E96E890EE9260E0EEA22DECF98
:101D5000EEFFDDCFEDFF0ED0FE0EEA6ADB34FE0BA8
:101D6000EA36E96E910EE9260E0EEA22DECFEEFF8C
:101D7000DDCFEDFFDECFE9FFDDCFEAFFEF9CDECF69
:101D8000E9FFDDCFEAFF040EE926000EEA22EF8C20
:101D9000020EE15C02E2E16AE552E16EE552E7CF54
:101DA000D9FF1200D9CFE6FFE1CFD9FF020EE1261D
:101DB000FE0EDB50116A260F106E0F0E112210C09E
:101DC000DEFF11C0DDFFDECFE9FFDDCFEAFFFD0E54
:101DD000DBCFEFFFDBA407D0E66AFE0EDBCFE6FF2A
:101DE00077DFE552E552FD0EDBA208D0010EE66E6C
:101DF000FE0EDBCFE6FF6CDFE552E552020EE15C42
:101E000002E2E16AE552E16EE552E7CFD9FF120046
:101E1000D9CFE6FFE1CFD9FF020EE126FE0EDB505F
:101E200020E187CEE9FF88CEEAFFEE52080EEF6E82
:101E300087CEE9FF88CEEAFF020EE926000EEA22ED
:101E4000400EEE6E040EED6E87CEE9FF88CEEAFFFF
:101E50008C0EEF6E91CEE9FF92CEEAFF840EEF6E0C
:101E60003DD0FD0EDB50E824126EFE0EDB50040D5B
:101E7000F3501224040DF3CF10F0F4CF11F0000E44
:101E80001026040E112210C0DEFF11C0DDFF840EEB
:101E9000106EDECFE9FFDDCFEAFF1050EF12FD0E2E
:101EA000DB50E824126EFE0EDB50040DF3501224BA
:101EB000010F040DF3CF10F0F4CF11F0000E102637
:101EC000040E112210C0DEFF11C0DDFF840E106E63
:101ED000DECFE9FFDDCFEAFF1050EF12020EE15C2A
:101EE00002E2E16AE552E16EE552E7CFD9FF120066
:101EF000D9CFE6FFE1CFD9FF020EE126FD0EDB5080
:101F00000FE0FE0EEA6ADB34FE0BEA36E96E910E54
:101F1000E9260E0EEA22EECFDEFFEDCFDDFF0ED07A
:101F2000FE0EEA6ADB34FE0BEA36E96E890EE9261C
:101F30000E0EEA22EECFDEFFEDCFDDFFDECFE9FFB2
:101F4000DDCFEAFF020EE926000EEA22FB0EDBCF10
:101F5000EEFFFC0EDBCFEDFFDECFE9FFDDCFEAFFCA
:101F6000EE52FA0EDBCFEFFF400E106EDECFE9FF30
:101F7000DDCFEAFF1050EF16880E106EDECFE9FFBE
:101F8000DDCFEAFF1050EF12FD0EDB500CE0FE0E2D
:101F9000EA6ADB34FE0BEA36E96E910EE9260E0E94
:101FA000EA22EF740BD0FE0EEA6ADB34FE0BEA364F
:101FB000E96E890EE9260E0EEA22EF74DECF10F0EC
:101FC000DDCF11F010C0F3FF11C0F4FF020EE15C91
:101FD00003E200D0E16AE552E16EE552E7CFD9FFB6
:101FE0001200D9CFE6FFE1CFD9FF65A84ED0FE0E93
:101FF000EA6ADB34FE0BEA36E96E910EE9260E0E34
:10200000EA22EE50EFCFEAFFE96E400EEE16EE6ADE
:10201000EE6AEE6AFE0EEA6ADB34FE0BEA36E96E21
:10202000910EE9260E0EEA22EE50EFCFEAFFE96E9E
:10203000EE7CFE0EEA6ADB34FE0BEA36E96E910EA8
:10204000E9260E0EEA22EF74400E106EFE0EEA6ACA
:10205000DB34FE0BEA36E96E910EE9260E0EEA221B
:10206000EE50EFCFEAFFE96E1050EF16FE0EEA6A6F
:10207000DB34FE0BEA36E96E910EE9260E0EEA22FB
:10208000EE50EFCFEAFFE96EEF7CE552E7CFD9FFE4
:10209000120006D0656A0F01366B0E01826B00D00C
:1020A00012000E01825114E1656A0F01366B160EA3
:1020B000396F9F0E376F7B0E366FD08EA288A08847
:1020C000F28E65B602D06586FCD70E01010E826FD6
:0220D0001200FC
:0E20D200C00EF36E00EE00F00E0E01D81200EC
:1020E000EA6002D0EE6AFCD7F350E9601200EE6AB3
:0220F000FCD71B
:0E20F2001DEE00F02DEE00F0F86A0F9C73EC6E
:0E21000007F003EC08F0AFEC02F0FBD7120082
:02210E00368415
:1021100004040CC17D6414775F1338080100A338F0
:0E212000380700007A7A6C31B0004000FE00F3
:01FFF800AC5C
:01FFF900F710
:01FFFA001AEC
:01FFFB00FF06
:01FFFC0063A1
:01FFFD00F80B
:01FFFE008181
:01FFFF00F110
:00000001FF
