:020000040000FA
:06000000C6EF25F012001E
:060008000CEF1EF01200D7
:0600180023EF1FF01200AF
:06080000C6EF25F0120016
:06082A000300F24B000088
:100830006000000082000000EA4B0000240200007B
:1008400008000000AA4B0000B201000040000000B8
:10085000D9CFE6FFE1CFD9FFFE0EEA6ADB34FE0B0B
:10086000EA36E96E580EE926010EEA22EECF14F0C0
:10087000EFCF15F014C0F3FF15C0F4FFE552E7CF3A
:10088000D9FF1200D9CFE6FFE1CFD9FFFE0EEA6A09
:10089000DB34FE0BEA36E96E500EE926010EEA2241
:1008A000EECF14F0EFCF15F014C0F3FF15C0F4FF36
:1008B000E552E7CFD9FF1200D9CFE6FFE1CFD9FF4C
:1008C000FE0EEA6ADB34FE0BEA36E96E600EE926BC
:1008D000010EEA22EECF14F0EFCF15F014C0F3FFB3
:1008E00015C0F4FFE552E7CFD9FF1200D9CFE6FFDC
:1008F000E1CFD9FFFE0EDB50150DF3CFE9FFF4CFAA
:10090000EAFF000EE926010EEA22060EE926000E95
:10091000EA22EECF14F0EFCF15F014C0F3FF15C0AC
:10092000F4FFE552E7CFD9FF120047C1F3FF48C1FA
:10093000F4FF120041C1F3FF42C1F4FF12003DC1B8
:10094000F3FF3EC1F4FF120030C1F3FF31C1F4FFE9
:10095000120001014B511200D9CFE6FFE1CFD9FFC0
:10096000FE0EDB50150DF3CFE9FFF4CFEAFF000ECA
:10097000E926010EEA22130EE926000EEA22EF50C4
:10098000E552E7CFD9FF1200D9CFE6FFE1CFD9FF7B
:10099000FE0EDB50150DF3CFE9FFF4CFEAFF000E9A
:1009A000E926010EEA22100EE926000EEA22EF5097
:1009B000E552E7CFD9FF1200D9CFE6FFE1CFD9FF4B
:1009C000FE0EDB50150DF3CFE9FFF4CFEAFF000E6A
:1009D000E926010EEA22120EE926000EEA22EF5065
:1009E000E552E7CFD9FF120001012E513B272F51CD
:1009F0003C232A513F272B5140232C5143272D5173
:100A00004423000E4523462300514C2701514D231A
:100A100015514E2716514F23025154270351552388
:100A2000175156271851572304515C2705515D2350
:100A300019515E271A515F233651146E156A1450EE
:100A4000492715504A236407645101E09FD03BC1F8
:100A50003DF13CC13EF1500E0D6E0E6A3BC108F0F7
:100A60003CC109F08DEC25F008C03DF109C03EF114
:100A70003FC141F140C142F1030E0F0B010105E0FE
:100A8000D89042334133E806FBE143C106F044C14C
:100A900007F045C108F046C109F0500E0B6E0C6A14
:100AA0000D6A0E6A29EC25F006C047F107C048F12F
:100AB0004CC150F14DC151F1030E0F0B010105E086
:100AC000D89051335033E806FBE14EC152F14FC18B
:100AD00053F1030E0F0B010105E0D890533352334D
:100AE000E806FBE154C158F155C159F1500E0D6EA5
:100AF0000E6A54C108F055C109F08DEC25F008C00C
:100B000058F109C059F156C15AF157C15BF1500E65
:100B10000D6E0E6A56C108F057C109F08DEC25F034
:100B200008C05AF109C05BF15CC160F15DC161F1BF
:100B3000500E0D6E0E6A5CC108F05DC109F08DECBF
:100B400025F008C060F109C061F15EC162F15FC1CA
:100B500063F1500E0D6E0E6A5EC108F05FC109F0C0
:100B60008DEC25F008C062F109C063F1080E146E27
:100B7000156A49C108F04AC109F00D6E15C00EF0A2
:100B80008DEC25F008C04BF12BEC0DF012000101AB
:100B90003A5102E0106B256B1051146E156AD89013
:100BA00014361536D8901436153614C0E6FF15C025
:100BB000E6FFCBEC24F0E552E55201012551146E1D
:100BC000156AD89014361536D8901436153614C0D8
:100BD000E6FF15C0E6FFFAEC24F0E552E5521200FC
:100BE0000101010E3A6FC7EF05F002C165F103C1C3
:100BF00066F10101676B686B00C114F001C115F06B
:100C0000166A176A650EE96E010EEA6E00C10BF0F6
:100C100001C10CF016C00DF017C00EF0EECF06F0BB
:100C2000EECF07F0EECF08F0EFCF09F060EC24F044
:100C300005C0EDFF04C0EDFF03C0EDFF02C0EFFFF4
:100C4000E80E0B6E030E0C6E0D6A0E6A65C106F09F
:100C500066C107F067C108F068C109F029EC25F00A
:100C600006C065F107C066F108C067F109C068F108
:100C700006C004F107C005F117C165F118C166F19E
:100C80000101676B686B15C114F016C115F0166A87
:100C9000176A650EE96E010EEA6E15C10BF016C1FA
:100CA0000CF016C00DF017C00EF0EECF06F0EECF30
:100CB00007F0EECF08F0EFCF09F060EC24F005C0AC
:100CC000EDFF04C0EDFF03C0EDFF02C0EFFFE80E33
:100CD0000B6E030E0C6E0D6A0E6A65C106F066C1DE
:100CE00007F067C108F068C109F029EC25F006C0DB
:100CF00065F107C066F108C067F109C068F106C078
:100D000019F107C01AF12CC165F12DC166F101017D
:100D1000676B686B2AC114F02BC115F0166A176A4D
:100D2000650EE96E010EEA6E2AC10BF02BC10CF0C4
:100D300016C00DF017C00EF0EECF06F0EECF07F0A4
:100D4000EECF08F0EFCF09F060EC24F005C0EDFF26
:100D500004C0EDFF03C0EDFF02C0EFFFE80E0B6E15
:100D6000030E0C6E0D6A0E6A65C106F066C107F0CF
:100D700067C108F068C109F029EC25F006C065F1EB
:100D800007C066F108C067F109C068F106C02EF11E
:100D900007C02FF101012A512B1115E02CC108F0D9
:100DA0002DC109F02AC10DF02BC10EF08DEC25F0FC
:100DB00008C069F109C06AF10101FF0ED88008542A
:100DC000000E095402E269696A6B69C136F11200CA
:100DD00001010451082705510923000E0A230B23A2
:100DE000D00E085DDD0E0959060E0A59000E0B598A
:100DF0000FE3D00E085FDD0E095B060E0A5B000EE6
:100E00000B5B062B07230101942B95239623972335
:100E1000010119511D271A511E23000E1F232023E3
:100E2000D00E1D5DDD0E1E59060E1F59000E2059F5
:100E30000FE3D00E1D5FDD0E1E5B060E1F5B000E66
:100E4000205B1B2B1C230101982B99239A239B23A6
:100E500001012E5132272F513323000E3423352325
:100E6000D00E325DDD0E3359060E3459000E355961
:100E70000FE3D00E325FDD0E335B060E345B000EE7
:100E8000355B302B312301019C2B9D239E239F2317
:100E900012000101A00ED88002550F0E035502E288
:100EA0000101A0890101A00ED88017550F0E185519
:100EB00002E20101A08B0101E80ED8800055030E6B
:100EC000015502E20101A0850101E80ED880155507
:100ED000030E165502E20101A087110E0101365DD5
:100EE00002E20101A08D120001018751010A01E116
:100EF00090D0010A3EE001016D51150DF3CFE9FFDD
:100F0000F4CFEAFF000EE926010EEA22040EE926DC
:100F1000000EEA22EECF14F0EFCF15F06D51150D53
:100F2000F3CFE9FFF4CFEAFF000EE926010EEA2233
:100F30000C0EE926000EEA22EECF16F0EFCF17F0E6
:100F40001650145C1750155801E3EAD06D51150D79
:100F5000F3CFE9FFF4CFEAFF000EE926010EEA2203
:100F6000120EE926000EEA22EF5001E1C6D0000E73
:100F7000C5D001016D51150DF3CFE9FFF4CFEAFFA4
:100F8000000EE926010EEA22040EE926000EEA22EE
:100F9000EECF14F0EFCF15F06D51150DF3CFE9FF43
:100FA000F4CFEAFF000EE926010EEA220C0EE92634
:100FB000000EEA22EECF16F0EFCF17F01650145CB9
:100FC0001750155801E3ACD06D51150DF3CFE9FF63
:100FD000F4CFEAFF000EE926010EEA22120EE926FE
:100FE000000EEA22EF5002E0000E01D0010EE66E84
:100FF0006D51150DF3CFE9FFF4CFEAFF000EE9269E
:10100000010EEA22120EE926000EEA22E552E7500E
:1010100072D001016D51150DF3CFE9FFF4CFEAFF56
:10102000000EE926010EEA22040EE926000EEA224D
:10103000EECF14F0EFCF15F06D51150DF3CFE9FFA2
:10104000F4CFEAFF000EE926010EEA220C0EE92693
:10105000000EEA22EECF16F0EFCF17F01650145C18
:101060001750155839E26D51150DF3CFE9FFF4CF44
:10107000EAFF000EE926010EEA22020EE926000E22
:10108000EA22EECF14F0EFCF15F06D51150DF3CF2E
:10109000E9FFF4CFEAFF000EE926010EEA220E0E68
:1010A000E926000EEA22EECF16F0EFCF17F0165029
:1010B000145C1750155810E26D51150DF3CFE9FF70
:1010C000F4CFEAFF000EE926010EEA22120EE9260D
:1010D000000EEA22EF6A12006D51150DF3CFE9FF01
:1010E000F4CFEAFF000EE926010EEA22120EE926ED
:1010F000000EEA22010EEF6E1200010EE66E6D5137
:10110000150DF3CFE9FFF4CFEAFF000EE926010E3B
:10111000EA22120EE926000EEA22E552E750EF6EAF
:1011200012000101915101016B6F6C6B640E6C0335
:10113000F3CF6CF16B03F3CF6BF1F4506C272C51B0
:10114000F35C2D516C5903E33651640801E248DD2C
:1011500001013A5107E03A6B3E0E116F266F020E05
:10116000136F286F0101865101016B6F6C6BE66A8A
:10117000FAEC20F0E55201016D6F010EE66EFAEC1B
:1011800020F0E552146E01016D51D880145407E22D
:10119000010EE66EFAEC20F0E55201016D6F050ECE
:1011A0000101852501016D5D04E3D8906C336B333B
:1011B00016D00101855101016D5D11E3030E6C0331
:1011C000F3CF6CF16B03F3CF6BF1F4506C27020E8D
:1011D0000F0B05E0D8906C336B33E806FBE101019F
:1011E0000A0E6C03F3CF6CF16B03F3CF6BF1F45089
:1011F0006C276D6B020E6D5D01E320D26D51150DF4
:10120000F3CFE9FFF4CFEAFF000EE926010EEA2250
:10121000130EE926000EEA22EF50020A01E1A6D1E0
:10122000030A01E186D0010A01E0DFD10101885102
:101230000101696F6A6B640E6A03F3CF6AF1690397
:10124000F3CF69F1F4506A276D51150DF3CFE9FF23
:10125000F4CFEAFF000EE926010EEA22020EE9268B
:10126000000EEA22EECF14F0EFCF15F01450695DB6
:1012700015506A5951E2640E365D4EE2010E6DC1A1
:10128000E7FFE75204E0E846FE0BE706FCE1010158
:10129000921542E001016D51150DF3CFE9FFF4CF36
:1012A000EAFF000EE926010EEA22130EE926000EDF
:1012B000EA22010EEF6E6D51150DF3CFE9FFF4CF69
:1012C000EAFF000EE926010EEA22100EE926000EC2
:1012D000EA2237C1EFFF6D51150DF3CFE9FFF4CFCF
:1012E000EAFF000EE926010EEA220C0EE926000EA6
:1012F000EA22EE6AED6A6D51150DF3CFE9FFF4CFE6
:10130000EAFF000EE926010EEA22120EE926000E7F
:10131000EA22010EEF6E6BD101016D51150DF3CF75
:10132000E9FFF4CFEAFF000EE926010EEA22100ED3
:1013300057D1010189510101696F6A6B640E6A031B
:10134000F3CF6AF16903F3CF69F1F4506A276D5165
:10135000150DF3CFE9FFF4CFEAFF000EE926010EE9
:10136000EA22020EE926000EEA22EECF14F0EFCFB9
:1013700015F06951145C6A51155830E26D51150D24
:10138000F3CFE9FFF4CFEAFF000EE926010EEA22CF
:10139000130EE926000EEA22020EEF6E6D51150DB6
:1013A000F3CFE9FFF4CFEAFF000EE926010EEA22AF
:1013B000110EE926000EEA223E0EEF6E6D51150D5C
:1013C000F3CFE9FFF4CFEAFF000EE926010EEA228F
:1013D000100EE926000EEA22EF6AA3D06D51150D1A
:1013E000F3CFE9FFF4CFEAFF000EE926010EEA226F
:1013F000040EE926000EEA22EECF14F0EFCF15F02E
:1014000014506B5D15506C5910E26D51150DF3CFF2
:10141000E9FFF4CFEAFF000EE926010EEA22120EE0
:10142000E926000EEA22EF6A01D05EDD01016D516E
:10143000150DF3CFE9FFF4CFEAFF000EE926010E08
:10144000EA22120EE926000EEA22EF5035E06D5135
:10145000150DF3CFE9FFF4CFEAFF000EE926010EE8
:10146000EA22100EE926000EEA223851EF266D51CD
:10147000150DF3CFE9FFF4CFEAFF000EE926010EC8
:10148000EA22100EE926000EEA22EFCF14F03951BD
:10149000D880145446E26D51150DF3CFE9FFF4CF17
:1014A000EAFF000EE926010EEA22100EE926000EE0
:1014B000EA2239C1EFFF35D06D51150DF3CFE9FFA9
:1014C000F4CFEAFF000EE926010EEA22100EE9260B
:1014D000000EEA22EFCF14F03751D880145411E2F5
:1014E0006D51150DF3CFE9FFF4CFEAFF000EE926A9
:1014F000010EEA22100EE926000EEA223851EF5EB4
:1015000010D06D51150DF3CFE9FFF4CFEAFF000EB7
:10151000E926010EEA22100EE926000EEA2237C162
:10152000EFFF6D51150DF3CFE9FFF4CFEAFF000E89
:10153000E926010EEA22040EE926000EEA22EECF89
:1015400014F0EFCF15F06D51150DF3CFE9FFF4CF87
:10155000EAFF000EE926010EEA220C0EE926000E33
:10156000EA2214C0EEFF15C0EDFF41D06D51150DFC
:10157000F3CFE9FFF4CFEAFF000EE926010EEA22DD
:10158000100EE926000EEA22EF6A6D51150DF3CF19
:10159000E9FFF4CFEAFF000EE926010EEA22110E60
:1015A000E926000EEA22EF5010E06D51150DF3CF41
:1015B000E9FFF4CFEAFF000EE926010EEA22110E40
:1015C000E926000EEA22EF0612D06D51150DF3CF79
:1015D000E9FFF4CFEAFF000EE926010EEA22130E1E
:1015E000E926000EEA22EF6A02D0F0EC05F00101D4
:1015F0006D51150DF3CFE9FFF4CFEAFF000EE92698
:10160000010EEA22020EE926000EEA22EECF14F0C5
:10161000EFCF15F06D51150DF3CFE9FFF4CFEAFFD1
:10162000000EE926010EEA220E0EE926000EEA223D
:1016300014C0EEFF15C0EDFF6D2BDCD5130507E0E0
:10164000280505E0020EE66EBCEC23F004D0020E85
:10165000E66EC8EC23F0E5521200030EE66ED0EC05
:101660001DF0E552F3CF65F1F4CF66F10101676B30
:10167000686B71C114F072C115F0166A176A650EB5
:10168000E96E010EEA6E71C10BF072C10CF016C06A
:101690000DF017C00EF0EECF06F0EECF07F0EECF54
:1016A00008F0EFCF09F060EC24F005C0EDFF04C0B6
:1016B000EDFF03C0EDFF02C0EFFF0B68030E0C6EE1
:1016C0000D6A0E6A65C106F066C107F067C108F0D1
:1016D00068C109F029EC25F006C065F107C066F184
:1016E00008C067F109C068F106C002F107C003F144
:1016F000020EE66ED0EC1DF0E552F3CF65F1F4CFAB
:1017000066F10101676B686B73C114F074C115F069
:10171000166A176A650EE96E010EEA6E73C10BF068
:1017200074C10CF016C00DF017C00EF0EECF06F02D
:10173000EECF07F0EECF08F0EFCF09F060EC24F029
:1017400005C0EDFF04C0EDFF03C0EDFF02C0EFFFD9
:101750000B68030E0C6E0D6A0E6A65C106F066C159
:1017600007F067C108F068C109F029EC25F006C050
:1017700065F107C066F108C067F109C068F106C0ED
:1017800017F107C018F1010EE66ED0EC1DF0E5521E
:10179000F3CF69F1F4CF6AF101017D5101016B6F63
:1017A0006C6BF3506B5DF4506C5905E26B51695FE3
:1017B0006C516A5B02D0696B6A6B69C165F16AC181
:1017C00066F1676B686B77C114F078C115F0166A23
:1017D000176A650EE96E010EEA6E77C10BF078C1EB
:1017E0000CF016C00DF017C00EF0EECF06F0EECFE5
:1017F00007F0EECF08F0EFCF09F060EC24F005C061
:10180000EDFF04C0EDFF03C0EDFF02C0EFFF0B686A
:10181000030E0C6E0D6A0E6A65C106F066C107F014
:1018200067C108F068C109F029EC25F006C065F130
:1018300007C066F108C067F109C068F106C000F191
:1018400007C001F1E66AD0EC1DF0E552F3CF69F173
:10185000F4CF6AF101017E5101016B6F6C6BF350A3
:101860006B5DF4506C5905E26B51695F6C516A5BBA
:1018700002D0696B6A6B69C165F16AC166F1676B19
:10188000686B79C114F07AC115F0166A176A650E93
:10189000E96E010EEA6E79C10BF07AC10CF016C048
:1018A0000DF017C00EF0EECF06F0EECF07F0EECF42
:1018B00008F0EFCF09F060EC24F005C0EDFF04C0A4
:1018C000EDFF03C0EDFF02C0EFFF0B68030E0C6ECF
:1018D0000D6A0E6A65C106F066C107F067C108F0BF
:1018E00068C109F029EC25F006C065F107C066F172
:1018F00008C067F109C068F106C015F107C016F10C
:10190000070EE66ED0EC1DF0E552F3CF65F1F4CF93
:1019100066F10101676B686B75C114F076C115F053
:10192000166A176A650EE96E010EEA6E75C10BF054
:1019300076C10CF016C00DF017C00EF0EECF06F019
:10194000EECF07F0EECF08F0EFCF09F060EC24F017
:1019500005C0EDFF04C0EDFF03C0EDFF02C0EFFFC7
:101960000B68030E0C6E0D6A0E6A65C106F066C147
:1019700007F067C108F068C109F029EC25F006C03E
:1019800065F107C066F108C067F109C068F106C0DB
:101990002CF107C02DF1060EE66ED0EC1DF0E552DD
:1019A000F3CF69F1F4CF6AF101017F5101016B6F4F
:1019B0006C6BF3506B5DF4506C5905E26B51695FD1
:1019C0006C516A5B02D0696B6A6B69C165F16AC16F
:1019D00066F1676B686B7BC114F07CC115F0166A09
:1019E000176A650EE96E010EEA6E7BC10BF07CC1D1
:1019F0000CF016C00DF017C00EF0EECF06F0EECFD3
:101A000007F0EECF08F0EFCF09F060EC24F005C04E
:101A1000EDFF04C0EDFF03C0EDFF02C0EFFF0B6858
:101A2000030E0C6E0D6A0E6A65C106F066C107F002
:101A300067C108F068C109F029EC25F006C065F11E
:101A400007C066F108C067F109C068F106C02AF155
:101A500007C02BF112000101080E646F3B6B3C6B59
:101A60003F6B406B436B446B456B466B4C6B4D6BF4
:101A70004E6B4F6B546B556B566B576B5C6B5D6B62
:101A80005E6B5F6B496B4A6B01018A510101696FA3
:101A90006A6B01018D51146E156A8DC10DF015C070
:101AA0000EF08AC108F06AC109F06FEC25F006C09B
:101AB00069F107C06AF10101030E6A03F3CF6AF10D
:101AC0006903F3CF69F1F4506A27FA0E0D6E0E6ABE
:101AD000F3CF08F06AC109F08DEC25F008C069F178
:101AE0000101010E085C000E095803E2010E696F46
:101AF0006A6B69C137F101018C510101696F6A6B31
:101B000001018D51146E156A8DC10DF015C00EF0D6
:101B10008CC108F06AC109F06FEC25F006C069F1CC
:101B200007C06AF10101030E6A03F3CF6AF169038A
:101B3000F3CF69F1F4506A27FA0E0D6E0E6AF3CFF7
:101B400008F06AC109F08DEC25F008C069F109C000
:101B50006AF10101010E085C000E095803E2010E52
:101B6000696F6A6B69C138F101018B510101696FBD
:101B70006A6B01018D51146E156A8DC10DF015C08F
:101B80000EF08BC108F06AC109F06FEC25F006C0B9
:101B900069F107C06AF10101030E6A03F3CF6AF12C
:101BA0006903F3CF69F1F4506A27FA0E0D6E0E6ADD
:101BB000F3CF08F06AC109F08DEC25F008C069F197
:101BC00009C06AF10101010E085C000E095803E228
:101BD000010E696F6A6B69C139F112000101106B66
:101BE000256B136B286B0C6B0D6B216B226B0E6BD3
:101BF0000F6B236B246B066B076B1B6B1C6B086BEB
:101C0000096B0A6B0B6B1D6B1E6B1F6B206B146BD0
:101C1000296B126B276B306B316B326B336B346B10
:101C2000356B36693A6B17DF01013D6B3E6B416BDB
:101C3000426B476B486B506B516B526B536B586BDD
:101C4000596B5A6B5B6B606B616B626B636B4B695F
:101C50001200D9CFE6FFE1CFD9FFE652DF6A020ECC
:101C6000DF5C01E396D0DF50150DF3CFE9FFF4CF31
:101C7000EAFF000EE926010EEA22130EE926000E05
:101C8000EA22EF0474E1DF50150DF3CFE9FFF4CF42
:101C9000EAFF000EE926010EEA22040EE926000EF4
:101CA000EA22640ED880EE54000EED5460E2DF505C
:101CB000150DF3CFE9FFF4CFEAFF000EE926010E80
:101CC000EA22140EE926000EEA22EF500FE0DF5060
:101CD000150DF3CFE9FFF4CFEAFF000EE926010E60
:101CE000EA22140EE926000EEA22EF06DF50150D57
:101CF000F3CFE9FFF4CFEAFF000EE926010EEA2256
:101D0000140EE926000EEA22EF5041E1DF50150DD6
:101D1000F3CFE9FFF4CFEAFF000EE926010EEA2235
:101D2000040EE926000EEA22EECF14F0EFCF15F0F4
:101D30004C0E086E1D0E096E14C00DF015C00EF08D
:101D40008DEC25F008C069F109C06AF1DF50150D6E
:101D5000F3CFE9FFF4CFEAFF000EE926010EEA22F5
:101D6000140EE926000EEA2208C0EFFF10D0DF5063
:101D7000150DF3CFE9FFF4CFEAFF000EE926010EBF
:101D8000EA22140EE926000EEA22020EEF6EDF2A86
:101D900066D7020E146E01012951D880145402E254
:101DA0008B8C01D08B9C020E146E1451D88014546D
:101DB00002E28B8E01D08B9EE552E552E7CFD9FF30
:101DC00012004BDCF5EC05F091EC08F0C7EC05F0E7
:0E1DD000E8EC06F049EC07F03CDFF4EF04F01D
:021DDE00020100
:101DE0002D6B2E6B2C6B31912F6B306B120004D846
:101DF000CAEC16F06EEF0FF0D9CFE6FFE1CFD9FFB6
:101E0000E652E66AF0EC22F0E552DF6EDFA017D072
:101E1000020131A105D0010E2F6FB40E2E6F0FD02D
:101E20002C2B050E2C5D0AE0240EE76E2C19E8AE73
:101E300002D0E73402D0E7502C5D01E32C6B010E99
:101E4000E66EF0EC22F0E552DF6E020131A110D017
:101E5000DFB43183010EDF142EE0010E146E315118
:101E6000020B01E0010E145C26E1010E306F10D070
:101E7000020EDF1410E0040EE76E2C19E8AE02D05B
:101E80002C3503D0E750D8802C5505E231813193B1
:101E9000B40E2E6F10D0010EDF140DE0040EE76EAD
:101EA0002C19E8AE02D02C3503D0E750D8802C5541
:101EB00002E3050E2C6F2E5106E02E07010EE66E92
:101EC000C8EC23F005D03191010EE66EBCEC23F096
:101ED000E552E552E552E7CFD9FF1200D9CFE6FF30
:101EE000E1CFD9FF040EE126ECEC1BF0020131A199
:101EF00008D02D2B2DA705D002013C0E006F3E0E01
:101F0000016F040E0201E76E2C19E8AE02D02C35E9
:101F100003D0E750D8802C550DE20201530E066F16
:101F2000450E076F540E086FE66A17EC1BF0E5527A
:101F3000ECEC1BF002012C51230A02E192EF16F0A7
:101F4000010A02E170EF16F0030A02E15BEF16F0FE
:101F5000010A02E144EF16F03E0A02E123EF16F017
:101F6000010A02E10DEF16F0020A02E1E5EF15F0B9
:101F7000010A02E1D4EF15F0070A02E1C4EF15F0FF
:101F8000010A02E1B5EF15F0030A02E197EF15F03F
:101F9000010A02E17EEF15F00F0A02E166EF15F08B
:101FA000010A02E153EF15F0030A02E144EF15F0D4
:101FB000010A02E135EF15F0070A02E126EF15F0FC
:101FC000010A02E1F3EF14F0030A02E1D7EF14F083
:101FD000010A02E1A6EF14F01F0A02E17AEF14F001
:101FE000010A02E14EEF14F0030A02E122EF14F0BD
:101FF000010A01E1FAD3070A01E1CCD3010A01E1A8
:10200000A1D3030A01E170D3010A01E143D30C0A11
:1020100001E1DAD2030A01E194D2010A01E176D2A8
:10202000030A01E158D2070A01E1B4D1010A01E132
:1020300026D1020A01E1A1D0010A02E0BBEF16F0AD
:102040000201500E006F560E016F096F410E0F6FA7
:10205000310E026F3A0E036F010EE66E040EE66E4D
:10206000E66A28EC04F0E552F3CF14F0F4CF15F053
:10207000F3CFE6FFF4CFE6FF050EE66E020EE66E46
:102080000DEC21F0166E060EE15E1650010EE66EA6
:10209000030EE66EE66A42EC04F0E552F3CF14F06C
:1020A000F4CF15F00A0E0D6E0E6AF3CF08F0F4CFE0
:1020B00009F08DEC25F008C014F009C015F008C037
:1020C000E6FF09C0E6FF0C0EE66E020EE66E0DECB2
:1020D00021F0166E060EE15E1650E66A17EC1BF054
:1020E000E552ECEC1BF00201320E026F500E006F55
:1020F000560E016F096F410E0F6F3A0E036F010EFE
:10210000E66E040EE66E010EE66E28EC04F0E55273
:10211000F3CF14F0F4CF15F0F3CFE6FFF4CFE6FFE2
:10212000050EE66E020EE66E0DEC21F0166E060E42
:10213000E15E1650010EE66E030EE66E010EE66ECF
:1021400042EC04F0E552F3CF14F0F4CF15F00A0E90
:102150000D6E0E6AF3CF08F0F4CF09F08DEC25F088
:1021600008C014F009C015F008C0E6FF09C0E6FF7A
:102170000C0EE66E020E1EEF15F00201500E006FFF
:10218000560E016F570E086F0E6F680E0F6F310EEF
:10219000026F3A0E036FE66A030EE66EE66A5CECC7
:1021A00004F0E552F3CF14F0F4CF15F0F3CFE6FFCF
:1021B000F4CFE6FF050EE66E020EE66E0DEC21F0A2
:1021C000166E060EE15E1650E66A040EE66EE66ACC
:1021D00076EC04F0E552F3CF14F0F4CF15F0F3CF22
:1021E000E6FFF4CFE6FF0A0EE66E020EE66E0DEC99
:1021F00021F0166E060EE15E1650E66A17EC1BF033
:10220000E552ECEC1BF00201320E026F500E006F33
:10221000560E016F570E086F0E6F680E0F6F3A0E55
:10222000036FE66A030EE66E010EE66E5CEC04F0E8
:10223000E552F3CF14F0F4CF15F0F3CFE6FFF4CF6F
:10224000E6FF050EE66E020EE66E0DEC21F0166E50
:10225000060EE15E1650E66A040EE66E010EE66EAC
:1022600076EC04F0E552F3CF14F0F4CF15F0F3CF91
:10227000E6FFF4CFE6FF0A0EE66E020EDFD30201A0
:102280004D0E006F500E016F026F540E036F310E32
:10229000046F3A0E056F250E0F6FE66A010EE66EAB
:1022A000E66AACEC04F0E552E66EE66A070EE66E0E
:1022B000020EE66E0DEC21F0146E060EE15E145077
:1022C000E66A010EE66EE66ADCEC04F0E552E66EC4
:1022D000E66A0A0EE66E020EE66E0DEC21F0146E52
:1022E000060EE15E1450E66A030EE66EE66AC4EC82
:1022F00004F0E552E66EE66A0C0EE66E020EE66E3D
:102300000DEC21F0146E060EE15E1450E66A17EC37
:102310001BF0E552ECEC1BF002014D0E006F500E6D
:10232000016F026F540E036F320E046F3A0E056F89
:10233000250E0F6FE66A010EE66EE66EACEC04F059
:10234000E552E66EE66A070EE66E020EE66E0DECEC
:1023500021F0146E060EE15E1450E66A010EE66E80
:10236000E66EDCEC04F0E552E66EE66A0A0EE66E16
:10237000020EE66E0DEC21F0146E060EE15E1450B6
:10238000E66A030EE66E010EE66EC4EC04F0E5525A
:102390001DEF16F002014F0E006F750E016F740EE7
:1023A000026F3A0E036F560E096F410E0F6F010E4A
:1023B000E66E050EE66E95EC04F0F3CF14F0F4CF64
:1023C00015F0F3CFE6FFF4CFE6FF040EE66E020E43
:1023D000E66E0DEC21F0166E060EE15E1650010E53
:1023E000E66E030EE66E9AEC04F0F3CF14F0F4CF31
:1023F00015F00A0E0D6E0E6AF3CF08F0F4CF09F057
:102400008DEC25F008C014F009C015F008C0E6FFF7
:1024100009C0E6FF0C0EE66E020EE66E0DEC21F032
:10242000166E060EE15E1650E66A17EC1BF0E552DA
:10243000ECEC1BF00201570E0E6F086F680E0F6F69
:10244000F40E036FE66A030EE66E9FEC04F0F3CF22
:1024500014F0F4CF15F0F3CFE6FFF4CFE6FF050E4E
:10246000E66E020EE66E0DEC21F0166E060EE15ED3
:102470001650E66A040EE66EA4EC04F0F3CF14F0F6
:10248000F4CF15F0F3CFE6FFF4CFE6FF0A0EE66EC9
:10249000020EE66E0DEC21F0166E060EE15E165091
:1024A000A9EC04F0146E156AFF0E141808E1000E72
:1024B000151805E102012D0E016FBBEF16F0E66A5B
:1024C000030EE66EA9EC04F0E66EE66A000EE66E18
:1024D000020EB4EF16F00201500E006F560E016F9F
:1024E000310E026F3A0E036F6B0E0D6F570E0E6FAB
:1024F000680E0F6F94C1DFFF010E95C1DBFF020E66
:1025000096C1DBFF030E97C1DBFF35D00201500EF1
:10251000006F560E016F320E026F3A0E036F6B0E94
:102520000D6F570E0E6F680E0F6F98C1DFFF010E13
:1025300099C1DBFF020E9AC1DBFF030E9BC1DBFFDB
:102540001AD002014F0E006F750E016F740E026FEC
:102550003A0E036F6B0E0D6F570E0E6F680E0F6FF6
:102560009CC1DFFF010E9DC1DBFF020E9EC1DBFFA0
:10257000030E9FC1DBFFD9CFE9FFDACFEAFF640E7C
:102580000B6E0C6A0D6A0E6AEECF06F0EECF07F006
:10259000EECF08F0EFCF09F029EC25F009C0EDFFF0
:1025A00008C0EDFF07C0EDFF06C0EFFF010EE66EAD
:1025B000060EE66E000EDFCFE6FF010EDBCFE6FF74
:1025C000070EE66E020ED0D30201540E006F650EA8
:1025D000016F6D0E026F700E036F3A0E046F430EA3
:1025E000096F0F6FDF0E0E6F086FE66A030EE66E5F
:1025F000E66AFAEC20F0E552E66EE66A050EE66E53
:10260000020EE66E0DEC21F0146E060EE15E145023
:10261000E66A030EE66E010EE66EFAEC20F0E55275
:10262000E66EE66A0B0EE66E020EE66E0DEC21F02B
:10263000146E060EE15E1450E66A17EC1BF0E552CC
:10264000ECEC1BF00201440E006F540E016F430EC0
:10265000026F3A0E046FA0C1E6FF060EE66E020E90
:10266000E66ED3EC21F0E552E552E5520201460E4A
:102670000A6F610E0B6F6E0E0C6F3A0E0E6FE66AEC
:10268000010EE66E0AEC21F0E66EE66A0F0EE66ECB
:10269000020E6AD30201560E006F0F6F530E016FC8
:1026A000310E026F010EE66E040EE66EE66A28EC4D
:1026B00004F0E552F3CF14F0F4CF15F0F3CFE6FFBA
:1026C000F4CFE6FF0B0EE66E020EE66E0DEC21F087
:1026D000166E060EE15E1650E66A050EE66E71C1D4
:1026E000E6FF72C1E6FF2AD00201560E006F0F6F9F
:1026F000530E016F320E026F010EE66E040EE66E8F
:10270000010EE66E28EC04F0E552F3CF14F0F4CF9E
:1027100015F0F3CFE6FFF4CFE6FF0B0EE66E020EE8
:10272000E66E0DEC21F0166E060EE15E1650E66ABE
:10273000050EE66E73C1E6FF74C1E6FF050EE66E98
:10274000020E12D30201560E006F0F6F530E016F6F
:102750006F0E026F010EE66E050EE66E95EC04F04C
:10276000F3CF14F0F4CF15F0F3CFE6FFF4CFE6FF8C
:102770000A0EE66E020EE66E0DEC21F0166E060EE7
:10278000E15E1650E66A050EE66E75C1E6FF76C19B
:10279000E6FFD8D00201430E006F410E0F6F530EBB
:1027A000016F310E026F020EE66E040EE66EE66AEF
:1027B00042EC04F0E552F3CF14F0F4CF15F0F3CF70
:1027C000E6FFF4CFE6FF0B0EE66E020EE66E0DECB2
:1027D00021F0166E060EE15E1650E66A050EE66EF4
:1027E00077C1E6FF78C1E6FFADD00201430E006F6E
:1027F000410E0F6F530E016F310E026F6F0E036F9C
:10280000660E046FE66A040EE66E010EE66ED0EC0C
:102810001DF0E552F3CF14F0F4CF15F0F3CFE6FF3F
:10282000F4CFE6FF0C0EE66E020EE66E0DEC21F024
:10283000166E060EE15E1650E66A030EE66E0101A4
:102840007D51AFD00201430E006F410E0F6F530E4A
:10285000016F320E026F020EE66E040EE66E010E7E
:10286000E66E42EC04F0E552F3CF14F0F4CF15F02D
:10287000F3CFE6FFF4CFE6FF0B0EE66E020EE66E38
:102880000DEC21F0166E060EE15E1650E66A050E9E
:10289000E66E79C1E6FF7AC1E6FF54D00201430E2D
:1028A000006F410E0F6F530E016F320E026F6F0EED
:1028B000036F660E046FE66A040EE66EE66AD0ECFD
:1028C0001DF0E552F3CF14F0F4CF15F0F3CFE6FF8F
:1028D000F4CFE6FF0C0EE66E020EE66E0DEC21F074
:1028E000166E060EE15E1650E66A030EE66E0101F4
:1028F0007E5157D00201430E006F410E0F6F530EF1
:10290000016F6F0E026F020EE66E040EE66E9AEC19
:1029100004F0F3CF14F0F4CF15F0F3CFE6FFF4CFCB
:10292000E6FF0B0EE66E020EE66E0DEC21F0166E63
:10293000060EE15E1650E66A050EE66E7BC1E6FF06
:102940007CC1E6FF040EE66E020E0ED20201430EBB
:10295000006F410E0F6F530E016F6F0E026F036F0A
:10296000660E046FE66A040EE66E060EE66ED0ECA6
:102970001DF0E552F3CF14F0F4CF15F0F3CFE6FFDE
:10298000F4CFE6FF0C0EE66E020EE66E0DEC21F0C3
:10299000166E060EE15E1650E66A030EE66E010143
:1029A0007F51E66EE66A060EE66E020EDDD102018A
:1029B000550E006F300E016F310E026FE66A030E86
:1029C000E66E01018051E66EE66A0D0EE66E020EBD
:1029D000E66E0DEC21F0146E060EE15E1450E66A10
:1029E000040EE66E1CD00201550E006F300E016F12
:1029F000320E026FE66A030EE66E01018151E66E49
:102A0000E66A0D0EE66E020EE66E0DEC21F0146E17
:102A1000060EE15E1450E66A040EE66E050EE66EE2
:102A2000D0EC1DF0E552F3CF14F0F4CF15F0F3CF56
:102A3000E6FFF4CFE6FF050EE66E020EE66E0DEC45
:102A400021F0166E060EE15E165095D10201540E6D
:102A5000006FDF0E0E6F430E0F6F300E016FE66AD0
:102A6000030EE66E010182517AD00201540E006F0E
:102A7000730E016F630E026F310E036FE66A030E71
:102A8000E66E01018351C3D00201540E006F730E34
:102A9000016F630E026F320E036FE66A030EE66E7D
:102AA00001018451B4D00201540E006FDF0E0E6F8D
:102AB000430E0F6F6C0E016F690E026F6D0E036F88
:102AC000E66A030EE66E0101855149D00201540EFB
:102AD000006FDF0E0E6F430E0F6F660E016F610EFB
:102AE000026F6E0E036F6F0E056F660E066F076F37
:102AF000E66A030EE66E0101905131D00201540ED8
:102B0000006FDF0E0E6F430E0F6F660E016F610ECA
:102B1000026F6E0E036F6C0E056F760E066F310E30
:102B2000076FE66A030EE66E01018E5118D00201AE
:102B3000540E006FDF0E0E6F430E0F6F660E016FA7
:102B4000610E026F6E0E036F6C0E056F760E066FD0
:102B5000320E076FE66A030EE66E01018F51E66ED4
:102B6000E66A0B0EE66E020EFFD00201550E006FF4
:102B7000560E0F6F6F0E016F6E0E026FE66A030E38
:102B8000E66E0101885159D00201550E006F560EB4
:102B90000F6F6F0E016F660E026F036FE66A030E12
:102BA000E66E0101895149D00201550E006F560EA3
:102BB0000F6F6D0E016F610E026F780E036FE66A84
:102BC000030EE66E0101915138D00201440E006FF0
:102BD000540E016F430E026F3A0E036FA0C1E6FF61
:102BE000050EE66E020EE66ED3EC21F0E552E552DC
:102BF000E5520201430E086F460E096F470E0A6F39
:102C00003A0E0B6FE66A030EE66E01019251E66E14
:102C1000E66A0D0EE66E020EA7D00201500E006F9E
:102C2000570E0F6F6D0E016F610E026F780E036FFE
:102C3000E66A030EE66E01018651E66EE66A0C0E48
:102C4000E66E020E91D001018751010A07E0010AE8
:102C50000CE10201500E0E6F4F0E0BD00201500E10
:102C60000D6F4F0E0E6F4D0E04D00201430E0E6F0E
:102C7000560E0F6F4D0E006F500E016F026F540E07
:102C8000036F3A0E046F77D00201500E006F570E9B
:102C9000016F4D0E026F730E036F740E046F610EA1
:102CA000056F720E066F740E076FE66A030EE66E0E
:102CB00001018A5127D00201500E006F570E016F9B
:102CC0004D0E026F730E036F740E046F650E056F69
:102CD000700E066FE66A030EE66E01018C5112D08B
:102CE0000201500E006F570E016F4D0E026F6D0EF8
:102CF000036F610E046F780E056FE66A030EE66ED1
:102D000001018B51E66EE66A0C0EE66E020EE66E6F
:102D10000DEC21F0146E060EE15E14500201250E3A
:102D20000F6F29D00201500E006F570E016F4D0E2C
:102D3000026F700E036F650E046F720E056F690EE1
:102D4000066F6F0E076F640E086F530E0F6FE40E61
:102D50000E6F010EE66E040EE66E01018D51E66EF9
:102D6000E66A0A0EE66E020EE66E0DEC21F0146EB7
:102D7000060EE15E1450010EE66E17EC1BF0E552F4
:102D8000040EE15C02E2E16AE552E16EE552E7CF52
:102D9000D9FF1200020131A195D22C51230A01E181
:102DA0006ED2010A01E156D2030A01E13DD2010AC5
:102DB00001E124D23F0A01E119D2020A01E107D25E
:102DC000010A01E1FCD1070A01E1F1D1010A01E1A7
:102DD000E6D1030A01E1DBD1010A01E1D0D10F0AFA
:102DE00001E1C5D1010A01E1BAD1030A01E1AFD184
:102DF000010A01E1A4D1070A01E199D1010A01E127
:102E00008ED1030A01E183D1010A01E178D10E0AD2
:102E100001E15CD1110A01E12CD1010A01E121D1CA
:102E2000030A01E1F1D0010A01E1E6D0070A01E15C
:102E3000B6D0010A01E186D0030A57E0010A28E072
:102E40000F0A1BE0010A0EE0030A01E03BD22F51FA
:102E500003E1305101E136D20101946B956B966B21
:102E6000976B30D22F5103E1305101E12BD2010198
:102E7000986B996B9A6B9B6B25D22F5103E1305164
:102E800001E120D201019C6B9D6B9E6B9F6B1AD25E
:102E90002F51146E156A14500101712715507223B9
:102EA00002012F510BE00101700ED8807155170EF1
:102EB000725504E2880E716F130E726F0201305169
:102EC0000AE00101880E715D130E725904E2700E62
:102ED000716F170E726F02013051146E156A145023
:102EE0000101715F1550725BEDD12F51146E156A9F
:102EF0001450010173271550742302012F510BE068
:102F00000101700ED8807355170E745504E2880EB7
:102F1000736F130E746F020130510AE00101880EC5
:102F2000735D130E745904E2700E736F170E746F95
:102F300002013051146E156A14500101735F15506F
:102F4000745BC0D12F51146E156A1450010175279E
:102F50001550762302012F510BE00101D80ED880C5
:102F60007555590E765504E2200E756F4E0E766F2C
:102F7000020130510AE00101200E755D4E0E7659B6
:102F800004E2D80E756F590E766F02013051146E3F
:102F9000156A14500101755F1550765B93D12F515E
:102FA000146E156A14500101772715507823020119
:102FB0002F510BE00101B00ED8807755040E7855E3
:102FC00004E2BC0E776F020E786F020130510AE006
:102FD0000101BC0E775D020E785904E2B00E776FE6
:102FE000040E786F02013051146E156A14500101FD
:102FF000775F1550785B66D12F5101017D27020163
:10300000305101017D5F5ED12F51146E156A14504D
:103010000101792715507A2302012F510BE001019C
:10302000B00ED8807955040E7A5504E2BC0E796F43
:10303000020E7A6F020130510AE00101BC0E795D87
:10304000020E7A5904E2B00E796F040E7A6F020113
:103050003051146E156A14500101795F15507A5B76
:1030600031D12F5101017E270201305101017E5FD4
:1030700029D12F51146E156A145001017B27155068
:103080007C2302012F510BE00101200ED8807955DD
:10309000030E7A5504E2900E796F010E7A6F0201E9
:1030A00030510AE00101900E795D010E7A5904E277
:1030B000200E796F030E7A6F02013051146E156A7B
:1030C000145001017B5F15507C5BFCD02F51010136
:1030D000872702012F5105E001018751020801E213
:1030E000876B0201305106E0010E0101875D02E2AB
:1030F000020E876F020130510101875FE3D02F512B
:1031000001017F270201305101017F5FDBD02F5188
:1031100001018027020130510101805FD3D02F517E
:1031200001018127020130510101815FCBD02F5174
:1031300001018227020130510101825FC3D02F516A
:1031400001018327020130510101835FBBD02F5160
:1031500001018427020130510101845FB3D02F5156
:1031600001018527020130510101855FABD02F514C
:1031700001019027020130510101905FA3D02F512E
:1031800001018E270201305101018E5F9BD02F512A
:1031900001018F270201305101018F5F93D02F5120
:1031A00001018827020130510101885F8BD02F5126
:1031B00001018927020130510101895F83D02F511C
:1031C00001019127020130510101915F7BD02F5104
:1031D00001019227020130510101925F02012F513A
:1031E00002E130516FE00101A06B6CD02F51010161
:1031F0008627020130510101865F64D02F5108E01B
:103200002F5101018A278C51320802E2010E8C6F86
:103210000201305157E0305101018A5F010E8A5D91
:1032200051E2320E8A6F4ED02F5108E02F5101012A
:103230008C278C51140802E2010E8C6F0201305170
:1032400041E0305101018C5F010E8C5D3BE2140EB8
:103250008C6F38D02F5107E02F5101018B278B51F4
:10326000640801E28B6B020130512CE03051010106
:103270008B5F8B51640826E2640E8B6F23D02F5135
:103280000FE02F5101018D278D51146E156A1534F1
:1032900007E21450D208000E155402E21E0E8D6F84
:1032A000020130510FE0305101018D5F8D51146EDC
:1032B000156A153407E21450D208000E155402E2C4
:0C32C000D20E8D6F02012F6B306B1200DC
:0432CC00D9CFE6FF71
:1032D000E1CFD9FFFE0EDB5007E0FE0EDB2ADB2A32
:1032E000DB06DB06DB06F6D7E552E7CFD9FF120097
:1032F000D9CFE6FFE1CFD9FFD950FD0FE96EFF0E20
:10330000DA20EA6EEE50ED1038E0FD0EDB2AFE0EFC
:1033100001E3DB2AFD0EDB2AFE0E01E3DB2AFD0EB4
:10332000DB2AFE0E01E3DB2AFD0EDB2AFE0E01E3A3
:10333000DB2AFD0EDB2AFE0E01E3DB2AFD0EDB0697
:10334000FE0E01E2DB06FD0EDB06FE0E01E2DB06F1
:10335000FD0EDB06FE0E01E2DB06FD0EDB06FE0EB9
:1033600001E2DB06FD0EDB06FE0E01E2DB06FD0ED2
:10337000DB06FE0EC1E2DB06BFD7E552E7CFD9FF81
:1033800012008C94C00EE66E120EE66EB1DFE552AE
:10339000E5528C908C9E8C9C8C8A8C88030EE66EF9
:1033A00095DFE5528C84030EE66E90DFE5528C9437
:1033B000030EE66E8BDFE552C00EE66E030EE66E80
:1033C00097DFE552E5528C908C9E8C9C8C8A8C8881
:1033D000030EE66E7BDFE5528C84030EE66E76DF2D
:1033E000E5528C94030EE66E71DFE552C00EE66E78
:1033F000030EE66E7DDFE552E5528C908C9E8C9C30
:103400008C8A8C88030EE66E61DFE5528C84030E95
:10341000E66E5CDFE5528C94030EE66E57DFE552F4
:10342000C00EE66E030EE66E63DFE552E5528C9049
:103430008C9E8C9C8C8A8C98030EE66E47DFE5523E
:103440008C84030EE66E42DFE5528C94030EE66E2A
:103450003DDFE552C00EE66EE66A4ADFE552E55210
:103460008C908C9E8C9C8C8A8C98030EE66E2EDF42
:10347000E5528C84030EE66E29DFE5528C94030E30
:10348000E66E24DFE5528C908C8E8C9C8C9A8C9806
:10349000030EE66E1BDFE5528C84030EE66E16DF2C
:1034A000E5528C94030EE66E11DFE552C00EE66E17
:1034B000E66A1EDFE552E5528C908C9E8C9C8C9ABD
:1034C0008C98030EE66E02DFE5528C84030EE66EE6
:1034D000FDDEE5528C94030EE66EF8DEE5528C902C
:1034E0008C8E8C9C8C9A8C98030EE66EEFDEE552E7
:1034F0008C84030EE66EEADEE5528C94030EE66ED3
:10350000E5DEE552C00EE66EE66AF2DEE552E55211
:103510008C908C9E8C9C8C9A8C98030EE66ED6DEDA
:10352000E5528C84030EE66ED1DEE5528C94030ED8
:10353000E66ECCDEE5528C908C8E8C8C8C9A8C98BE
:10354000030EE66EC3DEE5528C84030EE66EBEDE2D
:10355000E5528C94030EE66EB9DEE552C00EE66EBF
:10356000E66AC6DEE552E5528C908C9E8C9C8C9A65
:103570008C98030EE66EAADEE5528C84030EE66E8E
:10358000A5DEE5528C94030EE66EA0DEE5528C902B
:103590008C9E8C8C8C8A8C98030EE66E97DEE5529E
:1035A0008C84030EE66E92DEE5528C94030EE66E7A
:1035B0008DDEE552C00EE66EE66A9ADEE552E55211
:1035C0008C908C9E8C9C8C9A8C98030EE66E7EDE82
:1035D000E5528C84030EE66E79DEE5528C94030E80
:1035E000E66E74DEE5528C908C9E8C8C8C8A8C9866
:1035F000030EE66E6BDEE5528C84030EE66E66DE2D
:10360000E5528C94030EE66E61DEE552C00EE66E66
:10361000E66A6EDEE552E552F7D8DED8010EE66EB8
:1036200006D8E552020EE66E02D8E5521200D9CF56
:10363000E6FFE1CFD9FFFE0EDBA004D08C908C8E8C
:103640008C8C03D08C908C8E8C9C8C9A8C98030ED6
:10365000E66E3CDEE5528C84030EE66E37DEE55204
:103660008C94030EE66E32DEE5528C908C9E8C9C20
:103670008C9A8C98030EE66E29DEE5528C84030E3C
:10368000E66E24DEE5528C94030EE66E1FDEE552F4
:10369000320EE66E1BDEE552FE0EDB6A100EF36E96
:1036A000FE0EDBCFF4FFF350F45C01E391D08C808D
:1036B000FE0EDB50EA6A000FE96E020EEA22EF50BE
:1036C000800B02E08C8E01D08C9EFE0EDB50EA6AED
:1036D000000FE96E020EEA22EF50400B02E08C8CE4
:1036E00001D08C9CFE0EDB50EA6A000FE96E020EE0
:1036F000EA22EF50200B02E08C8A01D08C9AFE0E59
:10370000DB50EA6A000FE96E020EEA22EF50100B5E
:1037100002E08C8801D08C98030EE66ED7DDE5526E
:103720008C84030EE66ED2DDE5528C94030EE66EB9
:10373000CDDDE5528C80FE0EDB50EA6A000FE96EAB
:10374000020EEA22EF38F00B800B02E08C8E01D0E3
:103750008C9EFE0EDB50EA6A000FE96E020EEA2232
:10376000EF38F00B400B02E08C8C01D08C9CFE0EED
:10377000DB50EA6A000FE96E020EEA22EF38F00B26
:10378000200B02E08C8A01D08C9AFE0EDB50EA6A94
:10379000000FE96E020EEA22EF38F00B100B02E088
:1037A0008C8801D08C98030EE66E90DDE5528C84F7
:1037B000030EE66E8BDDE5528C94030EE66E86DD1D
:1037C000E552320EE66E82DDE552FE0EDB2A66D74A
:1037D000E552E7CFD9FF1200D9CFE6FFE1CFD9FFFD
:1037E000E652DF6A100EDF5C0AE2DF50EA6A000F81
:1037F000E96E020EEA22200EEF6EDF2AF3D7E552C1
:10380000E552E7CFD9FF1200D9CFE6FFE1CFD9FFCC
:10381000E652320EE66E5ADDE5528C908C9E8C8C10
:103820008C9A8C98030EE66E51DDE5528C84030E63
:10383000E66E4CDDE5528C94030EE66E47DDE552F4
:103840008C908C9E8C9C8C9A8C98030EE66E3EDD40
:10385000E5528C84030EE66E39DDE5528C94030E3E
:10386000E66E34DDE552320EE66E30DDE552DF6A9B
:10387000400EDF5C01E38CD0320EE66E27DDE552B0
:103880008C80DF50EA6AB20FE96E010EEA22EF5037
:10389000800B02E08C8E01D08C9EDF50EA6AB20F62
:1038A000E96E010EEA22EF50400B02E08C8C01D051
:1038B0008C9CDF50EA6AB20FE96E010EEA22EF50EB
:1038C000200B02E08C8A01D08C9ADF50EA6AB20F9A
:1038D000E96E010EEA22EF50100B02E08C8801D055
:1038E0008C98030EE66EF2DCE5528C84030EE66ED5
:1038F000EDDCE5528C94030EE66EE8DCE5528C803C
:10390000DF50EA6AB20FE96E010EEA22EF38F00BDF
:10391000800B02E08C8E01D08C9EDF50EA6AB20FE1
:10392000E96E010EEA22EF38F00B400B02E08C8CBE
:1039300001D08C9CDF50EA6AB20FE96E010EEA22D8
:10394000EF38F00B200B02E08C8A01D08C9ADF500C
:10395000EA6AB20FE96E010EEA22EF38F00B100BA3
:1039600002E08C8801D08C98030EE66EAFDCE55245
:103970008C84030EE66EAADCE5528C94030EE66E90
:10398000A5DCE552320EE66EA1DCE552DF2A70D7E7
:0A399000E552E552E7CFD9FF12001F
:06399A00EF0E926E816A3F
:1039A000040E936E826A300E946E6D6A080E6F6E0E
:1039B000836A956A070E966E060EC16EA60EC06EDD
:1039C000010EC26E0001E66BE76BC80EE65D000EED
:1039D000E75905E2E56BE62B000EE723F6D7E66B29
:1039E000E76B080EE65D000EE75915E2E6C0E9FF59
:1039F000E7C0EAFF010ED890E936EA36E806FBE1B7
:103A0000EB0EE926000EEA22EE6AED6A0001E62BD3
:103A1000000EE723E6D7E66BE76BE26BE36BE46B44
:103A20008F0ECB6E0C0EBD6EBE6ABA6EBB6A480EB0
:103A3000CA6ECA849E929D92E551EA6A240FE96E8D
:103A4000020EEA22EF50C26EC282420ED56EF2948E
:103A5000F28A800ED66E1200D9CFE6FFE1CFD9FFF1
:103A6000060EE12601018D51DE6EDD6ACA94D9CFC2
:103A7000E9FFDACFEAFFD20ED880EE54000EED5403
:103A800002E2D20E0AD0DECF14F0DDCF15F01E0E0A
:103A9000145C000E155803E21E0EDE6EDD6AD9CFEF
:103AA000E9FFDACFEAFF0C0EEC02F3CFEDFFEF02F5
:103AB000F3CFEEFFF450ED26D9CFE9FFDACFEAFFDE
:103AC0000A0E0D6E0E6AEECF08F0EDCF09F08DEC08
:103AD00025F008C0EEFF09C0EDFFDF50CB6ECA84B1
:103AE000020E91C1DBFF030EDB6A040EDB6A050EDA
:103AF000DB6AD950020FE96EDACFEAFF9C0E0B6E3B
:103B00008F0E0C6E010E0D6E0E6AEECF06F0EECF2C
:103B100007F0EECF08F0EFCF09F060EC24F005C01D
:103B2000EDFF04C0EDFF03C0EDFF02C0EFFF75C164
:103B300014F076C115F0166A176AD950020FE96EB3
:103B4000DACFEAFF75C10BF076C10CF016C00DF0AC
:103B500017C00EF0EECF06F0EECF07F0EECF08F074
:103B6000EFCF09F029EC25F009C0EDFF08C0EDFF0B
:103B700007C0EDFF06C0EFFF020EDBCFE8F0030E3B
:103B8000DBCFE9F0D58ED09EF28CF28E060EE15C92
:103B900002E2E16AE552E16EE552E7CFD9FF120099
:103BA000D9CFE6FFE1CFD9FF020EE126F29EFE0E4D
:103BB000EA6ADB34FE0BEA36E96EEB0EE926000E0C
:103BC000EA22EECFDEFFEDCFDDFFF28EDECF14F086
:103BD000DDCF15F0D89015321432D890153214324A
:103BE00014C0F3FF15C0F4FF020EE15C02E2E16ACB
:103BF000E552E16EE552E7CFD9FF12000001E4B1D2
:103C0000010C000C0001E4B3010C000C0001EA51AE
:103C100002E0EA6B010C000CDACFE4FFE2CFDAFF3E
:103C2000E9CFE4FFEACFE4FFF6CFE4FFF7CFE4FF0C
:103C3000F5CFE4FFF3CFE4FFF4CFE4FFFACFE4FFE6
:103C400000EE00F0140EE80403E3EECFE4FFFBD730
:103C500000EE14F0040EE80403E3EECFE4FFFBD71C
:103C6000E652D9CFE6FFE1CFD9FF040EE126F2A458
:103C7000BDD01D0EC26EC450196E186A18C0DEFF8A
:103C8000DD6EC350DF12C282800ED66EF294000148
:103C9000E551E96EEA6AD890E936EA36EB0EE92694
:103CA000000EEA22020EEECFDBFF030EEDCFDBFFAC
:103CB000DECF18F0DDCF19F0E551E96EEA6AD89051
:103CC000E936EA36EB0EE926000EEA221850EE2617
:103CD0001950ED22D950020FE96EDACFEAFFEE500B
:103CE000ED1032E0D950020FE96EDACFEAFF020E92
:103CF0000F0B06E0EC52D890ED32EF32E806FAE115
:103D0000D950020FE96EDACFEAFFEE50ED1007E16D
:103D1000010EF36E020EF3CFDBFF030EDB6A020E21
:103D2000DBCF18F0030EDBCF19F00001E551E96E8F
:103D3000EA6AD890E936EA36EB0EE926000EEA2266
:103D40001850EE5E1950ED5AE52B080EE55D01E3C3
:103D5000E56BE62B000EE723C80EE65D000EE75983
:103D60001CE3E66BE76B010EEA6F82A8E281070EA7
:103D7000E217E25D01E1E481E25101E1E491E29FB9
:103D8000E24782AAE381070EE317E35D01E1E483E2
:103D9000E35101E1E493E39FE347C2B2FED70001A0
:103DA000E551EA6A240FE96E020EEA22EF50C26E74
:103DB000C450196E186A18C0DEFFDD6EC350DF12E2
:103DC000DECF18F0DDCF19F01850E85D1950E95931
:103DD0000CE2DECFF9F0DDCFFAF0D890F937FA3700
:103DE000D890F937FA37F0EC05F0C282040EE15CA6
:103DF00002E2E16AE552E16EE552E7CFD9FFE55212
:103E000000EE17F0040EE80403E3E5CFEDFFFBD767
:103E100000EE13F0140EE80403E3E5CFEDFFFBD74B
:103E2000E5CFFAFFE5CFF4FFE5CFF3FFE5CFF5FFF0
:103E3000E5CFF7FFE5CFF6FFE5CFEAFFE5CFE9FFF6
:103E4000E5CFDAFF1100D8CFE4FFE0CFE4FFE46E66
:103E5000DACFE4FFE652E552E5CFDAFFE550E5CFF1
:083E6000E0FFE5CFD8FF1000E0
:083E680002011B51020A21E0D6
:103E7000030A17E0010A01E0120001018E5102015C
:103E8000D880225506E301018E510201D8802355C6
:103E900005E2010E1B6F180E1D6F20D08A9C1C6B53
:103EA00012001D5102E01D0719D0020E1B6F1D6B81
:103EB00022D01D5104E01D071D5123E11CD001013A
:103EC0008F510201D880225506E301018F51020172
:103ED000D880235505E21D6B020E1C6F8A8C1200E0
:103EE000010190510201225D08E20101905102019D
:103EF000235D03E21B6B8A9C1200010E1D6F1C6F79
:103F00008A8C120002011A6B1B6B140E226F236F36
:103F10001200D9CFE6FFE1CFD9FF020EE126020160
:103F20001A5D22E21A2B040EE66ED0EC1DF0E5526B
:103F3000F3CF1EF2F4CF1FF2060E0201D8901E3707
:103F40001F37E806FBE1050EE66ED0EC1DF0E552EA
:103F5000F3CF20F2F4CF21F2060E0201D8902037E1
:103F60002137E806FBE13CD1040EE66ED0EC1DF0F3
:103F7000E552F3CFDEFFF4CFDDFFD9CFE9FFDACF93
:103F8000EAFF060ED890EE36ED36E806FBE1DECF0E
:103F900014F0DDCF15F002011E51145C1F511558AD
:103FA00004E21E07000E1F5B0CD0DECF14F0DDCF45
:103FB00015F014501E5D15501F5903E21E2B000E04
:103FC0001F2301018051DE6EDD6AD9CFE9FFDACF10
:103FD000EAFF060ED890EE36ED36E806FBE1DECFBE
:103FE00014F0DDCF15F002011E51145C1F5115585D
:103FF00025E3D9CFE9FFDACFEAFF1E51EE5E1F516C
:10400000ED5A01018351146E156AD9CFE9FFDACF59
:10401000EAFF83C10DF015C00EF0EECF08F0EDCF32
:1040200009F08DEC25F008C0EEFF09C0EDFFDFCFF1
:1040300022F201018251020122272CD0DE501E5DA6
:10404000146EDD501F5914C0DEFFDD6E0101835177
:10405000146E156AD9CFE9FFDACFEAFF83C10DF0FC
:1040600015C00EF0EECF08F0EDCF09F08DEC25F085
:1040700008C0EEFF09C0EDFFDFCF22F2010182513F
:104080000201225D02E3226B05D022510101825D13
:104090000201226F050EE66ED0EC1DF0E552F3CF63
:1040A000DEFFF4CFDDFFD9CFE9FFDACFEAFF060E5E
:1040B000D890EE36ED36E806FBE1DECF14F0DDCF2A
:1040C00015F002012051145C2151155804E220071B
:1040D000000E215B0CD0DECF14F0DDCF15F01450B4
:1040E000205D1550215903E2202B000E21230101F0
:1040F0008151DE6EDD6AD9CFE9FFDACFEAFF060E25
:10410000D890EE36ED36E806FBE1DECF14F0DDCFD9
:1041100015F002012051145C2151155825E3D9CF27
:10412000E9FFDACFEAFF2051EE5E2151ED5A01019D
:104130008451146E156AD9CFE9FFDACFEAFF84C142
:104140000DF015C00EF0EECF08F0EDCF09F08DECBC
:1041500025F008C0EEFF09C0EDFFDFCF23F201011B
:104160008251020123272CD0DE50205D146EDD50D9
:10417000215914C0DEFFDD6E01018451146E156AF1
:10418000D9CFE9FFDACFEAFF84C10DF015C00EF0F8
:10419000EECF08F0EDCF09F08DEC25F008C0EEFF72
:1041A00009C0EDFFDFCF23F2010182510201235D3F
:1041B00002E3236B05D023510101825D0201236FCD
:1041C000010185510201D880225502E20101A0813E
:1041D000010185510201D880235502E20101A0832B
:1041E000020EE15C02E2E16AE552E16EE552E7CFE0
:1041F000D9FF1200D9CFE6FFE1CFD9FFFE0EDB5089
:10420000EA6A220FE96E020EEA22EF50E552E7CF8A
:0A421000D9FF120002011C51120038
:06421A00D9CFE6FFE1CF61
:10422000D9FFE652F90EDB8EFA0EDB50000869E288
:10423000FB0EDBCF14F0FC0EDBCF15F00A0E0D6E7B
:104240000E6A14C008F015C009F08DEC25F004507A
:10425000DF6E0A0E146E156AFB0EDBCF08F0FC0E43
:10426000DBCF09F014C00DF015C00EF08DEC25F079
:10427000FB0E08C0DBFFFC0E09C0DBFFFA0EDB06FD
:10428000300EDF24E66EFA0EDB50E76EFD0EDBCF5C
:10429000E9FFFE0EDBCFEAFFE750E926000EEA2237
:1042A000E552E750EF6EF90EDB9EDB501BE0F90E96
:1042B000DB0416E1FA0EDB06DB50E76EFD0EDBCF0A
:1042C000E9FFFE0EDBCFEAFFE750E926000EEA2207
:1042D0002C0EEF6E800EF36EF90EF3CFDBFF02D0E3
:1042E000F90EDB06D950FB0FE96EFF0EDA20EA6EFD
:1042F000EE50ED1099E1F90EDB5096E1FA0EDB6A13
:1043000093D7E552E552E7CFD9FF1200D9CFE6FFA8
:10431000E1CFD9FF020EE126DE52040EDD6E010E62
:10432000DB50000836E20F0EE76EFB0EDBCF14F019
:10433000FC0EE7501416156A1450DF6EFB0EDBCF2F
:1043400014F0FC0EDBCF15F0040ED89015321432A9
:10435000E804FBE1FB0E14C0DBFFFC0E15C0DBFF25
:10436000010EDB06DF50090802E2370E01D0300EE5
:10437000DF26010EDB50E76EFD0EDBCFE9FFFE0E00
:10438000DBCFEAFFE750E926000EEA22DFCFEFFF9E
:10439000C6D7020EE15C02E2E16AE552E16EE55247
:1043A000E7CFD9FF1200D9CFE6FFE1CFD9FF020E48
:1043B000E126DE52DD6E010EDB50000824E2FC0E29
:1043C000DB500F0BDF6EFC0EDB380F0BE76EFC0EC5
:1043D000E7CFDBFF010EDB06DF50090802E2370EF4
:1043E00001D0300EDF26010EDB50E76EFD0EDBCF75
:1043F000E9FFFE0EDBCFEAFFE750E926000EEA22D6
:10440000DFCFEFFFD8D7020EE15C02E2E16AE552AE
:0A441000E16EE552E7CFD9FF12007C
:06441A000101FE6B020E21
:10442000FE5D26E2FE51EA6AF80FE96E010EEA220D
:10443000EF6AFE51EA6AFA0FE96E010EEA220C0EEB
:10444000EF6EFE51EA6AF20FE96E010EEA22EF6AA0
:10445000FE51EA6AF40FE96E010EEA22EF6AFE519C
:10446000EA6AF60FE96E010EEA22EF6AFE2BD7D751
:104470001200FEEC1DF00101F26F02EC1EF00101D2
:10448000F36FFE6B020EFE5D01E3A9D0FE51EA6AF6
:10449000F20FE96E010EEA22EF5067E0FE51EA6A80
:1044A000F40FE96E010EEA22EF5010E1FE51EA6AC4
:1044B000F60FE96E010EEA22010EEF6EFE51EA6A76
:1044C000FC0FE96E010EEA223E0E75D0FE51EA6A3B
:1044D000F80FE96E010EEA22EFCF14F0FE51EA6AFE
:1044E000FA0FE96E010EEA22EF50145C08E2FE5169
:1044F000EA6AF80FE96E010EEA22EF2A1ED0FE5199
:10450000EA6AF80FE96E010EEA22EF6AFE51EA6AE2
:10451000F60FE96E010EEA22EF80FE51EA6AFA0F09
:10452000E96E010EEA22EF50010807E2FE51EA6A45
:10453000FA0FE96E010EEA22EF06FE51EA6AFC0F5D
:10454000E96E010EEA22EF5008E0FE51EA6AFC0F24
:10455000E96E010EEA22EF062FD0FE51EA6AF60F4D
:10456000E96E010EEA22EF8227D0FE51EA6AF40FCB
:10457000E96E010EEA22EF5009E0FE51EA6AF60FF9
:10458000E96E010EEA22040EEF6E07D0FE51EA6AD0
:10459000F60FE96E010EEA22EF6AFE51EA6AF80FA1
:1045A000E96E010EEA22EF6AFE51EA6AFA0FE96E3D
:1045B000010EEA220C0EEF6EFE51EA6AF20FE96E6E
:1045C000010EEA22EF50E66EFE51EA6AF40FE96E40
:1045D000010EEA22E552E750EF6EFE2B53D7120090
:1045E000D9CFE6FFE1CFD9FFE652FE0EDB50EA6AF3
:1045F000F60FE96E010EEA22EFCFDFFFFE0EDB5071
:10460000EA6AF60FE96E010EEA22EF6ADF50E55220
:08461000E552E7CFD9FF1200CB
:084618000101936B6F6B410E71
:104620006F5D22E2220E6F5D1DE06F51E66EE66A5D
:104630004DEC25F0E552E552E66E01016F51EA6A54
:10464000710FE96E010EEA22E552E750EF6E220E7D
:104650006F5D08E26F51EA6A710FE96E010EEA229E
:10466000EF5093276F2BDBD7220EE66EE66A4DECF8
:1046700025F0E552E5520101935D17E06F6B410EA5
:104680006F5D13E26F51EA6A600FE96E000EEA2275
:10469000EF50E66E6F51EA6A710FE96E010EEA2281
:1046A000E552E750EF6E6F2BEAD76E6B6F6B706B56
:1046B0001200A6B21200410E01016F5D01E36F6BA3
:1046C0006F51EA6AA10FE96E000EEA22EF507015F1
:1046D00050E0220E6F5D2EE06F51EA6A710FE96EB5
:1046E000010EEA22EFCF14F014C0E6FF6F51E66E20
:1046F000E66A4DEC25F0E552E552E552E7CF14F0BD
:10470000145C37E001016F51EA6A710FE96E010E26
:10471000EA22EF50E66E6F51E66EE66A98EC24F0FE
:10472000E552E552E552220E01016F5D22E2010ED3
:104730006E6F1FD06E511AE06E6B936B6F6B220E13
:104740006F5D0AE26F51EA6A710FE96E010EEA22AB
:10475000EF5093276F2BF3D793C1E6FF220EE66E3F
:10476000E66A98EC24F0E552E552E5520101220E8A
:104770006F6F01016F2B1200D9CFE6FFE1CFD9FF98
:10478000FE0EDB5001017013E552E7CFD9FF120096
:10479000D9CFE6FFE1CFD9FFFE0EDB1C0101701778
:0847A000E552E7CFD9FF12003A
:0847A8002A0EF66E080EF76EF2
:1047B000000EF86E02010900F550156F0900F55062
:1047C000166F03E1156701D03DD00900F550106F59
:1047D0000900F550116F0900F550126F090009002A
:1047E000F550E96E0900F550EA6E0900090009006C
:1047F000F550136F0900F550146F09000900F6CF4A
:1048000017F2F7CF18F2F8CF19F210C2F6FF11C263
:10481000F7FF12C2F8FF0201135302E1145307E03D
:104820000900F550EE6E1307F8E21407F9D717C226
:10483000F6FF18C2F7FF19C2F8FF02011507000EB4
:06484000165BBFD7120059
:0A484600D9CFE6FFE1CFD9FFE6521B
:10485000CDEC1CF0C1EC19F00DEC22F0EFEC0EF0F9
:104860000CEC23F02CEC1DF0EEEC0DF082EC1FF0C4
:10487000A3EC25F0DF6A010EE66EBCEC23F0E552F6
:1048800006EC1EF0000919E08A8A0101FF2B030ED5
:10489000FF1503E1E1EC0EF002D089EC1FF00101FD
:1048A000FFA107D039EC22F034EC1FF0A9EC25F081
:1048B00002D0F7EC0EF08A9AE3D759EC23F0E0D758
:1048C00006500B02F3CF02F0F4CF03F00C02F350CA
:1048D0000326000EF420046E06500D02F350042649
:1048E000000EF420056E06500E02F3500526075008
:1048F0000B02F3500326F4500422000E0522075049
:104900000C02F3500426F450052207500D02F35018
:10491000052608500B02F3500426F45005220850D7
:104920000C02F350052609500B02F3500526120025
:10493000D9CFE6FFDACFE6FFE1CFD9FFE2CFDAFF4A
:10494000E652DF6AFF0EE76EFC0EDBCF14F0E75095
:1049500014161450A96EFB0EDB50A86EA69EA69CE2
:10496000A684F250800B01E0010EDF6EF29E550E20
:10497000A76EAA0EA76EA682A6B2FED7DF50E8B039
:10498000F28EE8A0F29EA694E552E552E5CFDAFF5A
:06499000E7CFD9FF120081
:0A499600D9CFE6FFDACFE6FFE1CF4C
:1049A000D9FFE2CFDAFFE652E652FC0EDBCF14F07D
:1049B000FD0EDBCF15F0060ED89014361536E80440
:1049C000FBE114C0DEFF15C0DDFF010EDB50BB6E46
:1049D000DF50E840E8403F0B300B146ECF0EBA14A6
:1049E0001410BA6EE552E552E552E5CFDAFFE7CF93
:0449F000D9FF1200D9
:0C49F400D9CFE6FFDACFE6FFE1CFD9FF14
:104A0000E2CFDAFFE652E652FC0EDBCF14F0FD0EE9
:104A1000DBCF15F0060ED89014361536E804FBE10E
:104A200014C0DEFF15C0DDFF010EDB50BE6EDF508F
:104A3000E840E8403F0B300B146ECF0EBD1414104D
:104A4000BD6EE552E552E552E5CFDAFFE7CFD9FF7B
:024A5000120052
:0E4A5200056A046A036A026A200EE76ED890B5
:104A6000063607360836093602360336043605366A
:104A70000B50025C0C5003580D5004580E50055852
:104A800009E30B50025E0C50035A0D50045A0E50AD
:0A4A9000055A062AE72EE4D71200AB
:064A9A00D9CFE6FFDACFE0
:104AA000E6FFE1CFD9FFE2CFDAFFFF0EE76EFC0EA3
:104AB000DBCF14F0FD0EDBCF15F0E7501416156AAE
:104AC0001450A96EA69CA69EA68000000000A850C7
:0E4AD00000D0E552E5CFDAFFE7CFD9FF1200A4
:024ADE0008C00E
:104AE00012F008500D02F4CF07F0F3CF06F0095092
:104AF0000E02F4CF09F0F3CF08F00D02F3500726B1
:104B0000F4500822E86A092212500E02F3500726D8
:0A4B1000F4500822E86A0922000CA4
:064B1A00056A046A100E9A
:104B2000E76ED89008360936043605360D50045C19
:104B30000E50055805E30D50045E0E50055A082A24
:064B4000E72EF0D7120081
:0A4B460000018F0EFB6F5F0EFC6F85
:104B500012000001FB51FC1104E0FB07000EFC5B9E
:0C4B600012008F0EFB6F5F0EFC6F120046
:044B6C00000EF36ED6
:104B700000EE00F0080E01D81200EA6002D0EE6AE2
:0C4B8000FCD7F350E9601200EE6AFCD78D
:044B8C0013EE00F034
:104B900023EE00F0F86A019CD4EC23F0D4EC25F06D
:084BA00023EC24F0FBD7120006
:024BA8001200F9
:064BAA0000000000000005
:104BB000001F0000000000001F1F00000000001F79
:104BC0001F1F000000001F1F1F1F0000001F1F1FCE
:104BD0001F1F00001F1F1F1F1F1F001F1F1F1F1F42
:0A4BE0001F1F1F1F1F1F1F1F1F1F95
:064BEA000501090D152173
:024BF000191D8D
:0E4BF2003E1514159E56DE03E8032B02141325
:104C0000165D5D181D1D41FA001C11076E01322D45
:104C10003C28A0FF00000000000000000000000091
:104C20000000000000000000000000000000000084
:104C30000000000101010101010101010101010167
:104C40000101010101010101010101010101010154
:104C50000101010101010201010102010101020141
:104C60000101010101010101010101010101010134
:044C7000010101013C
:020000040030CA
:0100000021DE
:010001000EF0
:0100020006F7
:010003001EDE
:010005008179
:010006008178
:00000001FF
