:100700008331D62B080008007E1483312000921E0E
:10071000B42B9212580A03198E2BD80AD70A5508FF
:1007200057020318A92B28001E117E308400983030
:10073000850000089D0020009311210093152800DA
:100740001E157D3084009830850000082000D400FC
:10075000B42B28001E11200056080319B42B2100C9
:100760000C158C1122008C152000931DD42B220017
:100770008C158C158C158C158C158C158C158C1571
:100780008C158C158C158C15200054080319D02B52
:10079000D4035408031DD02B2100931128001E11EF
:1007A0002000931122008C117E1009008331D82B78
:1007B0007E1020008C31DC2C033021005A06031DF2
:1007C0000800582D2000C10121005A08013A0319E0
:1007D000F32B033A0319F42B013A0319F72B073AC9
:1007E0000319FD2BFE2BFF2B22008C1108000F2478
:1007F000833122008C110030F02D082C08002000DD
:10080000FF30C401C301C30AC200C501C50A080004
:1008100022008C110C1121000C118C1108002000F9
:10082000BC01C201BA01BB01B901080020003708B0
:100830000319D12CB70308008030DC248331FE304B
:1008400007258331292505302000B700B801B80AF3
:1008500008008030DC248331E73007258331813084
:10086000DC2483310130E42483312000DB0029259E
:1008700083313A3020005B06031D412C0230B80062
:100880000800B80108008030DC248331F5300725EA
:100890008331292502302000B7000330B80008005A
:1008A0008130DC2483312000DB005B08031D682CD1
:1008B0000030E42483312000D900DA01DA0001306D
:1008C000D901E42483312000D9040430B800692C14
:1008D000B8012925833120005908F0005A08F10099
:1008E0007D30F201F301F400F501F601F701332543
:1008F00083317208CD0007304D02031C822C063074
:10090000CD02832CCD0165304D02031C08006430FC
:10091000CD0008008030DC2483312000DB005B0840
:10092000031DAA2CE030072583318130DC2483317C
:100930000030E42483312000D900DA01DA000130EC
:10094000D901E42483312000D904FF30B7000230FC
:10095000B800AB2CB8012925833120005908F000DC
:100960005A08F1004430F201F301F701F601F500F5
:10097000A430F400332583317308AD007208AC0055
:10098000B330AC07ED30AD3D0A30F000F1012D0879
:10099000F3002C08F200B0257108AD007008AC001F
:1009A000080038088400053004020318412C9031F7
:1009B00004351A3E82000800F20021000D178D1741
:1009C0008D170D137208072DF000F10121000D178E
:1009D000F2018D13F1358D1720000D1B71142100CC
:1009E0008D178D178D178D130830F20A7202031CB4
:1009F000E92C7008031DFE2C0D13FF2C0D178D1311
:100A00008D178D178D178D130D1771080800F000C5
:100A1000F10121008D13F01F0F2D0D17102D0D1357
:100A20008D17F0358D178D178D178D130830F10A3E
:100A30007102031C092D0D178D138D178D178D173E
:100A4000003020000D1B0130F10021008D137108D2
:100A5000080021000D130D138D138D138D178D17A5
:100A60008D170D170800F801F901FA01FB01701C40
:100A7000412D7408F8077508F93D7608FA3D7708A6
:100A8000FB3DF435F50DF60DF70DF336F20CF10CD8
:100A9000F00C7308720471047004031D372D7B0879
:100AA000F3007A08F2007908F1007808F0000800F5
:100AB000A32D3B08220064020318632D2000BC0113
:100AC000BC0AFF308A2D2000C201A12D22005F0840
:100AD00020004202031C6F2D0230BC00AE2DC20A62
:100AE000612D3B0822006302031C7C2D0330200093
:100AF000BC00BA01B901AE2D20003B08F200033062
:100B0000F301F2070318F30A0430F000F101B025F5
:100B100083317008BA00AE2D3B0822006402031C2A
:100B20005E2D20004208031D972DBC01AE2DB90A91
:100B30003908220062020318A02D2000B901C20367
:100B40002000BA01AE2D20003C08840004300402CD
:100B50000318952D903104352E3E82003A08F02D71
:100B6000F501F11FBA2DF009F109F00A0319F10A94
:100B7000F501F50AF31FC32DF209F309F20A03196F
:100B8000F30A0130F506F601F70170087104031944
:100B9000E32DF401F40AF11BD02DF035F10DCA2D2F
:100BA000F635F70D71087302031DD82D7008720217
:100BB000031CDF2D7008F2027108F33B7614F13646
:100BC000F00CF40BD02D75080319EB2DF609F7097D
:100BD000F60A0319F70A7708F1007608F000080012
:100BE000F0002000D50008002100C10FF92D2000E1
:100BF000CE0120004E0803190800173021004306DB
:100C0000031D08003B304206031D08002830410642
:100C1000031D08000B2E00308F31A62785315A3076
:100C20002000B200A530B3000530B02EFD01093020
:100C30007D0203181F2EB7268531FD0A172EFD01F0
:100C40000C27C801080023002008FB3EFB002508F4
:100C5000023A0319322E073A03194E2EF53A0319B8
:100C6000552E612EFA01F901FB030319462E7A086D
:100C7000F0007A08A73E8600013087000108F100E5
:100C8000260862268531F907FA0A342E7908031DF1
:100C900008002608A32600308F31E12F7B0B0800C7
:100CA0002608902600308F31E12F02307B06031D8D
:100CB00008002708F10026088F31552700308F31B2
:100CC000E12F0800F8000930780203180134780891
:100CD000593E840098300318013E850000087002D8
:100CE000031801347808F2003230F301F235F30DC5
:100CF000720784009830733D8500003FF600013F85
:100D0000F7007008F200F3017607F4007308773DEE
:100D1000F5007408860075088700710881000034AA
:100D2000F000033021005A06031D9C2EA030200045
:100D3000A8000F30A900A02E0A302000A800A901A9
:100D40007008CC000800F500B02685317508203EFB
:100D5000860001308700011D08003F278531A62E3F
:100D6000F000203E860001308700011508000C27A6
:100D70008531CF2E4908BA278531F3002000260897
:100D80008600270887007308810026088600270848
:100D900087000108CB07C90AA60A0319A70ACA03D4
:100DA0004A0FBA2E4908BA27853120004B06031D89
:100DB000E12E7D08203E8600013087008101810AF6
:100DC00008007D08203E8600013087000230810047
:100DD0000C2785312408250403190800012F240855
:100DE0008400250885000008F300260886002708EF
:100DF000870073088100A60A0319A70AA40A031929
:100E0000A50ACA034A0FEF2E7D08203E8600013056
:100E100087000330810008007D08503E8400983030
:100E20000318013E850000082000C9007D08F0007D
:100E30003230F101F035F10D700784009830713DCA
:100E40008500003FA600013FA7007D08F00020308C
:100E5000F101F035F10D700784009830713D850087
:100E6000003FA400013FA5007D08593E8400983052
:100E70000318013E85000008CA00CB010800AD2F11
:100E8000FD0109307D02031808007D08203E860020
:100E9000013087000108031D4E2FB72E7D08203E2C
:100EA000860001308700011D772F7D08203E8600D7
:100EB00001110C278531F4014A0874020318702FC0
:100EC0007408293E86000130870026088400270820
:100ED000850000088100A60A0319A70AF40A5C2FFE
:100EE0002930A6000130A700C801C80A0800FD0A81
:100EF000412F26088600270887004908BA27853130
:100F0000010603198D2F2000260886002708870078
:100F10000108F0004908C527853120002608860011
:100F2000270887000108CB07C90AA60A0319A70AE0
:100F3000CA034A08031D08000230C8000800490817
:100F4000BA27853120004B060319AA2F4B08F00061
:100F50004908C5272000C801080020004808003AB9
:100F60000319402F013A0319792F033A03199F2FD0
:100F7000AA2F0800F0002300910092011513951389
:100F800015140000230013080800F1000B08F200FC
:100F90008B13710823009100920170089300951340
:100FA0001513151555309600AA309600951495180E
:100FB000D72FF21B8B1715110800230022082100E0
:100FC00049060319F52F2300220821004A060319B8
:100FD000F52F2300220821004B060319F52F2300CB
:100FE000220821004C06031D08002208A13E8600AD
:100FF0000130870001080319080020004014080090
:101000000800E13022009200023091008430970005
:101010009117200092121B30280097002100931096
:1010200028001E1101309E00210093112000931111
:10103000D001D101D201D301D501D801D701D60108
:101040002100C81C080024008D130800210020186E
:10105000A0184828201D48282108031948282010D6
:10106000A10124000630A101A4001230A000B33079
:101070008600003087000530203E84000230850065
:101080000E30F10016001A00F10B42286120883161
:101090002100A20104302202031808002208AF3EFA
:1010A00086008701010803195A282208AF3E8600EE
:1010B00081035F282208A73E860087018101A20ADA
:1010C0004A2805302100A3000230A0148F319C2F44
:1010D0002108031D00342100FF30A501A201A60054
:1010E0000430220203189A282208A73E86008701AE
:1010F000010823002206031D882821002208AB3E98
:1011000086000F3023002305F00001060319013487
:1011100021002208AF3E860087012608010203183D
:1011200098282208AF3E86000108A6002208A500E4
:10113000A20A70282508A73E8600870123002208FE
:10114000810021002508AB3E860023002308810092
:1011500021002508AB3E86000F3081052508AF3EF3
:10116000860046308100003421005A08013A0319F4
:10117000C328033A0319C628013A0319C428073AB9
:101180000319C528C628C7281C291B2908000A29B5
:101190008B135808031DD32802304406031DD4289E
:1011A000C301C30AD428D8018B1743080319FB28AD
:1011B0004308C4004303031DE12822008C110C15D1
:1011C000EC2802304306031DE92822000C118C157F
:1011D000EC2822008C110C112730142188310B1DB2
:1011E000EF2822008C110C1120006430C301C501CE
:1011F000C50AC200080022008C110C110800220050
:101200008C110C112000420803190829C2030800A0
:10121000C501080020004508003A0319C828013A12
:101220000319FF2808290800F0008B12700920001C
:1012300095000B11080008000800210048186629D5
:1012400030292E082F04031D08002000BF01BF0A0B
:10125000080072218931003A0319342901307921BB
:1012600002302000BF0008002000401C08000030B1
:1012700040102F2972218931003A03194129013088
:1012800046292000401C482900304010792189312E
:1012900020002E082F04031D08000F30BE0003306D
:1012A000BF0008003E0803195729BE030800722139
:1012B0008931003A031925299B302000BE000430F3
:1012C000BF0008003E08031D5529252920003F08BE
:1012D0008400053004020318252990310435243E8A
:1012E000820008002100C81C003420008D1B01343E
:1012F0000034F000203021004302031885294E08F5
:101300002000AF0021004D088A2950082000AF00BE
:1013100021004F082000AE00701C08002100C81CEE
:101320000800340303190800B401B40A20140800AB
:10133000CB218931FC00063044027C08FA00031CF2
:10134000A729FA36FA36FA367A08473EAC29FA3631
:10135000FA36FA367A08533E8600013087000108D3
:10136000FB0060307C020318C8290130FA007C08B9
:101370000739890ABC29FA35890BBB297A087B050C
:101380000319C4290130C52900302000BD00080020
:101390002000BD0108004308DA218931F9000F302F
:1013A000F935F935F5004208DA2189310922F907C2
:1013B00079080800F400F3000F30F3050A30F0005C
:1013C000740E0F39E621F30773080800F200F101EB
:1013D00070087218F107F0357008F218F107F0354F
:1013E00070087219F107F0357008F219F107F0353D
:1013F0007008721AF107F0357008F21AF107F0352B
:101400007008721BF107F0357008F21BF1077108C4
:101410000800F600F801750803191F2AF701F70AFA
:10142000F51B142AF5350F2AF83575087602031CCA
:101430001C2A7508F6027814F536F70B142A78087A
:10144000080083228A31230025082000D900DA0110
:10145000DB01DC01230026082000DD00DE01DF01C6
:10146000E0015F08E0005E08DF005D08DE00DD01EE
:10147000230027082000E100E201E301E401620803
:10148000E4006108E300E201E101230028082000F4
:10149000E800E701E601E5016508E1046608E20409
:1014A0006708E3046808E4046108DD046208DE04F8
:1014B0006308DF046408E00459085D04F1005A0879
:1014C0005E04F2005B085F04F3005C086004F40053
:1014D0002306031D752A73082206031D752A720848
:1014E0002106031D752A7108200603197F2A223060
:1014F000A001A101A201A3018C313D2400340030E0
:101500008F31E12701340730A8228A3124302000AE
:10151000A0066130A1062330A206CA30A30605301A
:10152000A8228A3141302000A0061630A1063230B0
:10153000A206AC30A3060330A8228A311230200064
:10154000A0060130A1061030A2060130A306A82A89
:10155000F000F003700FAD2A08002000A31FB62A88
:10156000A035A10DA20DA30D2014A92AA035A10D0F
:10157000A20DA30DA92A200036080319C12A1F2392
:101580008A3134080319F62AB40308005B232000CB
:10159000B6002000B50A0800CC3001238A31C92AE0
:1015A0004430012320003230B50AB4000800CC30AA
:1015B00001238A31C92ABE3001238A31C92A0E2368
:1015C0008A312000AA00AB010E23F400F501F500DA
:1015D000F40174082000AA047508AB04B50AFA30B7
:1015E000B4000800B501EF2AB501080035088400F1
:1015F000083004020318F42A90310435003E8200BA
:101600000800F2000830F300F303730F082B080002
:10161000720801393B238A31F236042BF201F301BF
:10162000F30A730803191D2B23238A31003A031987
:101630001B2B7308F204F335112B72080800B50157
:10164000B601B401080022008D1321008D138D1303
:101650008D138D178D178D178D17003020008D1B62
:101660000130F00021008D170630F1008D17F10BCD
:10167000362B70080800F00022008D1321008D1316
:101680008D138D13701C4D2B8D170630F1008D17A7
:10169000F10371080319552B472B8D130630F10008
:1016A0008D13F1037108031D502B8D178D178D17A6
:1016B0008D178D17080021008D1722008D13210032
:1016C0008D173F30F1008D17F10B632B8D133F30D9
:1016D000F1008D13F10B692B8D170730F1008D1779
:1016E000F10B6F2B003020008D1B0130F00021002A
:1016F0008D173F30F1008D17F10B7B2B7008080020
:10170000883168208B31003A031D08002400A401B1
:10171000A001152C05302100A20023002008210083
:1017200022020318332C2208A03E860001308700D5
:101730000108A500113A031DA12B8731DD278B314C
:10174000B82B07302506031DA92B96316E268B3149
:10175000B82B71302506031DB12B963197268B319E
:10176000B82BB1302506031DB82B9731C1278B311B
:10177000210025080F392207013E8C2B210803196F
:10178000332C973117278B31332C21080319332C35
:101790008A3121228B31003A0319332C2100A01504
:1017A000332C21080319332C2100A01D332CFF30CA
:1017B000F0008731C5278B310030E1278B31332C86
:1017C00022303D248B31230021080319332C2100C2
:1017D000A01D332C863123268B31332C22303D241F
:1017E0008B31230021080319332C4A248B31332CED
:1017F00021080319332C2100A01D332C86310B2620
:101800008B31332CA4302506031D092C2100201117
:10181000332C4A302506031D332C21002015A0113E
:10182000332C963102268B31332C23002408063AC0
:1018300003198A2B0E3A0319112CF83A0319BE2BFF
:10184000013A0319C52B023A0319E02B063A031992
:10185000F82B033A0319EE2B0E3A0319D12B013A58
:101860000319022C332C2400240803190800230038
:1018700022082400A10088316128F00023002108FB
:1018800003190800FF302400A4007008A5000530EB
:10189000A00008002508013A0319552C033A031942
:1018A000652C073A03198C2CDB2C2400A501A50A12
:1018B00020004F082400A6000830FA00FB017B0836
:1018C000A7000830A8000430E12F26089631222610
:1018D0008B31FA00FB017B0403190800F801F901C0
:1018E0007B087902031D762C7A08780203188A2C6B
:1018F0007808F00026089631AE268B31F70078087C
:10190000253E86000230870077088100F80A031917
:10191000F90A702C7A08E12FDE252400A500953104
:10192000D2258B312400A600200058082400A700EF
:10193000A9258B312400A80020004E082400A9000E
:10194000200051082400AA00200050082400AB0009
:10195000003020008D1B01302400AC00AD012000C0
:101960002E082400AE0020000D082400AF00210046
:101970000D082400B0000D08B100FC278B312400B5
:10198000B200C0258B312400B30020004D08240094
:10199000B40020002D082400B50020002C082400ED
:1019A000B60020002B082400B70020002A082400DD
:1019B000B8001430E12F0800963181268B31963122
:1019C000E9268B31963130268B319531DC258B31F0
:1019D000863116268B319531E2258B318B311F23D1
:1019E0008B31883101208B310026833183238B3169
:1019F0008331E2238B3182259531F1258B3195316D
:101A0000D5258B3196310C268B31833182238B3156
:101A100020003130B201B301D801EA008B17200059
:101A2000B00A0319B10A2B268B31FF278B31200016
:101A3000911C0F2D9110EB0A0319EC0A97318427A2
:101A40008B3189311D218B318B258831B4208B312D
:101A5000883126208B3187313F278B312100D91DDA
:101A6000342D843116248B312100591E3A2D8A31B0
:101A7000BB228B3120006A080319402DEA03522D46
:101A80003130EA0096314D268B31C62589319821B7
:101A90008B318331DC238B3197314B278B3195315F
:101AA000E9258B3120006B08E9001F30E905772D0F
:101AB000883100208B310F2D8531F4258B310F2D8E
:101AC0005A303206A53003193306031D0F2D963107
:101AD0005D268B31003A03190F2D9631C7268B31C5
:101AE000003A03190F2D8B138B1301000F2D69087A
:101AF00084000530040203180F2D90310435103E88
:101B000082000F2D20000030A801A9010310031846
:101B10000130CC00080021005919932D200028081D
:101B2000290403199E2D2100591CA62DA9258B31AE
:101B3000003A031DA62D2000CC01A62DAC258B312B
:101B4000003A03199B2D64302000CC0020004C0883
:101B5000A62F20003D080800F0012100D91CBA2D55
:101B6000C0258B31F0002100591CBE2DA9258B31D9
:101B7000F005BE2D591CBE2DA925F00070080800E7
:101B8000023020003F0603190134003420002808E9
:101B900029040319D32D0130A8020030A93B2808DD
:101BA00029040319CC01DE258B31210040060319DD
:101BB0000800DE252100C00020140800F001EF2DF0
:101BC000DB278B31ED2D200041080319E92D013071
:101BD000ED2D0030ED2DF7278B31F000FE2D21008B
:101BE0005A08013A0319E02D033A0319E32D013A8B
:101BF0000319EB2D073A0319E32DFE2D7008080099
:101C000032278B31F5302400A4000530A000FF30CE
:101C1000A10086278B3156268B312100A01120157B
:101C2000A010A101A201043022020318222E2208D2
:101C3000A73E8600870181012208AF3E8600810110
:101C4000A20A132E1130B3004430B5005430BA004C
:101C50007130BF0008002100A01C462E2000931CFC
:101C6000080081278B3183304F02031C432E28301C
:101C70009C278B31210023080319402EA303080061
:101C80002100A010562E86278B31402E67268B31DF
:101C90002300200803194F2E80238B31422E200071
:101CA00046080319080032278B31562E23002030B6
:101CB000A00161278B310D30F0268B31F500013802
:101CC000F1000D3055278B318B106030612F603063
:101CD0002000470603198B1C080081278B31203018
:101CE00061278B311F308400983085000008BF3990
:101CF0004038F1001F3055278B31A6268B31F60076
:101D00003F3076020318982E76082300A000F501D4
:101D100076080319982EF50A7508A03E8600013052
:101D20008700A6268B318100F603882EA6268B31EC
:101D30000D30F0268B310239031D962E230020082A
:101D4000031D08002000C601C60A080022000C126C
:101D500096311626F00022000C1670080800F701D4
:101D60007708003E840098300318013E8500000883
:101D7000F100770855278B312030F70A7702031CD2
:101D8000B02E0E30F0268B31F6000238F1000E3006
:101D900055278B31403061278B31FF30F700F5013B
:101DA000DA2E0E30F0268B31F600F61CDA2EF70113
:101DB000F501F50AF703770FD12E203061278B311B
:101DC0000E30F0268B31F6000238F1000E30552728
:101DD0002000CF012300A0012000C60175080800E3
:101DE000F20022008D1172354038F20075279631CD
:101DF0001626F10022008D15710808002030612799
:101E00008B311F308400983085000008F1001F30AE
:101E1000711355278B310D308400983085000008F0
:101E20000138F1000D3055278B310E308400983089
:101E3000850000080238F1000E3055278B31F5017E
:101E4000750824002002031C302F7508203E8600F0
:101E50000230870001089531F9258B31F50A202FD2
:101E60008030612FAF268B31003A03190100210029
:101E70006608F100163055278B3121006708F10004
:101E8000173055278B3121006808F100183055278D
:101E90008B3121006908F100193055278B31210061
:101EA0006A08A400F1001D30552FF20022008D11A8
:101EB000F235720875278B317108752722008D1550
:101EC0000800F4008B100030840098308500000872
:101ED000F3001F30F3057408F3047308F1000030B9
:101EE000552774082000C7000800F00024001108DE
:101EF0002000911170082400910020009119080021
:101F00007D2F1430F0262000CF0008002100240887
:101F10002400A200A301FE268B3134309C278B3194
:101F2000942F20009318962F8B1C912F2000931C28
:101F30009A2F322F2030612FF000280017117008DF
:101F4000960020009310280017150800F2002000CA
:101F5000C10021005A08013A0319B82F033A0319A6
:101F6000CB2F013A0319D42F073A0319D72FDA2FB1
:101F70007208220064020318C42FDB278B31003A59
:101F8000031D08000130ED2FDB278B31013A031DC3
:101F900008000030ED2F72080319D12F22008C1594
:101FA000080022008C11080072089531D82D7208A3
:101FB00096313E2E080002302000440603190134F9
:101FC0000034F0002300210803190800240824002D
:101FD000A4007008043EA0000800F0007008031977
:101FE000F42F0230C3000800C301C30A0800200018
:101FF0003A08031D01340034200045080800080099
:102000008A31C62A8A31CC2A8A31D02A8A31C62A14
:102010008A31D72A8A31DB2A8A31DF2A8A31F22AA9
:102020008D31582D8D315C2D8D31602D8D31812D6F
:102030008D31812D84311C2C8431292C8431432C09
:102040008431502C84318A2C8931212989312929E4
:1020500089313A2989315229893162298531592DAD
:102060008531662D8531712D85318C2D0000000064
:102070000000000000000000000000000000000060
:102080000000000000000000000000000000000050
:102090000000000000000000000000000000000040
:1020A0000000000000000000000000000000000030
:102BA000000000002000410808002000BD010800CE
:102BB000F0002000BB0008000D138D1321000D173D
:102BC0008D170800FF30B801CD00AC00AD00B70193
:102BD00008003C3021020318EF2DA10A0800201440
:102BE00008001430AE00AF014010BF012100B40155
:102BF0000800F10022000C1271088F3175272200A5
:102C00000C1608002100D101D201D301D401D50155
:102C1000D601D701D8010800CE012100C701C601A5
:102C2000C501C401C301C201C1010800240011088B
:102C300020009111240091012000911D1C2E2400E0
:102C400011080800F0000930700203180034700801
:102C5000593E840098300318013E850000080800A2
:102C600024009501960197014030940021009111B4
:102C70002400951622000C168D150800F100402E38
:102C8000F0002000D6005608031D080022008C1119
:102C90000C1121000C118C1108002100481C0800A7
:102CA00020002E082F0403195A2E0130AE020030E6
:102CB000AF3B08002100B4010800F0017008203E7D
:102CC000860001308700011900340930F00A7002D3
:102CD000031C5E2E48080319013400342000CE1472
:102CE00021002208A13E860001308700C130840007
:102CF000003085000730F00016001A00F00B7C2E23
:102D00000800403022009D0090308C0008308D007B
:102D1000023023008C008D01E33021008D00223031
:102D20008C0047309500E13024008D0008005F08DA
:102D300023002206031D080021002208A13E860070
:102D40000130870001082000CC0021005E0820002F
:102D5000A90021005D082000A8000800F400F1008F
:102D60003230F201F135F20D710784009830723D76
:102D70008500003FF500013FF6007008F100F20108
:102D8000750786007208763D870001080800F1018A
:102D9000F10ACE2EDF269631F100DD2E21005A08F1
:102DA000013A0319CA2E033A0319DD2E013A031919
:102DB000DD2E073A0319DD2EDD2E71080800F00123
:102DC000F00A2000450803194308031DF0017008AC
:102DD00008008B0121009101920120302000EB00BE
:102DE0004E30EC000130EB020030EC3B6B0FF22E6A
:102DF0006C0A031DF22E21001908873960389900EA
:102E000064302000EB00EC010130EB020030EC3BC1
:102E10006B0F042F6C0A031D042F03309C009C30A1
:102E20009B0091102100911020001C15080020002B
:102E30003008F1003108F200F301F401F4007108E8
:102E4000F300F201F1017408A3007308A2007208F4
:102E5000A1007108A0006B08F1006C08F200F301FA
:102E6000F4017108A0047208A1047308A204740894
:102E7000A30423082400A800200022082400A7009F
:102E8000200021082400A600200020082400A5001E
:102E900004308F31E12F7227973171082100D1075B
:102EA0007208D23D0030D33DD43D81277008D5074C
:102EB0007108D63D0030D73DD83D5408B9005308BD
:102EC000B8005208B7005108B6000430D13E860061
:102ED0008701403FBB00413FBC00423FBD00433F34
:102EE000BE0008008D31DE259731003A03197E2F90
:102EF00021006C08F2006B08F1000800F101F201FA
:102F00000800F001F101080021005A030319902F75
:102F100004305A060319902F03305A06031D972FC9
:102F2000921E942F0B1B992F92160B17992F92120A
:102F30000B132000D3358D1B531407305305F000BD
:102F4000073A031DA52FD114A92F530807390319D8
:102F5000D1100230510603195114D2350D1F5214ED
:102F600007305205F000073A031DB82FD014BC2FCC
:102F7000520807390319D0100230500603195014B3
:102F80000800601C08006108230022060319EE2FC8
:102F900021006208230022060319EE2F2100630896
:102FA00023002206031D0800EE2F20000030A80198
:102FB000A901031003180130CC00080021006508A6
:102FC0002000A900210064082000A8006430CC0083
:102FD000080020004C08031DD52FDE2F21002208F9
:102FE000A13E8600013087000108003A0319D52F61
:102FF000013A0319DE2F033A0319E92FFF2F0800C6
:1030000036348434043404340C34C1347D346434B0
:10301000143477345F3413343834083401340034D2
:10302000A334383438340734003400347A347A34F2
:103030006C343134B034003440340034FC34003467
:1030400088349834443498347B34983462349834D7
:10305000733498346B3498348D3498348234983483
:1030600044349834E634003453340134D9340034D1
:10307000C83400345F340134D1340034EB340034CC
:10308000E034003447340134003400340034003478
:103090000034003400340034003400340034003490
:1030A000F034003414341E3432343C34463450345A
:1030B000643405340C3407340934083408340434D7
:1030C00006340C340034FF34FF34FF34FF343C3416
:1030D00000343C3400340034003400340034003414
:1030E000003400340034643450343C340434053447
:1030F0000A34503419340434003403343E34003478
:103100000034FF340034FF34FF34FF34B43400346F
:103110007A347A346C343134FE3400340034003480
:10312000003400000000000000000000000000006B
:10313000000000000000000000000000000000008F
:10314000000000000000000000000000000000007F
:10315000000000000000000000000000000000006F
:10316000000000000000000000000000000000005F
:00000001FF
